{
  "_format": "hh-sol-artifact-1",
  "contractName": "InterestRateStrategy",
  "sourceName": "contracts/protocol/configuration/InterestRateStrategy.sol",
  "abi": [
    {
      "inputs": [
        {
          "internalType": "contract IStakingPoolAddressesProvider",
          "name": "provider",
          "type": "address"
        },
        {
          "internalType": "uint256",
          "name": "currentAPR_",
          "type": "uint256"
        },
        {
          "internalType": "uint256",
          "name": "interestRateProtectionLowerLimit_",
          "type": "uint256"
        },
        {
          "internalType": "uint256",
          "name": "interestRateProtectionOptimal_",
          "type": "uint256"
        },
        {
          "internalType": "uint256",
          "name": "interestRateProtectionReserveRatio_",
          "type": "uint256"
        },
        {
          "internalType": "uint256",
          "name": "interestRateProtectionUpperLimit_",
          "type": "uint256"
        },
        {
          "internalType": "uint256",
          "name": "optimalUtilizationRateIntervalStart_",
          "type": "uint256"
        },
        {
          "internalType": "uint256",
          "name": "optimalUtilizationRateIntervalEnd_",
          "type": "uint256"
        }
      ],
      "stateMutability": "nonpayable",
      "type": "constructor"
    },
    {
      "anonymous": false,
      "inputs": [
        {
          "indexed": true,
          "internalType": "address",
          "name": "previousOwner",
          "type": "address"
        },
        {
          "indexed": true,
          "internalType": "address",
          "name": "newOwner",
          "type": "address"
        }
      ],
      "name": "OwnershipTransferred",
      "type": "event"
    },
    {
      "anonymous": false,
      "inputs": [
        {
          "indexed": false,
          "internalType": "uint256",
          "name": "currentAPR",
          "type": "uint256"
        },
        {
          "indexed": false,
          "internalType": "uint256",
          "name": "interestRateProtectionLowerLimit",
          "type": "uint256"
        },
        {
          "indexed": false,
          "internalType": "uint256",
          "name": "interestRateProtectionOptimal",
          "type": "uint256"
        },
        {
          "indexed": false,
          "internalType": "uint256",
          "name": "interestRateProtectionReserveRatio",
          "type": "uint256"
        },
        {
          "indexed": false,
          "internalType": "uint256",
          "name": "interestRateProtectionUpperLimit",
          "type": "uint256"
        },
        {
          "indexed": false,
          "internalType": "uint256",
          "name": "optimalUtilizationRateIntervalStart",
          "type": "uint256"
        },
        {
          "indexed": false,
          "internalType": "uint256",
          "name": "optimalUtilizationRateIntervalEnd",
          "type": "uint256"
        }
      ],
      "name": "StrategyParamsChanged",
      "type": "event"
    },
    {
      "inputs": [],
      "name": "baseVariableBorrowRate",
      "outputs": [
        {
          "internalType": "uint256",
          "name": "",
          "type": "uint256"
        }
      ],
      "stateMutability": "view",
      "type": "function"
    },
    {
      "inputs": [
        {
          "internalType": "uint256",
          "name": "availableLiquidity",
          "type": "uint256"
        },
        {
          "internalType": "uint256",
          "name": "totalStableDebt",
          "type": "uint256"
        },
        {
          "internalType": "uint256",
          "name": "totalVariableDebt",
          "type": "uint256"
        },
        {
          "internalType": "uint256",
          "name": "averageStableBorrowRate",
          "type": "uint256"
        },
        {
          "internalType": "uint256",
          "name": "fee",
          "type": "uint256"
        },
        {
          "internalType": "uint256",
          "name": "liquidityReserveRatio",
          "type": "uint256"
        }
      ],
      "name": "calculateInterestRates",
      "outputs": [
        {
          "internalType": "uint256",
          "name": "",
          "type": "uint256"
        },
        {
          "internalType": "uint256",
          "name": "",
          "type": "uint256"
        },
        {
          "internalType": "uint256",
          "name": "",
          "type": "uint256"
        }
      ],
      "stateMutability": "view",
      "type": "function"
    },
    {
      "inputs": [
        {
          "internalType": "uint256",
          "name": "availableLiquidity",
          "type": "uint256"
        },
        {
          "internalType": "uint256",
          "name": "liquidityAdded",
          "type": "uint256"
        },
        {
          "internalType": "uint256",
          "name": "liquidityTaken",
          "type": "uint256"
        },
        {
          "internalType": "uint256",
          "name": "totalStableDebt",
          "type": "uint256"
        },
        {
          "internalType": "uint256",
          "name": "totalVariableDebt",
          "type": "uint256"
        },
        {
          "internalType": "uint256",
          "name": "averageStableBorrowRate",
          "type": "uint256"
        },
        {
          "internalType": "uint256",
          "name": "fee",
          "type": "uint256"
        },
        {
          "internalType": "uint256",
          "name": "liquidityReserveRatio",
          "type": "uint256"
        }
      ],
      "name": "calculateInterestRates",
      "outputs": [
        {
          "internalType": "uint256",
          "name": "",
          "type": "uint256"
        },
        {
          "internalType": "uint256",
          "name": "",
          "type": "uint256"
        },
        {
          "internalType": "uint256",
          "name": "",
          "type": "uint256"
        }
      ],
      "stateMutability": "view",
      "type": "function"
    },
    {
      "inputs": [],
      "name": "currentAPR",
      "outputs": [
        {
          "internalType": "uint256",
          "name": "",
          "type": "uint256"
        }
      ],
      "stateMutability": "view",
      "type": "function"
    },
    {
      "inputs": [],
      "name": "interestRateProtectionLowerLimit",
      "outputs": [
        {
          "internalType": "uint256",
          "name": "",
          "type": "uint256"
        }
      ],
      "stateMutability": "view",
      "type": "function"
    },
    {
      "inputs": [],
      "name": "interestRateProtectionOptimal",
      "outputs": [
        {
          "internalType": "uint256",
          "name": "",
          "type": "uint256"
        }
      ],
      "stateMutability": "view",
      "type": "function"
    },
    {
      "inputs": [],
      "name": "interestRateProtectionReserveRatio",
      "outputs": [
        {
          "internalType": "uint256",
          "name": "",
          "type": "uint256"
        }
      ],
      "stateMutability": "view",
      "type": "function"
    },
    {
      "inputs": [],
      "name": "interestRateProtectionUpperLimit",
      "outputs": [
        {
          "internalType": "uint256",
          "name": "",
          "type": "uint256"
        }
      ],
      "stateMutability": "view",
      "type": "function"
    },
    {
      "inputs": [],
      "name": "maxBorrowVariableRate",
      "outputs": [
        {
          "internalType": "uint256",
          "name": "",
          "type": "uint256"
        }
      ],
      "stateMutability": "view",
      "type": "function"
    },
    {
      "inputs": [],
      "name": "optimalBorrowRate",
      "outputs": [
        {
          "internalType": "uint256",
          "name": "",
          "type": "uint256"
        }
      ],
      "stateMutability": "view",
      "type": "function"
    },
    {
      "inputs": [],
      "name": "optimalUtilizationRateIntervalEnd",
      "outputs": [
        {
          "internalType": "uint256",
          "name": "",
          "type": "uint256"
        }
      ],
      "stateMutability": "view",
      "type": "function"
    },
    {
      "inputs": [],
      "name": "optimalUtilizationRateIntervalStart",
      "outputs": [
        {
          "internalType": "uint256",
          "name": "",
          "type": "uint256"
        }
      ],
      "stateMutability": "view",
      "type": "function"
    },
    {
      "inputs": [],
      "name": "owner",
      "outputs": [
        {
          "internalType": "address",
          "name": "",
          "type": "address"
        }
      ],
      "stateMutability": "view",
      "type": "function"
    },
    {
      "inputs": [],
      "name": "renounceOwnership",
      "outputs": [],
      "stateMutability": "nonpayable",
      "type": "function"
    },
    {
      "inputs": [],
      "name": "reserveRatioBorrowVariableRate",
      "outputs": [
        {
          "internalType": "uint256",
          "name": "",
          "type": "uint256"
        }
      ],
      "stateMutability": "view",
      "type": "function"
    },
    {
      "inputs": [
        {
          "internalType": "uint256",
          "name": "currentAPR_",
          "type": "uint256"
        },
        {
          "internalType": "uint256",
          "name": "interestRateProtectionLowerLimit_",
          "type": "uint256"
        },
        {
          "internalType": "uint256",
          "name": "interestRateProtectionOptimal_",
          "type": "uint256"
        },
        {
          "internalType": "uint256",
          "name": "interestRateProtectionReserveRatio_",
          "type": "uint256"
        },
        {
          "internalType": "uint256",
          "name": "interestRateProtectionUpperLimit_",
          "type": "uint256"
        },
        {
          "internalType": "uint256",
          "name": "optimalUtilizationRateIntervalStart_",
          "type": "uint256"
        },
        {
          "internalType": "uint256",
          "name": "optimalUtilizationRateIntervalEnd_",
          "type": "uint256"
        }
      ],
      "name": "setStrategyParams",
      "outputs": [],
      "stateMutability": "nonpayable",
      "type": "function"
    },
    {
      "inputs": [
        {
          "internalType": "address",
          "name": "newOwner",
          "type": "address"
        }
      ],
      "name": "transferOwnership",
      "outputs": [],
      "stateMutability": "nonpayable",
      "type": "function"
    }
  ],
  "bytecode": "0x608060405234801561001057600080fd5b5060405161118638038061118683398101604081905261002f916100cc565b6100383361007c565b600880546001600160a01b0319166001600160a01b039990991698909817909755600195909555600293909355600391909155600455600555600655600755610142565b600080546001600160a01b038381166001600160a01b0319831681178455604051919092169283917f8be0079c531659141344cd1fd0a4f28419497f9722a3daafe3b4186f6b6457e09190a35050565b600080600080600080600080610100898b0312156100e957600080fd5b88516001600160a01b038116811461010057600080fd5b809850506020890151965060408901519550606089015194506080890151935060a0890151925060c0890151915060e089015190509295985092959890939650565b611035806101516000396000f3fe608060405234801561001057600080fd5b506004361061010b5760003560e01c806376a6bb4c116100a2578063af2ca0f011610071578063af2ca0f0146101c5578063b2589544146101cd578063d4428347146101d5578063d7b5d02e146101e8578063f2fde38b146101fb57600080fd5b806376a6bb4c1461016a5780638da5cb5b146101735780638f8855281461018e578063a0d65d6a146101bc57600080fd5b806360577981116100de5780636057798114610146578063715018a61461014f5780637258370214610159578063750659891461016157600080fd5b8063097b622c146101105780630cbd612b1461012c57806319a4b3731461013557806333adc2de1461013d575b600080fd5b61011960055481565b6040519081526020015b60405180910390f35b61011960075481565b61011961020e565b61011960035481565b61011960015481565b61015761022c565b005b610119610240565b61011960045481565b61011960065481565b6000546040516001600160a01b039091168152602001610123565b6101a161019c366004610de3565b610259565b60408051938452602084019290925290820152606001610123565b61011960025481565b610119610623565b61011961063c565b6101576101e3366004610e26565b610655565b6101a16101f6366004610e72565b610889565b610157610209366004610ec7565b6108c8565b600061022760035460015461094190919063ffffffff16565b905090565b610234610a04565b61023e6000610a5e565b565b600061022760055460015461094190919063ffffffff16565b60008060006102bb60405180610160016040528060008152602001600081526020016000815260200160008152602001600081526020016000815260200160008152602001600081526020016000815260200160008152602001600081525090565b6102c5888a610f0d565b81526000602082018190526040820181905260608201526102e4610240565b60e08201526102f1610623565b6101008201526102ff61063c565b61012082015261030d61020e565b6101408201528051156103375780516103329061032a908c610f0d565b825190610aae565b61033a565b60005b6080820181905261035690676765c793fa10079d601b1b610f20565b60a082015261037085676765c793fa10079d601b1b610f20565b60c08201819052608082015111156103c8576103af856103a98360a001518461010001518560e001516103a39190610f20565b90610941565b90610aae565b8160e001516103be9190610f20565b6020820152610475565b80608001518160c00151101580156103e557506007548160800151115b1561043b5761042c6007548260c001516103ff9190610f20565b6103a98360a001518460c001516104169190610f20565b8461014001518561010001516103a39190610f20565b8160c001516103be9190610f20565b61045f6007546103a983608001518461012001518561014001516103a39190610f20565b81610120015161046f9190610f0d565b60208201525b600654816080015111156105c75760006104c86104b6600654676765c793fa10079d601b1b6104a49190610f20565b676765c793fa10079d601b1b90610aae565b60065484608001516103a39190610f20565b905060006104d7826002610b8c565b905060006104fb60026104f585676765c793fa10079d601b1b610f20565b90610b8c565b905061052c6001548360028151811061051657610516610f33565b602002602001015161094190919063ffffffff16565b6105898561014001516103a38560018151811061054b5761054b610f33565b60200260200101516103a38660018151811061056957610569610f33565b6020026020010151676765c793fa10079d601b1b60026103a39190610f49565b6105a58661014001518460028151811061051657610516610f33565b6105af9190610f0d565b6105b99190610f0d565b6040850152506105d3915050565b61014081015160408201525b6106006105e287612710610f20565b6105fa83608001516103a38d8d87602001518e610c8d565b90610cf5565b606082018190526040820151602090920151909b919a5098509650505050505050565b600061022760045460015461094190919063ffffffff16565b600061022760025460015461094190919063ffffffff16565b61065d610a04565b610674676765c793fa10079d601b1b610fa0610cf5565b8711156106d95760405162461bcd60e51b815260206004820152602860248201527f496e7465726573745261746553747261746567793a20496e76616c6964206375604482015267393932b73a20a82960c11b60648201526084015b60405180910390fd5b84861080156106e757508385105b80156106f257508284105b801561070057506127108311155b6107695760405162461bcd60e51b815260206004820152603460248201527f496e7465726573745261746553747261746567793a20496e76616c696420696e6044820152733a32b932b9ba2930ba32a83937ba32b1ba34b7b760611b60648201526084016106d0565b81600010801561077857508082105b801561078e5750676765c793fa10079d601b1b81105b6108005760405162461bcd60e51b815260206004820152603c60248201527f496e7465726573745261746553747261746567793a20496e76616c6964206f7060448201527f74696d616c5574696c697a6174696f6e52617465496e74657276616c0000000060648201526084016106d0565b60018790556002869055600385905560048490556005839055600682905560078190556040805188815260208101889052908101869052606081018590526080810184905260a0810183905260c081018290527fabfc0f323126a370ca83ec6d355d03b9531daa05bd86a2cc10378d2972c6f7799060e00160405180910390a150505050505050565b6000808080896108998c8e610f0d565b6108a39190610f20565b90506108b3818a8a8a8a8a610259565b93509350935050985098509895505050505050565b6108d0610a04565b6001600160a01b0381166109355760405162461bcd60e51b815260206004820152602660248201527f4f776e61626c653a206e6577206f776e657220697320746865207a65726f206160448201526564647265737360d01b60648201526084016106d0565b61093e81610a5e565b50565b600082158061094e575081155b1561095b575060006109fe565b816109726002676765c793fa10079d601b1b610f60565b61097e90600019610f20565b6109889190610f60565b8311156040518060400160405280600381526020016206260760eb1b815250906109c55760405162461bcd60e51b81526004016106d09190610f82565b50676765c793fa10079d601b1b6109dd600282610f60565b6109e78486610f49565b6109f19190610f0d565b6109fb9190610f60565b90505b92915050565b6000546001600160a01b0316331461023e5760405162461bcd60e51b815260206004820181905260248201527f4f776e61626c653a2063616c6c6572206973206e6f7420746865206f776e657260448201526064016106d0565b600080546001600160a01b038381166001600160a01b0319831681178455604051919092169283917f8be0079c531659141344cd1fd0a4f28419497f9722a3daafe3b4186f6b6457e09190a35050565b60408051808201909152600381526231303960e81b602082015260009082610ae95760405162461bcd60e51b81526004016106d09190610f82565b506000610af7600284610f60565b9050676765c793fa10079d601b1b610b1182600019610f20565b610b1b9190610f60565b8411156040518060400160405280600381526020016206260760eb1b81525090610b585760405162461bcd60e51b81526004016106d09190610f82565b508281610b70676765c793fa10079d601b1b87610f49565b610b7a9190610f0d565b610b849190610f60565b949350505050565b60606000610b9b836001610f0d565b67ffffffffffffffff811115610bb357610bb3610fd0565b604051908082528060200260200182016040528015610bdc578160200160208202803683370190505b509050676765c793fa10079d601b1b81600081518110610bfe57610bfe610f33565b60200260200101818152505082600003610c195790506109fe565b60008490508082600181518110610c3257610c32610f33565b602090810291909101015260025b848111610c8357610c518287610941565b915081838281518110610c6657610c66610f33565b602090810291909101015280610c7b81610fe6565b915050610c40565b5090949350505050565b600080610c9a8587610f0d565b905080600003610cae576000915050610b84565b6000610cbd856103a388610d7f565b90506000610cce856103a38a610d7f565b90506000610ce8610cde85610d7f565b6103a98486610f0d565b9998505050505050505050565b6000821580610d02575081155b15610d0f575060006109fe565b81610d1d6002612710610f60565b610d2990600019610f20565b610d339190610f60565b8311156040518060400160405280600381526020016206260760eb1b81525090610d705760405162461bcd60e51b81526004016106d09190610f82565b506127106109dd600282610f60565b600080610d90633b9aca0084610f49565b905082610da1633b9aca0083610f60565b146040518060400160405280600381526020016206260760eb1b81525090610ddc5760405162461bcd60e51b81526004016106d09190610f82565b5092915050565b60008060008060008060c08789031215610dfc57600080fd5b505084359660208601359650604086013595606081013595506080810135945060a0013592509050565b600080600080600080600060e0888a031215610e4157600080fd5b505085359760208701359750604087013596606081013596506080810135955060a0810135945060c0013592509050565b600080600080600080600080610100898b031215610e8f57600080fd5b505086359860208801359850604088013597606081013597506080810135965060a0810135955060c0810135945060e0013592509050565b600060208284031215610ed957600080fd5b81356001600160a01b0381168114610ef057600080fd5b9392505050565b634e487b7160e01b600052601160045260246000fd5b808201808211156109fe576109fe610ef7565b818103818111156109fe576109fe610ef7565b634e487b7160e01b600052603260045260246000fd5b80820281158282048414176109fe576109fe610ef7565b600082610f7d57634e487b7160e01b600052601260045260246000fd5b500490565b600060208083528351808285015260005b81811015610faf57858101830151858201604001528201610f93565b506000604082860101526040601f19601f8301168501019250505092915050565b634e487b7160e01b600052604160045260246000fd5b600060018201610ff857610ff8610ef7565b506001019056fea264697066735822122075af9715f25dc9c3ff90ab73923ccd5812fd977246eb09379fb1080871b0703864736f6c63430008110033",
  "linkReferences": {},
  "deployedLinkReferences": {}
}