{
  "_format": "hh-sol-artifact-1",
  "contractName": "StableDebtToken",
  "sourceName": "contracts/protocol/tokenization/StableDebtToken.sol",
  "abi": [
    {
      "inputs": [],
      "stateMutability": "nonpayable",
      "type": "constructor"
    },
    {
      "anonymous": false,
      "inputs": [
        {
          "indexed": true,
          "internalType": "address",
          "name": "owner",
          "type": "address"
        },
        {
          "indexed": true,
          "internalType": "address",
          "name": "spender",
          "type": "address"
        },
        {
          "indexed": false,
          "internalType": "uint256",
          "name": "value",
          "type": "uint256"
        }
      ],
      "name": "Approval",
      "type": "event"
    },
    {
      "anonymous": false,
      "inputs": [
        {
          "indexed": true,
          "internalType": "address",
          "name": "onBehalfOf",
          "type": "address"
        },
        {
          "indexed": false,
          "internalType": "uint256",
          "name": "amount",
          "type": "uint256"
        },
        {
          "indexed": false,
          "internalType": "uint256",
          "name": "currentBalance",
          "type": "uint256"
        },
        {
          "indexed": false,
          "internalType": "uint256",
          "name": "balanceIncrease",
          "type": "uint256"
        },
        {
          "indexed": false,
          "internalType": "uint256",
          "name": "avgStableRate",
          "type": "uint256"
        },
        {
          "indexed": false,
          "internalType": "uint256",
          "name": "newTotalSupply",
          "type": "uint256"
        }
      ],
      "name": "Burn",
      "type": "event"
    },
    {
      "anonymous": false,
      "inputs": [
        {
          "indexed": false,
          "internalType": "uint8",
          "name": "version",
          "type": "uint8"
        }
      ],
      "name": "Initialized",
      "type": "event"
    },
    {
      "anonymous": false,
      "inputs": [
        {
          "indexed": true,
          "internalType": "address",
          "name": "onBehalfOf",
          "type": "address"
        },
        {
          "indexed": false,
          "internalType": "uint256",
          "name": "amount",
          "type": "uint256"
        },
        {
          "indexed": false,
          "internalType": "uint256",
          "name": "currentBalance",
          "type": "uint256"
        },
        {
          "indexed": false,
          "internalType": "uint256",
          "name": "balanceIncrease",
          "type": "uint256"
        },
        {
          "indexed": false,
          "internalType": "uint256",
          "name": "newRate",
          "type": "uint256"
        },
        {
          "indexed": false,
          "internalType": "uint256",
          "name": "avgStableRate",
          "type": "uint256"
        },
        {
          "indexed": false,
          "internalType": "uint256",
          "name": "newTotalSupply",
          "type": "uint256"
        }
      ],
      "name": "Mint",
      "type": "event"
    },
    {
      "anonymous": false,
      "inputs": [
        {
          "indexed": true,
          "internalType": "address",
          "name": "from",
          "type": "address"
        },
        {
          "indexed": true,
          "internalType": "address",
          "name": "to",
          "type": "address"
        },
        {
          "indexed": false,
          "internalType": "uint256",
          "name": "value",
          "type": "uint256"
        }
      ],
      "name": "Transfer",
      "type": "event"
    },
    {
      "inputs": [],
      "name": "POOL",
      "outputs": [
        {
          "internalType": "contract IStakingPool",
          "name": "",
          "type": "address"
        }
      ],
      "stateMutability": "view",
      "type": "function"
    },
    {
      "inputs": [
        {
          "internalType": "address",
          "name": "owner",
          "type": "address"
        },
        {
          "internalType": "address",
          "name": "spender",
          "type": "address"
        }
      ],
      "name": "allowance",
      "outputs": [
        {
          "internalType": "uint256",
          "name": "",
          "type": "uint256"
        }
      ],
      "stateMutability": "view",
      "type": "function"
    },
    {
      "inputs": [
        {
          "internalType": "address",
          "name": "spender",
          "type": "address"
        },
        {
          "internalType": "uint256",
          "name": "amount",
          "type": "uint256"
        }
      ],
      "name": "approve",
      "outputs": [
        {
          "internalType": "bool",
          "name": "",
          "type": "bool"
        }
      ],
      "stateMutability": "nonpayable",
      "type": "function"
    },
    {
      "inputs": [
        {
          "internalType": "address",
          "name": "account",
          "type": "address"
        }
      ],
      "name": "balanceOf",
      "outputs": [
        {
          "internalType": "uint256",
          "name": "",
          "type": "uint256"
        }
      ],
      "stateMutability": "view",
      "type": "function"
    },
    {
      "inputs": [
        {
          "internalType": "address",
          "name": "onBehalfOf",
          "type": "address"
        },
        {
          "internalType": "uint256",
          "name": "amount",
          "type": "uint256"
        }
      ],
      "name": "burn",
      "outputs": [],
      "stateMutability": "nonpayable",
      "type": "function"
    },
    {
      "inputs": [],
      "name": "decimals",
      "outputs": [
        {
          "internalType": "uint8",
          "name": "",
          "type": "uint8"
        }
      ],
      "stateMutability": "view",
      "type": "function"
    },
    {
      "inputs": [
        {
          "internalType": "address",
          "name": "spender",
          "type": "address"
        },
        {
          "internalType": "uint256",
          "name": "subtractedValue",
          "type": "uint256"
        }
      ],
      "name": "decreaseAllowance",
      "outputs": [
        {
          "internalType": "bool",
          "name": "",
          "type": "bool"
        }
      ],
      "stateMutability": "nonpayable",
      "type": "function"
    },
    {
      "inputs": [],
      "name": "getAverageStableRate",
      "outputs": [
        {
          "internalType": "uint256",
          "name": "",
          "type": "uint256"
        }
      ],
      "stateMutability": "view",
      "type": "function"
    },
    {
      "inputs": [],
      "name": "getSupplyData",
      "outputs": [
        {
          "internalType": "uint256",
          "name": "",
          "type": "uint256"
        },
        {
          "internalType": "uint256",
          "name": "",
          "type": "uint256"
        },
        {
          "internalType": "uint256",
          "name": "",
          "type": "uint256"
        },
        {
          "internalType": "uint40",
          "name": "",
          "type": "uint40"
        }
      ],
      "stateMutability": "view",
      "type": "function"
    },
    {
      "inputs": [],
      "name": "getTotalSupplyAndAvgRate",
      "outputs": [
        {
          "internalType": "uint256",
          "name": "",
          "type": "uint256"
        },
        {
          "internalType": "uint256",
          "name": "",
          "type": "uint256"
        }
      ],
      "stateMutability": "view",
      "type": "function"
    },
    {
      "inputs": [],
      "name": "getTotalSupplyLastUpdated",
      "outputs": [
        {
          "internalType": "uint40",
          "name": "",
          "type": "uint40"
        }
      ],
      "stateMutability": "view",
      "type": "function"
    },
    {
      "inputs": [
        {
          "internalType": "address",
          "name": "user",
          "type": "address"
        }
      ],
      "name": "getUserLastUpdated",
      "outputs": [
        {
          "internalType": "uint40",
          "name": "",
          "type": "uint40"
        }
      ],
      "stateMutability": "view",
      "type": "function"
    },
    {
      "inputs": [
        {
          "internalType": "address",
          "name": "user",
          "type": "address"
        }
      ],
      "name": "getUserStableRate",
      "outputs": [
        {
          "internalType": "uint256",
          "name": "",
          "type": "uint256"
        }
      ],
      "stateMutability": "view",
      "type": "function"
    },
    {
      "inputs": [
        {
          "internalType": "address",
          "name": "spender",
          "type": "address"
        },
        {
          "internalType": "uint256",
          "name": "addedValue",
          "type": "uint256"
        }
      ],
      "name": "increaseAllowance",
      "outputs": [
        {
          "internalType": "bool",
          "name": "",
          "type": "bool"
        }
      ],
      "stateMutability": "nonpayable",
      "type": "function"
    },
    {
      "inputs": [
        {
          "internalType": "contract IStakingPool",
          "name": "pool",
          "type": "address"
        }
      ],
      "name": "initialize",
      "outputs": [],
      "stateMutability": "nonpayable",
      "type": "function"
    },
    {
      "inputs": [
        {
          "internalType": "address",
          "name": "onBehalfOf",
          "type": "address"
        },
        {
          "internalType": "uint256",
          "name": "amount",
          "type": "uint256"
        },
        {
          "internalType": "uint256",
          "name": "rate",
          "type": "uint256"
        }
      ],
      "name": "mint",
      "outputs": [],
      "stateMutability": "nonpayable",
      "type": "function"
    },
    {
      "inputs": [],
      "name": "name",
      "outputs": [
        {
          "internalType": "string",
          "name": "",
          "type": "string"
        }
      ],
      "stateMutability": "view",
      "type": "function"
    },
    {
      "inputs": [
        {
          "internalType": "address",
          "name": "user",
          "type": "address"
        }
      ],
      "name": "principalBalanceOf",
      "outputs": [
        {
          "internalType": "uint256",
          "name": "",
          "type": "uint256"
        }
      ],
      "stateMutability": "view",
      "type": "function"
    },
    {
      "inputs": [],
      "name": "symbol",
      "outputs": [
        {
          "internalType": "string",
          "name": "",
          "type": "string"
        }
      ],
      "stateMutability": "view",
      "type": "function"
    },
    {
      "inputs": [],
      "name": "totalSupply",
      "outputs": [
        {
          "internalType": "uint256",
          "name": "",
          "type": "uint256"
        }
      ],
      "stateMutability": "view",
      "type": "function"
    },
    {
      "inputs": [
        {
          "internalType": "address",
          "name": "recipient",
          "type": "address"
        },
        {
          "internalType": "uint256",
          "name": "amount",
          "type": "uint256"
        }
      ],
      "name": "transfer",
      "outputs": [
        {
          "internalType": "bool",
          "name": "",
          "type": "bool"
        }
      ],
      "stateMutability": "nonpayable",
      "type": "function"
    },
    {
      "inputs": [
        {
          "internalType": "address",
          "name": "sender",
          "type": "address"
        },
        {
          "internalType": "address",
          "name": "recipient",
          "type": "address"
        },
        {
          "internalType": "uint256",
          "name": "amount",
          "type": "uint256"
        }
      ],
      "name": "transferFrom",
      "outputs": [
        {
          "internalType": "bool",
          "name": "",
          "type": "bool"
        }
      ],
      "stateMutability": "nonpayable",
      "type": "function"
    }
  ],
  "bytecode": "0x608060405234801561001057600080fd5b5061001961001e565b6100de565b600054610100900460ff161561008a5760405162461bcd60e51b815260206004820152602760248201527f496e697469616c697a61626c653a20636f6e747261637420697320696e697469604482015266616c697a696e6760c81b606482015260840160405180910390fd5b60005460ff90811610156100dc576000805460ff191660ff9081179091556040519081527f7f26b83ff96e1f2b6a682f133852f6798a09c465da95921460cefb38474024989060200160405180910390a15b565b611710806100ed6000396000f3fe608060405234801561001057600080fd5b50600436106101425760003560e01c806390f6fcf2116100b8578063c4d66de81161007c578063c4d66de8146102af578063c634dfaa146102c2578063dd62ed3e146102d5578063e7484890146102e3578063e78c9b3b146102f2578063f731e9be1461030557600080fd5b806390f6fcf21461027e57806395d89b41146102865780639dc29fac1461028e578063a457c2d7146101d5578063a9059cbb146102a157600080fd5b8063313ce5671161010a578063313ce567146101c657806339509351146101d557806370a08231146101e85780637535d246146101fb578063797743381461022657806379ce6b8c1461025557600080fd5b806306fdde0314610147578063095ea7b314610165578063156e29f61461018857806318160ddd1461019d57806323b872dd146101b3575b600080fd5b61014f610322565b60405161015c919061135e565b60405180910390f35b6101786101733660046113c4565b6103b4565b604051901515815260200161015c565b61019b6101963660046113f0565b6103fd565b005b6101a56106fc565b60405190815260200161015c565b6101786101c1366004611425565b61070e565b6040516012815260200161015c565b6101786101e33660046113c4565b610752565b6101a56101f6366004611466565b61079d565b609a54600160281b90046001600160a01b03166040516001600160a01b03909116815260200161015c565b61022e61082b565b6040805194855260208501939093529183015264ffffffffff16606082015260800161015c565b610268610263366004611466565b610862565b60405164ffffffffff909116815260200161015c565b6097546101a5565b61014f6108a1565b61019b61029c3660046113c4565b6108b0565b6101786101c13660046113c4565b61019b6102bd366004611466565b610bb9565b6101a56102d0366004611466565b610d37565b6101a56101e3366004611483565b609a5464ffffffffff16610268565b6101a5610300366004611466565b610d59565b61030d610d91565b6040805192835260208301919091520161015c565b606060368054610331906114bc565b80601f016020809104026020016040519081016040528092919081815260200182805461035d906114bc565b80156103aa5780601f1061037f576101008083540402835291602001916103aa565b820191906000526020600020905b81548152906001019060200180831161038d57829003601f168201915b5050505050905090565b60405162461bcd60e51b81526020600482015260166024820152751054141493d5905317d393d517d4d5541413d495115160521b60448201526000906064015b60405180910390fd5b609a54600160281b90046001600160a01b03166001600160a01b0316336001600160a01b031614604051806040016040528060028152602001611c1960f11b8152509061045d5760405162461bcd60e51b81526004016103f4919061135e565b50610470836001600160a01b0316610daa565b92506104a46040518060a0016040528060008152602001600081526020016000815260200160008152602001600081525090565b6000806104b086610de8565b92509250506104bd6106fc565b80845260975460808501526104d390869061150c565b603581905560208401526104e685610e45565b604084015261054a6105006104fb878561150c565b610e45565b604085015161050f9087610ea8565b61053a61051b86610e45565b6001600160a01b038b1660009081526099602052604090205490610ea8565b610544919061150c565b90610f6a565b606084018190526040805180820190915260028152611c1b60f11b6020820152906fffffffffffffffffffffffffffffffff101561059b5760405162461bcd60e51b81526004016103f4919061135e565b5060608301516001600160a01b03871660009081526099602090815260408083209390935560988152919020805464ffffffffff421664ffffffffff199182168117909255609a80549091169091179055830151610627906105fc90610e45565b604085015161060c908790610ea8565b61053a61061c8760000151610e45565b608088015190610ea8565b609781905560808401526106448661063f838861150c565b611048565b6040518581526001600160a01b038716906000907fddf252ad1be2c89b69c2b068fc378daa952ba7f163c4a11628f55a4df523b3ef9060200160405180910390a3606080840151608080860151602080880151604080518c81529283018990528201879052948101939093529082015260a08101919091526001600160a01b038716907f926683a213f5704409a772ad857ee2929a5b82b1f28900f733ebb3035ebba57c9060c00160405180910390a2505050505050565b600061070960975461108c565b905090565b60405162461bcd60e51b81526020600482015260166024820152751514905394d1915497d393d517d4d5541413d495115160521b60448201526000906064016103f4565b60405162461bcd60e51b815260206004820152601760248201527f414c4c4f57414e43455f4e4f545f535550504f5254454400000000000000000060448201526000906064016103f4565b60006107b1826001600160a01b0316610daa565b915060006107be836110cf565b6001600160a01b0384166000908152609960205260408120549192508290036107eb575060009392505050565b6001600160a01b03841660009081526098602052604081205461081690839064ffffffffff166110e7565b90506108228382610ea8565b95945050505050565b6000806000806000609754905061084160355490565b61084a8261108c565b609a54919790965091945064ffffffffff1692509050565b60006098600061087a846001600160a01b0316610daa565b6001600160a01b0316815260208101919091526040016000205464ffffffffff1692915050565b606060378054610331906114bc565b609a54600160281b90046001600160a01b03166001600160a01b0316336001600160a01b031614604051806040016040528060028152602001611c1960f11b815250906109105760405162461bcd60e51b81526004016103f4919061135e565b50610923826001600160a01b0316610daa565b915060008061093184610de8565b925092505060006109406106fc565b6001600160a01b03861660009081526099602052604081205491925090819086841161097557600060978190556035556109f1565b61097f878561151f565b60358190559150600061099d61099486610e45565b60975490610ea8565b905060006109b46109ad8a610e45565b8490610ea8565b90508181106109d05760006035819055609781905594506109ee565b6109e66109dc85610e45565b610544838561151f565b609781905594505b50505b858703610a2e576001600160a01b038816600090815260996020908152604080832083905560989091529020805464ffffffffff19169055610a5c565b6001600160a01b0388166000908152609860205260409020805464ffffffffff19164264ffffffffff161790555b609a805464ffffffffff19164264ffffffffff1617905586851115610afa576000610a87888761151f565b9050610a938982611048565b6040805182815260208101899052908101879052606081018390526080810185905260a081018490526001600160a01b038a16907f926683a213f5704409a772ad857ee2929a5b82b1f28900f733ebb3035ebba57c9060c00160405180910390a250610b6e565b6000610b06868961151f565b9050610b1289826110f4565b604080518281526020810189905290810187905260608101859052608081018490526001600160a01b038a16907f44bd20a79e993bdcc7cbedf54a3b4d19fb78490124b6b90d04fe3242eea579e89060a00160405180910390a2505b6040518781526000906001600160a01b038a16907fddf252ad1be2c89b69c2b068fc378daa952ba7f163c4a11628f55a4df523b3ef9060200160405180910390a35050505050505050565b600054610100900460ff1615808015610bd95750600054600160ff909116105b80610bf35750303b158015610bf3575060005460ff166001145b610c565760405162461bcd60e51b815260206004820152602e60248201527f496e697469616c697a61626c653a20636f6e747261637420697320616c72656160448201526d191e481a5b9a5d1a585b1a5e995960921b60648201526084016103f4565b6000805460ff191660011790558015610c79576000805461ff0019166101001790555b610cc76040518060400160405280600f81526020016e14dd18589b19481119589d08119253608a1b815250604051806040016040528060058152602001641cd911925360da1b815250611118565b609a805465010000000000600160c81b031916600160281b6001600160a01b038516021790558015610d33576000805461ff0019169055604051600181527f7f26b83ff96e1f2b6a682f133852f6798a09c465da95921460cefb38474024989060200160405180910390a15b5050565b6000610d53610d4e836001600160a01b0316610daa565b6110cf565b92915050565b600060996000610d71846001600160a01b0316610daa565b6001600160a01b0316815260208101919091526040016000205492915050565b6097546000908190610da28161108c565b939092509050565b6000806000610db884611149565b9150915081610dc957509192915050565b600080610dd583611186565b9150915081610822575093949350505050565b600080600080610df7856110cf565b905080600003610e1257600080600093509350935050610e3e565b600081610e1e8761079d565b610e28919061151f565b905081610e35828261150c565b90955093509150505b9193909250565b600080610e56633b9aca0084611532565b905082610e67633b9aca0083611549565b1460405180604001604052806002815260200161373560f01b81525090610ea15760405162461bcd60e51b81526004016103f4919061135e565b5092915050565b6000821580610eb5575081155b15610ec257506000610d53565b81610eda60026b033b2e3c9fd0803ce8000000611549565b610ee69060001961151f565b610ef09190611549565b83111560405180604001604052806002815260200161373560f01b81525090610f2c5760405162461bcd60e51b81526004016103f4919061135e565b506b033b2e3c9fd0803ce8000000610f45600282611549565b610f4f8486611532565b610f59919061150c565b610f639190611549565b9392505050565b604080518082019091526002815261373760f01b602082015260009082610fa45760405162461bcd60e51b81526004016103f4919061135e565b506000610fb2600284611549565b90506b033b2e3c9fd0803ce8000000610fcd8260001961151f565b610fd79190611549565b84111560405180604001604052806002815260200161373560f01b815250906110135760405162461bcd60e51b81526004016103f4919061135e565b50828161102c6b033b2e3c9fd0803ce800000087611532565b611036919061150c565b6110409190611549565b949350505050565b6001600160a01b03821660009081526033602052604090205461106c90829061150c565b6001600160a01b0390921660009081526033602052604090209190915550565b60008061109860355490565b9050806000036110ab5750600092915050565b609a546000906110c390859064ffffffffff166110e7565b90506110408282610ea8565b600060336000610d71846001600160a01b0316610daa565b6000610f638383426111f0565b6001600160a01b03821660009081526033602052604090205461106c90829061151f565b600054610100900460ff1661113f5760405162461bcd60e51b81526004016103f49061156b565b610d338282611319565b60008073ffffffffffffffffffffffff0000000000000000831660ff60981b8103611180576001925067ffffffffffffffff841691505b50915091565b600080826000526016600a602060006002607f60991b015afa9150600051806001600160a01b031691508060a01c61ffff16905061040a81146111cc5760009250600091505b508115806111db57503d601614155b156111eb57506000928392509050565b915091565b60008061120464ffffffffff85168461151f565b905080600003611223576b033b2e3c9fd0803ce8000000915050610f63565b600061123060018361151f565b905060006002831161124357600061124e565b61124e60028461151f565b905060006112606301e1338089611549565b9050600061126e8280610ea8565b9050600061127c8284610ea8565b9050600060028361128d888a611532565b6112979190611532565b6112a19190611549565b90506000600683876112b38a8c611532565b6112bd9190611532565b6112c79190611532565b6112d19190611549565b905080826112df8a88611532565b6112f5906b033b2e3c9fd0803ce800000061150c565b6112ff919061150c565b611309919061150c565b9c9b505050505050505050505050565b600054610100900460ff166113405760405162461bcd60e51b81526004016103f49061156b565b603661134c838261161a565b506037611359828261161a565b505050565b600060208083528351808285015260005b8181101561138b5785810183015185820160400152820161136f565b506000604082860101526040601f19601f8301168501019250505092915050565b6001600160a01b03811681146113c157600080fd5b50565b600080604083850312156113d757600080fd5b82356113e2816113ac565b946020939093013593505050565b60008060006060848603121561140557600080fd5b8335611410816113ac565b95602085013595506040909401359392505050565b60008060006060848603121561143a57600080fd5b8335611445816113ac565b92506020840135611455816113ac565b929592945050506040919091013590565b60006020828403121561147857600080fd5b8135610f63816113ac565b6000806040838503121561149657600080fd5b82356114a1816113ac565b915060208301356114b1816113ac565b809150509250929050565b600181811c908216806114d057607f821691505b6020821081036114f057634e487b7160e01b600052602260045260246000fd5b50919050565b634e487b7160e01b600052601160045260246000fd5b80820180821115610d5357610d536114f6565b81810381811115610d5357610d536114f6565b8082028115828204841417610d5357610d536114f6565b60008261156657634e487b7160e01b600052601260045260246000fd5b500490565b6020808252602b908201527f496e697469616c697a61626c653a20636f6e7472616374206973206e6f74206960408201526a6e697469616c697a696e6760a81b606082015260800190565b634e487b7160e01b600052604160045260246000fd5b601f82111561135957600081815260208120601f850160051c810160208610156115f35750805b601f850160051c820191505b81811015611612578281556001016115ff565b505050505050565b815167ffffffffffffffff811115611634576116346115b6565b6116488161164284546114bc565b846115cc565b602080601f83116001811461167d57600084156116655750858301515b600019600386901b1c1916600185901b178555611612565b600085815260208120601f198616915b828110156116ac5788860151825594840194600190910190840161168d565b50858210156116ca5787850151600019600388901b60f8161c191681555b5050505050600190811b0190555056fea264697066735822122003448cb2ae98d56a0ff7604da81bb9f874e9fde68339a4ff5028db9a84ee68b664736f6c63430008110033",
  "linkReferences": {},
  "deployedLinkReferences": {}
}