{
  "_format": "hh-sol-artifact-1",
  "contractName": "StakingPool",
  "sourceName": "protocol/contracts/protocol/stakingpool/StakingPool.sol",
  "abi": [
    {
      "inputs": [],
      "stateMutability": "nonpayable",
      "type": "constructor"
    },
    {
      "anonymous": false,
      "inputs": [
        {
          "indexed": true,
          "internalType": "address",
          "name": "user",
          "type": "address"
        },
        {
          "indexed": true,
          "internalType": "uint64",
          "name": "actorId",
          "type": "uint64"
        },
        {
          "indexed": false,
          "internalType": "uint256",
          "name": "amount",
          "type": "uint256"
        },
        {
          "indexed": false,
          "internalType": "uint256",
          "name": "rateMode",
          "type": "uint256"
        },
        {
          "indexed": false,
          "internalType": "uint256",
          "name": "borrowRate",
          "type": "uint256"
        }
      ],
      "name": "Borrow",
      "type": "event"
    },
    {
      "anonymous": false,
      "inputs": [
        {
          "indexed": true,
          "internalType": "address",
          "name": "user",
          "type": "address"
        },
        {
          "indexed": true,
          "internalType": "address",
          "name": "lender",
          "type": "address"
        },
        {
          "indexed": false,
          "internalType": "address",
          "name": "onBehalfOf",
          "type": "address"
        },
        {
          "indexed": false,
          "internalType": "uint256",
          "name": "amount",
          "type": "uint256"
        },
        {
          "indexed": false,
          "internalType": "uint256",
          "name": "rateMode",
          "type": "uint256"
        },
        {
          "indexed": false,
          "internalType": "uint256",
          "name": "borrowRate",
          "type": "uint256"
        }
      ],
      "name": "BorrowFromLendingPool",
      "type": "event"
    },
    {
      "anonymous": false,
      "inputs": [
        {
          "indexed": true,
          "internalType": "uint64",
          "name": "actorId",
          "type": "uint64"
        }
      ],
      "name": "ConfirmWorkerAddressChanged",
      "type": "event"
    },
    {
      "anonymous": false,
      "inputs": [
        {
          "indexed": false,
          "internalType": "uint8",
          "name": "version",
          "type": "uint8"
        }
      ],
      "name": "Initialized",
      "type": "event"
    },
    {
      "anonymous": false,
      "inputs": [
        {
          "indexed": true,
          "internalType": "address",
          "name": "liquidator",
          "type": "address"
        },
        {
          "indexed": true,
          "internalType": "uint64",
          "name": "actorId",
          "type": "uint64"
        },
        {
          "indexed": false,
          "internalType": "uint256",
          "name": "amount",
          "type": "uint256"
        }
      ],
      "name": "Liquidation",
      "type": "event"
    },
    {
      "anonymous": false,
      "inputs": [
        {
          "indexed": false,
          "internalType": "uint256",
          "name": "oldValue",
          "type": "uint256"
        },
        {
          "indexed": false,
          "internalType": "uint256",
          "name": "newValue",
          "type": "uint256"
        }
      ],
      "name": "LiquidityReserveRatioUpdated",
      "type": "event"
    },
    {
      "anonymous": false,
      "inputs": [
        {
          "indexed": true,
          "internalType": "uint64",
          "name": "actorId",
          "type": "uint64"
        }
      ],
      "name": "NodeUndelegateBeneficiary",
      "type": "event"
    },
    {
      "anonymous": false,
      "inputs": [
        {
          "indexed": true,
          "internalType": "uint64",
          "name": "actorId",
          "type": "uint64"
        },
        {
          "indexed": false,
          "internalType": "address",
          "name": "newOwner",
          "type": "address"
        }
      ],
      "name": "NodeUndelegateOwner",
      "type": "event"
    },
    {
      "anonymous": false,
      "inputs": [
        {
          "indexed": true,
          "internalType": "uint64",
          "name": "actorId",
          "type": "uint64"
        },
        {
          "indexed": false,
          "internalType": "uint256",
          "name": "role",
          "type": "uint256"
        }
      ],
      "name": "NodeUpgrade",
      "type": "event"
    },
    {
      "anonymous": false,
      "inputs": [
        {
          "indexed": true,
          "internalType": "uint64",
          "name": "actorId",
          "type": "uint64"
        },
        {
          "indexed": false,
          "internalType": "address",
          "name": "operator",
          "type": "address"
        }
      ],
      "name": "OperatorChanged",
      "type": "event"
    },
    {
      "anonymous": false,
      "inputs": [],
      "name": "Paused",
      "type": "event"
    },
    {
      "anonymous": false,
      "inputs": [
        {
          "indexed": true,
          "internalType": "address",
          "name": "user",
          "type": "address"
        },
        {
          "indexed": true,
          "internalType": "uint64",
          "name": "actorId",
          "type": "uint64"
        },
        {
          "indexed": false,
          "internalType": "uint256",
          "name": "amount",
          "type": "uint256"
        },
        {
          "indexed": false,
          "internalType": "uint256",
          "name": "rateMode",
          "type": "uint256"
        }
      ],
      "name": "Repay",
      "type": "event"
    },
    {
      "anonymous": false,
      "inputs": [
        {
          "indexed": true,
          "internalType": "address",
          "name": "user",
          "type": "address"
        },
        {
          "indexed": true,
          "internalType": "address",
          "name": "addr",
          "type": "address"
        },
        {
          "indexed": false,
          "internalType": "uint256",
          "name": "amount",
          "type": "uint256"
        },
        {
          "indexed": false,
          "internalType": "uint256",
          "name": "rateMode",
          "type": "uint256"
        }
      ],
      "name": "RepayFromLendingPool",
      "type": "event"
    },
    {
      "anonymous": false,
      "inputs": [
        {
          "indexed": false,
          "internalType": "uint256",
          "name": "availableLiquidity",
          "type": "uint256"
        },
        {
          "indexed": false,
          "internalType": "uint256",
          "name": "liquidityRate",
          "type": "uint256"
        },
        {
          "indexed": false,
          "internalType": "uint256",
          "name": "stableBorrowRate",
          "type": "uint256"
        },
        {
          "indexed": false,
          "internalType": "uint256",
          "name": "variableBorrowRate",
          "type": "uint256"
        },
        {
          "indexed": false,
          "internalType": "uint256",
          "name": "liquidityIndex",
          "type": "uint256"
        },
        {
          "indexed": false,
          "internalType": "uint256",
          "name": "variableBorrowIndex",
          "type": "uint256"
        }
      ],
      "name": "ReserveDataUpdated",
      "type": "event"
    },
    {
      "anonymous": false,
      "inputs": [
        {
          "indexed": true,
          "internalType": "address",
          "name": "user",
          "type": "address"
        },
        {
          "indexed": true,
          "internalType": "address",
          "name": "onBehalfOf",
          "type": "address"
        },
        {
          "indexed": false,
          "internalType": "uint256",
          "name": "amount",
          "type": "uint256"
        },
        {
          "indexed": false,
          "internalType": "uint32",
          "name": "referral",
          "type": "uint32"
        }
      ],
      "name": "Stake",
      "type": "event"
    },
    {
      "anonymous": false,
      "inputs": [],
      "name": "Unpaused",
      "type": "event"
    },
    {
      "anonymous": false,
      "inputs": [
        {
          "indexed": true,
          "internalType": "address",
          "name": "user",
          "type": "address"
        },
        {
          "indexed": true,
          "internalType": "address",
          "name": "onBehalfOf",
          "type": "address"
        },
        {
          "indexed": false,
          "internalType": "uint256",
          "name": "amount",
          "type": "uint256"
        }
      ],
      "name": "Unstake",
      "type": "event"
    },
    {
      "anonymous": false,
      "inputs": [
        {
          "indexed": true,
          "internalType": "address",
          "name": "user",
          "type": "address"
        },
        {
          "indexed": true,
          "internalType": "uint64",
          "name": "actorId",
          "type": "uint64"
        },
        {
          "indexed": true,
          "internalType": "address",
          "name": "to",
          "type": "address"
        },
        {
          "indexed": false,
          "internalType": "uint256",
          "name": "amount",
          "type": "uint256"
        }
      ],
      "name": "Withdraw",
      "type": "event"
    },
    {
      "anonymous": false,
      "inputs": [
        {
          "indexed": true,
          "internalType": "uint64",
          "name": "actorId",
          "type": "uint64"
        },
        {
          "indexed": false,
          "internalType": "uint64",
          "name": "newWorker",
          "type": "uint64"
        },
        {
          "indexed": false,
          "internalType": "uint64[]",
          "name": "newControlAddresses",
          "type": "uint64[]"
        }
      ],
      "name": "WorkerAddressChanged",
      "type": "event"
    },
    {
      "inputs": [],
      "name": "MAX_STABLE_RATE_BORROW_SIZE_PERCENT",
      "outputs": [
        {
          "internalType": "uint256",
          "name": "",
          "type": "uint256"
        }
      ],
      "stateMutability": "view",
      "type": "function"
    },
    {
      "inputs": [],
      "name": "MIN_FIL_BORROW_AMOUNT",
      "outputs": [
        {
          "internalType": "uint256",
          "name": "",
          "type": "uint256"
        }
      ],
      "stateMutability": "view",
      "type": "function"
    },
    {
      "inputs": [],
      "name": "MIN_STAKE_FIL",
      "outputs": [
        {
          "internalType": "uint256",
          "name": "",
          "type": "uint256"
        }
      ],
      "stateMutability": "view",
      "type": "function"
    },
    {
      "inputs": [
        {
          "internalType": "uint64",
          "name": "actorId",
          "type": "uint64"
        },
        {
          "internalType": "address",
          "name": "operator",
          "type": "address"
        }
      ],
      "name": "approveOperator",
      "outputs": [],
      "stateMutability": "nonpayable",
      "type": "function"
    },
    {
      "inputs": [
        {
          "internalType": "uint64",
          "name": "actorId",
          "type": "uint64"
        }
      ],
      "name": "beneficiaryToOwnerUpgrade",
      "outputs": [],
      "stateMutability": "nonpayable",
      "type": "function"
    },
    {
      "inputs": [
        {
          "internalType": "uint64",
          "name": "actorId",
          "type": "uint64"
        },
        {
          "internalType": "uint256",
          "name": "amount",
          "type": "uint256"
        },
        {
          "internalType": "uint256",
          "name": "rateMode",
          "type": "uint256"
        }
      ],
      "name": "borrow",
      "outputs": [],
      "stateMutability": "nonpayable",
      "type": "function"
    },
    {
      "inputs": [
        {
          "internalType": "address",
          "name": "borrower",
          "type": "address"
        },
        {
          "internalType": "address",
          "name": "onBehalfOf",
          "type": "address"
        },
        {
          "internalType": "uint256",
          "name": "amount",
          "type": "uint256"
        },
        {
          "internalType": "uint256",
          "name": "rateMode",
          "type": "uint256"
        }
      ],
      "name": "borrowFromLendingPool",
      "outputs": [],
      "stateMutability": "nonpayable",
      "type": "function"
    },
    {
      "inputs": [
        {
          "internalType": "uint64",
          "name": "actorId",
          "type": "uint64"
        },
        {
          "internalType": "uint64",
          "name": "newWorker",
          "type": "uint64"
        },
        {
          "internalType": "uint64[]",
          "name": "newControlAddresses",
          "type": "uint64[]"
        }
      ],
      "name": "changeWorkerAddress",
      "outputs": [],
      "stateMutability": "nonpayable",
      "type": "function"
    },
    {
      "inputs": [
        {
          "internalType": "uint64",
          "name": "actorId",
          "type": "uint64"
        }
      ],
      "name": "confirmChangeWorkerAddress",
      "outputs": [],
      "stateMutability": "nonpayable",
      "type": "function"
    },
    {
      "inputs": [],
      "name": "getAddressesProvider",
      "outputs": [
        {
          "internalType": "contract IStakingPoolAddressesProvider",
          "name": "",
          "type": "address"
        }
      ],
      "stateMutability": "view",
      "type": "function"
    },
    {
      "inputs": [
        {
          "internalType": "uint64",
          "name": "actorId",
          "type": "uint64"
        }
      ],
      "name": "getNodeData",
      "outputs": [
        {
          "components": [
            {
              "components": [
                {
                  "internalType": "uint256",
                  "name": "data",
                  "type": "uint256"
                }
              ],
              "internalType": "struct DataTypes.NodeConfigurationMap",
              "name": "configuration",
              "type": "tuple"
            },
            {
              "internalType": "address",
              "name": "owner",
              "type": "address"
            },
            {
              "internalType": "address",
              "name": "operator",
              "type": "address"
            },
            {
              "internalType": "uint256",
              "name": "safetyBuffer",
              "type": "uint256"
            },
            {
              "internalType": "enum DataTypes.NodeRole",
              "name": "role",
              "type": "uint8"
            }
          ],
          "internalType": "struct DataTypes.NodeData",
          "name": "",
          "type": "tuple"
        },
        {
          "internalType": "uint256",
          "name": "",
          "type": "uint256"
        },
        {
          "internalType": "uint256",
          "name": "",
          "type": "uint256"
        },
        {
          "internalType": "uint256",
          "name": "",
          "type": "uint256"
        },
        {
          "internalType": "uint64",
          "name": "",
          "type": "uint64"
        }
      ],
      "stateMutability": "view",
      "type": "function"
    },
    {
      "inputs": [],
      "name": "getReserveData",
      "outputs": [
        {
          "components": [
            {
              "components": [
                {
                  "internalType": "uint256",
                  "name": "data",
                  "type": "uint256"
                }
              ],
              "internalType": "struct DataTypes.PoolConfigurationMap",
              "name": "configuration",
              "type": "tuple"
            },
            {
              "internalType": "uint128",
              "name": "liquidityIndex",
              "type": "uint128"
            },
            {
              "internalType": "uint128",
              "name": "variableBorrowIndex",
              "type": "uint128"
            },
            {
              "internalType": "uint128",
              "name": "currentLiquidityRate",
              "type": "uint128"
            },
            {
              "internalType": "uint128",
              "name": "currentVariableBorrowRate",
              "type": "uint128"
            },
            {
              "internalType": "uint128",
              "name": "currentStableBorrowRate",
              "type": "uint128"
            },
            {
              "internalType": "uint40",
              "name": "lastUpdateTimestamp",
              "type": "uint40"
            },
            {
              "internalType": "address",
              "name": "stFILAddress",
              "type": "address"
            },
            {
              "internalType": "address",
              "name": "stableDebtTokenAddress",
              "type": "address"
            },
            {
              "internalType": "address",
              "name": "variableDebtTokenAddress",
              "type": "address"
            },
            {
              "internalType": "address",
              "name": "interestRateStrategyAddress",
              "type": "address"
            }
          ],
          "internalType": "struct DataTypes.PoolReserveData",
          "name": "",
          "type": "tuple"
        }
      ],
      "stateMutability": "view",
      "type": "function"
    },
    {
      "inputs": [],
      "name": "getReserveNormalizedIncome",
      "outputs": [
        {
          "internalType": "uint256",
          "name": "",
          "type": "uint256"
        }
      ],
      "stateMutability": "view",
      "type": "function"
    },
    {
      "inputs": [],
      "name": "getReserveNormalizedVariableDebt",
      "outputs": [
        {
          "internalType": "uint256",
          "name": "",
          "type": "uint256"
        }
      ],
      "stateMutability": "view",
      "type": "function"
    },
    {
      "inputs": [],
      "name": "initStakingPool",
      "outputs": [],
      "stateMutability": "nonpayable",
      "type": "function"
    },
    {
      "inputs": [
        {
          "internalType": "contract IStakingPoolAddressesProvider",
          "name": "provider",
          "type": "address"
        }
      ],
      "name": "initialize",
      "outputs": [],
      "stateMutability": "nonpayable",
      "type": "function"
    },
    {
      "inputs": [
        {
          "internalType": "uint64",
          "name": "actorId",
          "type": "uint64"
        }
      ],
      "name": "liquidation",
      "outputs": [],
      "stateMutability": "nonpayable",
      "type": "function"
    },
    {
      "inputs": [],
      "name": "liquidityReserveRatio",
      "outputs": [
        {
          "internalType": "uint256",
          "name": "",
          "type": "uint256"
        }
      ],
      "stateMutability": "view",
      "type": "function"
    },
    {
      "inputs": [],
      "name": "maxBorrowableLiquidityAmount",
      "outputs": [
        {
          "internalType": "uint256",
          "name": "",
          "type": "uint256"
        }
      ],
      "stateMutability": "view",
      "type": "function"
    },
    {
      "inputs": [
        {
          "internalType": "uint64",
          "name": "actorId",
          "type": "uint64"
        },
        {
          "internalType": "address",
          "name": "owner",
          "type": "address"
        }
      ],
      "name": "migratorToLendingPool",
      "outputs": [
        {
          "internalType": "uint64",
          "name": "",
          "type": "uint64"
        },
        {
          "internalType": "uint256",
          "name": "",
          "type": "uint256"
        },
        {
          "internalType": "uint64",
          "name": "",
          "type": "uint64"
        },
        {
          "internalType": "uint256",
          "name": "",
          "type": "uint256"
        }
      ],
      "stateMutability": "nonpayable",
      "type": "function"
    },
    {
      "inputs": [],
      "name": "paused",
      "outputs": [
        {
          "internalType": "bool",
          "name": "",
          "type": "bool"
        }
      ],
      "stateMutability": "view",
      "type": "function"
    },
    {
      "inputs": [
        {
          "internalType": "uint64",
          "name": "actorId",
          "type": "uint64"
        },
        {
          "internalType": "uint256",
          "name": "amount",
          "type": "uint256"
        },
        {
          "internalType": "uint256",
          "name": "rateMode",
          "type": "uint256"
        }
      ],
      "name": "repay",
      "outputs": [
        {
          "internalType": "uint256",
          "name": "",
          "type": "uint256"
        }
      ],
      "stateMutability": "nonpayable",
      "type": "function"
    },
    {
      "inputs": [
        {
          "internalType": "address",
          "name": "borrower",
          "type": "address"
        },
        {
          "internalType": "uint256",
          "name": "rateMode",
          "type": "uint256"
        }
      ],
      "name": "repayFromLendingPool",
      "outputs": [],
      "stateMutability": "payable",
      "type": "function"
    },
    {
      "inputs": [
        {
          "internalType": "uint256",
          "name": "newLiquidityReserveRatio",
          "type": "uint256"
        }
      ],
      "name": "setLiquidityReserveRatio",
      "outputs": [],
      "stateMutability": "nonpayable",
      "type": "function"
    },
    {
      "inputs": [
        {
          "internalType": "uint64",
          "name": "actorId",
          "type": "uint64"
        },
        {
          "internalType": "uint256",
          "name": "configuration",
          "type": "uint256"
        }
      ],
      "name": "setNodeConfiguration",
      "outputs": [],
      "stateMutability": "nonpayable",
      "type": "function"
    },
    {
      "inputs": [
        {
          "internalType": "bool",
          "name": "val",
          "type": "bool"
        }
      ],
      "name": "setPause",
      "outputs": [],
      "stateMutability": "nonpayable",
      "type": "function"
    },
    {
      "inputs": [
        {
          "internalType": "uint256",
          "name": "configuration",
          "type": "uint256"
        }
      ],
      "name": "setPoolConfiguration",
      "outputs": [],
      "stateMutability": "nonpayable",
      "type": "function"
    },
    {
      "inputs": [
        {
          "internalType": "address",
          "name": "onBehalfOf",
          "type": "address"
        },
        {
          "internalType": "uint32",
          "name": "referralCode",
          "type": "uint32"
        }
      ],
      "name": "stake",
      "outputs": [],
      "stateMutability": "payable",
      "type": "function"
    },
    {
      "inputs": [
        {
          "internalType": "uint64",
          "name": "actorId",
          "type": "uint64"
        }
      ],
      "name": "undelegateBeneficiary",
      "outputs": [],
      "stateMutability": "nonpayable",
      "type": "function"
    },
    {
      "inputs": [
        {
          "internalType": "uint64",
          "name": "actorId",
          "type": "uint64"
        }
      ],
      "name": "undelegateOwner",
      "outputs": [],
      "stateMutability": "nonpayable",
      "type": "function"
    },
    {
      "inputs": [
        {
          "internalType": "uint256",
          "name": "amount",
          "type": "uint256"
        },
        {
          "internalType": "address",
          "name": "to",
          "type": "address"
        }
      ],
      "name": "unstake",
      "outputs": [
        {
          "internalType": "uint256",
          "name": "",
          "type": "uint256"
        }
      ],
      "stateMutability": "nonpayable",
      "type": "function"
    },
    {
      "inputs": [
        {
          "internalType": "uint64",
          "name": "actorId",
          "type": "uint64"
        },
        {
          "internalType": "uint256",
          "name": "amount",
          "type": "uint256"
        }
      ],
      "name": "withdraw",
      "outputs": [
        {
          "internalType": "uint256",
          "name": "",
          "type": "uint256"
        }
      ],
      "stateMutability": "nonpayable",
      "type": "function"
    },
    {
      "stateMutability": "payable",
      "type": "receive"
    }
  ],
  "bytecode": "0x60806040523480156200001157600080fd5b506200001c62000022565b620000e4565b600054610100900460ff16156200008f5760405162461bcd60e51b815260206004820152602760248201527f496e697469616c697a61626c653a20636f6e747261637420697320696e697469604482015266616c697a696e6760c81b606482015260840160405180910390fd5b60005460ff9081161015620000e2576000805460ff191660ff9081179091556040519081527f7f26b83ff96e1f2b6a682f133852f6798a09c465da95921460cefb38474024989060200160405180910390a15b565b615f0880620000f46000396000f3fe6080604052600436106101e75760003560e01c806396c2614c11610102578063c7e55f3e11610095578063ea9f348a11610064578063ea9f348a146106c3578063f5ad38c3146106e3578063fe65acfe14610703578063feb7bb571461073a57600080fd5b8063c7e55f3e1461065a578063caeed2461461066d578063de39f08b1461068d578063e82fec2f146106ad57600080fd5b8063b77251d5116100d1578063b77251d5146105e5578063bedb86fb14610605578063c310866214610625578063c4d66de81461063a57600080fd5b806396c2614c14610581578063a334382714610596578063ac69d2c3146105b6578063b0a26c37146105c957600080fd5b8063531719cc1161017a5780638243773b116101495780638243773b146105015780638381e1821461052157806389e88108146105415780638fc1b38d1461056157600080fd5b8063531719cc1461048857806359c19635146104a45780635c975abb146104c457806368db51f6146104ec57600080fd5b806334e06d24116101b657806334e06d24146103d357806343387983146104285780634a67d5ee146104485780634d7938541461046857600080fd5b806305bef05e1461023a5780630c3f883f146103635780632537bdcb146103835780632eee18ae146103a257600080fd5b3661023557600a5460408051808201909152600381526218981b60e91b60208201529060ff166102335760405162461bcd60e51b815260040161022a91906152e9565b60405180910390fd5b005b600080fd5b34801561024657600080fd5b5061034d604080516101808101825260006101608201818152825260208201819052918101829052606081018290526080810182905260a0810182905260c0810182905260e0810182905261010081018290526101208101829052610140810191909152506040805161018081018252600154610160820190815281526002546001600160801b038082166020840152600160801b9182900481169383019390935260035480841660608401528190048316608083015260045492831660a083015290910464ffffffffff1660c08201526005546001600160a01b0390811660e0830152600654811661010083015260075481166101208301526008541661014082015290565b60405161035a91906152fc565b60405180910390f35b34801561036f57600080fd5b5061023361037e36600461540f565b61074f565b34801561038f57600080fd5b50600c545b60405190815260200161035a565b3480156103ae57600080fd5b506103c26103bd36600461540f565b61080e565b60405161035a959493929190615442565b3480156103df57600080fd5b506103f36103ee3660046154e3565b61092a565b60405161035a94939291906001600160401b039485168152602081019390935292166040820152606081019190915260800190565b34801561043457600080fd5b5061039461044336600461551c565b6109f0565b34801561045457600080fd5b50610394610463366004615548565b610e03565b34801561047457600080fd5b5061023361048336600461540f565b611227565b34801561049457600080fd5b50610394678ac7230489e8000081565b3480156104b057600080fd5b506102336104bf36600461557d565b611568565b3480156104d057600080fd5b50600a54610100900460ff16604051901515815260200161035a565b3480156104f857600080fd5b50610394611898565b34801561050d57600080fd5b5061023361051c3660046155c3565b611941565b34801561052d57600080fd5b5061039461053c3660046155dc565b61194e565b34801561054d57600080fd5b5061023361055c36600461540f565b611ba0565b34801561056d57600080fd5b5061023361057c36600461540f565b611fd7565b34801561058d57600080fd5b506103946120b1565b3480156105a257600080fd5b506102336105b13660046155c3565b6120c2565b6102336105c4366004615601565b612110565b3480156105d557600080fd5b50610394670de0b6b3a764000081565b3480156105f157600080fd5b506102336106003660046154e3565b6122c5565b34801561061157600080fd5b5061023361062036600461562d565b612348565b34801561063157600080fd5b506102336123cc565b34801561064657600080fd5b5061023361065536600461564a565b612674565b610233610668366004615667565b6127f2565b34801561067957600080fd5b5061023361068836600461540f565b612920565b34801561069957600080fd5b506102336106a836600461551c565b612b65565b3480156106b957600080fd5b506103946107d081565b3480156106cf57600080fd5b506102336106de366004615548565b612b89565b3480156106ef57600080fd5b506102336106fe36600461572e565b61307f565b34801561070f57600080fd5b506000546201000090046001600160a01b03166040516001600160a01b03909116815260200161035a565b34801561074657600080fd5b50610394613141565b806107598161314d565b610762826131b6565b61076b82613204565b604051630c3f883f60e01b81526001600160401b038316600482015273__$f7b76f5921548004c2ae36bcfeb2e6a357$__90630c3f883f9060240160006040518083038186803b1580156107be57600080fd5b505af41580156107d2573d6000803e3d6000fd5b50506040516001600160401b03851692507f735096551bb3c649d5e910add8f4ef86a575f15b1b12d30db301f9759a79a76c9150600090a25050565b6040805160c081018252600060a08201818152825260208201819052918101829052606081018290526080810182905290808080808061085088826001613270565b6001600160401b038a166000908152600960205260408120929450909250610879908a90613435565b6001600160401b03808b166000908152600b602090815260409182902054825160c081018452865460a08201908152815260018701546001600160a01b039081169382019390935260028088015490931693810193909352600386015460608401526004860154889488949216928791608084019160ff909116908111156109035761090361542c565b60028111156109145761091461542c565b9052509d939c50919a5098509650945050505050565b6000806000806109386134f5565b61094186613204565b6001600160401b03861660009081526009602090815260409182902060010154825180840190935260028352610e4d60f21b918301919091526001600160a01b038781169116146109a55760405162461bcd60e51b815260040161022a91906152e9565b5060006109b18761363c565b6001600160401b038089166000908152600b6020526040812054929350911680156109e2576109df8161363c565b91505b979891979650945092505050565b60006109fa6136ef565b82610a048161314d565b610a0d84613733565b60408051808201909152600381526232303160e81b602082015283610a455760405162461bcd60e51b815260040161022a91906152e9565b506001600160401b0384166000908152600960209081526040808320815160c081018352815460a08201908152815260018201546001600160a01b03908116948201949094526002808301549094169281019290925260038101546060830152600481015491929091608084019160ff90911690811115610ac857610ac861542c565b6002811115610ad957610ad961542c565b9052506001600160401b038087166000908152600b6020526040812054929350911690610b068783613435565b9050600081116040518060400160405280600381526020016203136360ec1b81525090610b465760405162461bcd60e51b815260040161022a91906152e9565b5080861115610b53578095505b6060830151610b62878361581c565b101560405180604001604052806003815260200162189a9b60e91b81525090610b9e5760405162461bcd60e51b815260040161022a91906152e9565b506000610bbf610bb0898560016137b7565b610bba898561581c565b6137e0565b9050610bd3610bce898561380d565b613899565b8111156040518060400160405280600381526020016231353960e81b81525090610c105760405162461bcd60e51b815260040161022a91906152e9565b50600284608001516002811115610c2957610c2961542c565b148015610c365750600081115b15610d3b57604051630d75769960e01b81526001600160401b038916600482015260009073__$f7b76f5921548004c2ae36bcfeb2e6a357$__90630d75769990602401600060405180830381865af4158015610c96573d6000803e3d6000fd5b505050506040513d6000823e601f3d908101601f19168201604052610cbe9190810190615a23565b600001516020015190506000610cd782602001516138b1565b8251610ce2906138b1565b610cec919061581c565b90506b06765c793fa10079d000000081101560405180604001604052806002815260200161037360f41b81525090610d375760405162461bcd60e51b815260040161022a91906152e9565b5050505b6000610d478989613910565b9050600081116040518060400160405280600381526020016231353360e81b81525090610d875760405162461bcd60e51b815260040161022a91906152e9565b506000610d938a6139b7565b9050610d9f8183613b93565b806001600160a01b03168a6001600160401b0316336001600160a01b03167f1bbe4f1964611788fb23019cf847891353c8665cf0eed9eaf048a5bb218bc68785604051610dee91815260200190565b60405180910390a45098975050505050505050565b600083610e0f8161314d565b610e1885613733565b60408051808201909152600381526232303160e81b602082015284610e505760405162461bcd60e51b815260040161022a91906152e9565b506001600160401b038581166000818152600b602052604080822054905163b6ecd87f60e01b81526004810193909352909216919073__$f586cd757e964c0add70928c007df70ea0$__9063b6ecd87f90602401602060405180830381865af4158015610ec1573d6000803e3d6000fd5b505050506040513d601f19601f82011682018060405250810190610ee59190615b64565b9050600080610ef78960006001613270565b915091506000876002811115610f0f57610f0f61542c565b9050600083118015610f3257506001816002811115610f3057610f3061542c565b145b80610f595750600082118015610f5957506002816002811115610f5757610f5761542c565b145b6040518060400160405280600381526020016231353760e81b81525090610f935760405162461bcd60e51b815260040161022a91906152e9565b5060006001826002811115610faa57610faa61542c565b14610fb55782610fb7565b835b9050808a1015610fc45750885b6000610fd18c6000613c8e565b90506000811160405180604001604052806003815260200162189a9960e91b815250906110115760405162461bcd60e51b815260040161022a91906152e9565b508181101561101e578091505b6110286001613d2b565b600183600281111561103c5761103c61542c565b036110ac57600654604051632770a7eb60e21b81526001600160a01b0388811660048301526024820185905290911690639dc29fac90604401600060405180830381600087803b15801561108f57600080fd5b505af11580156110a3573d6000803e3d6000fd5b50505050611126565b600754600254604051637a94c56560e11b81526001600160a01b039092169163f5298aca916110f3918a918791600160801b9091046001600160801b031690600401615b81565b600060405180830381600087803b15801561110d57600080fd5b505af1158015611121573d6000803e3d6000fd5b505050505b611134600147846000613df2565b6001600160401b038c1660009081526009602052604090206111588d8960016137b7565b60000361116b5760006003820155611193565b8281600301541161117d57600061118d565b82816003015461118d919061581c565b60038201555b6001600160401b038816156111c5576003808201546001600160401b038a166000908152600960205260409020909101555b6111cf8d84613910565b5060408051848152602081018d90526001600160401b038f169133917f5729ab7d64cb1d9f9897870caff89967d5e4ff71ede0a0c9760e3a25ef60d7f2910160405180910390a350909b9a5050505050505050505050565b61122f6136ef565b806112398161314d565b61124282613733565b60026001600160401b03831660009081526009602052604090206004015460ff1660028111156112745761127461542c565b1460405180604001604052806002815260200161036360f41b815250906112ae5760405162461bcd60e51b815260040161022a91906152e9565b506001600160401b038083166000908152600b60209081526040918290205482518084019093526002835261363160f01b91830191909152909116156113075760405162461bcd60e51b815260040161022a91906152e9565b5060405163d370a37d60e01b81526001600160401b038316600482015260009073__$f7b76f5921548004c2ae36bcfeb2e6a357$__9063d370a37d90602401600060405180830381865af4158015611363573d6000803e3d6000fd5b505050506040513d6000823e601f3d908101601f1916820160405261138b9190810190615bab565b905061139633614126565b6001600160401b03166113ac82600001516141a6565b6001600160401b0316146040518060400160405280600381526020016218989960e91b815250906113f05760405162461bcd60e51b815260040161022a91906152e9565b5060208181015160408051600081528084018083528151812084518051960195909520606083018452600382526231313560e81b929093019190915291920361144c5760405162461bcd60e51b815260040161022a91906152e9565b50611456816141a6565b6001600160401b03166114676141e0565b6001600160401b0316146040518060400160405280600381526020016231313560e81b815250906114ab5760405162461bcd60e51b815260040161022a91906152e9565b506001600160401b038416600090815260096020908152604080832081519283019091528054825291806114dd6141eb565b90925090506114ed83838361422a565b82518455600484018054600160ff199091168117909155840180546001600160a01b0319163317905561152088306142f5565b6001600160401b0388167ff25bf7ef96baaec74fbb78e79e549dfe46b3bb1b216e8d0feaf802542fd2f59b600160405190815260200160405180910390a25050505050505050565b6115706136ef565b6115786134f5565b60408051808201909152600381526232303160e81b6020820152826115b05760405162461bcd60e51b815260040161022a91906152e9565b506115b9611898565b8211156040518060400160405280600381526020016232303360e81b815250906115f65760405162461bcd60e51b815260040161022a91906152e9565b50806002148061162357508060011480156116235750604080516020810190915260018054918290521615155b6040518060400160405280600381526020016232303560e81b8152509061165d5760405162461bcd60e51b815260040161022a91906152e9565b506116686001613d2b565b600181600281111561167c5761167c61542c565b600281111561168d5761168d61542c565b036117535761169e476107d06143c2565b8211156040518060400160405280600381526020016219181b60e91b815250906116db5760405162461bcd60e51b815260040161022a91906152e9565b5060065460048054604051630ab714fb60e11b81526001600160a01b039093169263156e29f69261171c92899288926001600160801b039092169101615b81565b600060405180830381600087803b15801561173657600080fd5b505af115801561174a573d6000803e3d6000fd5b505050506117cd565b600754600254604051630ab714fb60e11b81526001600160a01b039092169163156e29f69161179a9188918791600160801b9091046001600160801b031690600401615b81565b600060405180830381600087803b1580156117b457600080fd5b505af11580156117c8573d6000803e3d6000fd5b505050505b6004546001600160801b03166117e7600147600086613df2565b6117f18484613b93565b6001600160a01b038516337fb2f44a87d1f3d7dca51798b076b8ea2133ad33e91cfb3c0fbd343ee4c78fca2c86868660018860028111156118345761183461542c565b60028111156118455761184561542c565b1461186257600354600160801b90046001600160801b0316611864565b865b604080516001600160a01b039095168552602085019390935291830152606082015260800160405180910390a35050505050565b600080611921600160040160009054906101000a90046001600160a01b03166001600160a01b03166318160ddd6040518163ffffffff1660e01b8152600401602060405180830381865afa1580156118f4573d6000803e3d6000fd5b505050506040513d601f19601f820116820180604052508101906119189190615c3b565b600c549061446a565b905080471161193157600061193b565b61193b814761581c565b91505090565b611949614508565b600155565b60408051808201909152600381526232303760e81b60208201526000906001600160a01b03831630036119945760405162461bcd60e51b815260040161022a91906152e9565b5060408051808201909152600381526232303160e81b6020820152836119cd5760405162461bcd60e51b815260040161022a91906152e9565b506005546040516370a0823160e01b81523360048201526000916001600160a01b0316906370a0823190602401602060405180830381865afa158015611a17573d6000803e3d6000fd5b505050506040513d601f19601f82011682018060405250810190611a3b9190615c3b565b90508360018101611a495750805b6040805180820190915260038152620c8c0d60ea1b602082015282821115611a845760405162461bcd60e51b815260040161022a91906152e9565b5060408051808201909152600381526232303360e81b602082015247821115611ac05760405162461bcd60e51b815260040161022a91906152e9565b50611acb6001613d2b565b611ad9600147600084613df2565b600554600254604051637a94c56560e11b81526001600160a01b039092169163f5298aca91611b1a91339186916001600160801b0390911690600401615b81565b600060405180830381600087803b158015611b3457600080fd5b505af1158015611b48573d6000803e3d6000fd5b50505050611b568482613b93565b6040518181526001600160a01b0385169033907f390b1276974b9463e5d66ab10df69b6f3d7b930eb066a0e66df327edd2cc811c9060200160405180910390a39150505b92915050565b80611baa8161314d565b611bdc6040518060a0016040528060008152602001600081526020016000815260200160008152602001600081525090565b6001600160401b038084166000908152600960209081526040808320600b9092528220549092169080611c1187846001613270565b91509150611c1f8784613435565b80865215611c87576000611c3d611c368385615c54565b87516137e0565b9050611c4988856145de565b8111604051806040016040528060028152602001611b1b60f11b81525090611c845760405162461bcd60e51b815260040161022a91906152e9565b50505b6000611ca7611c968385615c54565b8751611ca28b886145de565b614654565b905060008111604051806040016040528060028152602001611b1b60f11b81525090611ce65760405162461bcd60e51b815260040161022a91906152e9565b50611cf16001613d2b565b8551611d1a90611d018a87613c8e565b611d0b8b8861380d565b611d158c896145de565b614672565b60208701819052611d2b9082615c54565b6040870152600080611d3f8a826001613270565b9150915087604001518410611d7957611d608a8b838b6040015160026146ba565b88606001818151611d719190615c54565b905250611dd4565b8315611da257611d8d8a8b838760026146ba565b88606001818151611d9e9190615c54565b9052505b611dbf8a8b84878c60400151611db8919061581c565b60016146ba565b88606001818151611dd09190615c54565b9052505b602088015115611df8576020880151611df39060019047906000613df2565b611e06565b611e06600147600080613df2565b602088015115611e9b576000611e1d8b6000613c8e565b905088602001518110611e4857611e388b8a60200151613910565b50606089015160808a0152611e99565b8015611e5a57611e588b82613910565b505b611e7387828b60200151611e6e919061581c565b613910565b50808960200151611e84919061581c565b8960600151611e93919061581c565b60808a01525b505b611ea68a6000613435565b60038801556001600160401b03861615611f0057611ec5866000613435565b876003016000828254611ed89190615c54565b90915550506003808801546001600160401b0388166000908152600960205260409020909101555b6000886080015184611f12919061581c565b1115611f6f57896001600160401b0316336001600160a01b03167ff383782c92eb80a305568bf3939348dd8a7fadaf681df4c52c7dd193f781a7078a6080015186611f5d919061581c565b60405190815260200160405180910390a35b608088015115611fcb57856001600160401b0316336001600160a01b03167ff383782c92eb80a305568bf3939348dd8a7fadaf681df4c52c7dd193f781a7078a60800151604051611fc291815260200190565b60405180910390a35b50505050505050505050565b80611fe18161314d565b6001600160401b0382166000908152600960205260409020612002836131b6565b61200b83614716565b6120148361475c565b600181015461202d9084906001600160a01b03166142f5565b6002810180546001600160a01b03191690556040805160208101909152815481526120598160006147b4565b8051825560018201546040516001600160a01b0390911681526001600160401b038516907f991330d1754d70bcd996ec1564be89381e9640351405a44e7112b8b46ce2e606906020015b60405180910390a250505050565b60006120bd60016147db565b905090565b6120ca614508565b600c80549082905560408051828152602081018490527fa29480276348466a56a300be295a1a2c3bc8d0040668f5da357f9b62f6127d8a91015b60405180910390a15050565b6121186134f5565b60408051808201909152600381526232303160e81b60208201523490816121525760405162461bcd60e51b815260040161022a91906152e9565b5061215d6001613d2b565b60018260028111156121715761217161542c565b60028111156121825761218261542c565b036121f257600654604051632770a7eb60e21b81526001600160a01b0385811660048301526024820184905290911690639dc29fac90604401600060405180830381600087803b1580156121d557600080fd5b505af11580156121e9573d6000803e3d6000fd5b5050505061226c565b600754600254604051637a94c56560e11b81526001600160a01b039092169163f5298aca916122399187918691600160801b9091046001600160801b031690600401615b81565b600060405180830381600087803b15801561225357600080fd5b505af1158015612267573d6000803e3d6000fd5b505050505b61227a600147600080613df2565b60408051828152602081018490526001600160a01b0385169133917fece5c34de6f8a0f97558f974c584c3b24944d7d866a15ae665694b6a9ad32dc0910160405180910390a3505050565b816122cf8161314d565b6122d8836131b6565b6001600160401b03831660008181526009602090815260409182902060020180546001600160a01b0319166001600160a01b03871690811790915591519182527f9bf6b601ce2f144e5765ac93c6a31a3b0412bb7fd5e874408c8e6456f49346b4910160405180910390a2505050565b612350614508565b600a805461ff0019166101008315158102919091179182905560ff9104161561239f576040517f9e87fac88ff661f02d44f95383c817fece4bce600a3dab7a54406878b965e75290600090a150565b6040517fa45f47fdea8a1efdd9029a5691c7f759c32b7c698632b563573e155625d1693390600090a15b50565b6000546040516375673bcf60e01b81527f414ce2a000209fd8e25c2c2faa2910a2de2a09bf5b1c6dd13cb983ad16ce94ed6004820152620100009091046001600160a01b0316906375673bcf90602401602060405180830381865afa158015612439573d6000803e3d6000fd5b505050506040513d601f19601f8201168201806040525081019061245d9190615b64565b600580546001600160a01b0319166001600160a01b039283161790556000546040516375673bcf60e01b81527fc14c27b5e6078082e0904d5dd4d7f55c06fab5fcea4c23e75dfd7e0a2ad67ad0600482015262010000909104909116906375673bcf90602401602060405180830381865afa1580156124e0573d6000803e3d6000fd5b505050506040513d601f19601f820116820180604052508101906125049190615b64565b600680546001600160a01b0319166001600160a01b039283161790556000546040516375673bcf60e01b81527f58e7226e2c40de014ff441b32e56ca063cb94e2aa82ae7c0e0cfd2dfa7c1c6ae600482015262010000909104909116906375673bcf90602401602060405180830381865afa158015612587573d6000803e3d6000fd5b505050506040513d601f19601f820116820180604052508101906125ab9190615b64565b600780546001600160a01b0319166001600160a01b039283161790556000546040516375673bcf60e01b81527f2a0f0074ef138a45546c636beef8a612108f7d50fdd8fab359e0ef6b5afbed3d600482015262010000909104909116906375673bcf90602401602060405180830381865afa15801561262e573d6000803e3d6000fd5b505050506040513d601f19601f820116820180604052508101906126529190615b64565b600880546001600160a01b0319166001600160a01b0392909216919091179055565b600054610100900460ff16158080156126945750600054600160ff909116105b806126ae5750303b1580156126ae575060005460ff166001145b6127115760405162461bcd60e51b815260206004820152602e60248201527f496e697469616c697a61626c653a20636f6e747261637420697320616c72656160448201526d191e481a5b9a5d1a585b1a5e995960921b606482015260840161022a565b6000805460ff191660011790558015612734576000805461ff0019166101001790555b7b033b2e3c9fd0803ce800000000000000033b2e3c9fd0803ce80000006002556040805160208101909152600154815261276f8160006147b4565b61277b816103e8614833565b612786816064614884565b516001556000805462010000600160b01b031916620100006001600160a01b0385160217905580156127ee576000805461ff0019169055604051600181527f7f26b83ff96e1f2b6a682f133852f6798a09c465da95921460cefb384740249890602001612104565b5050565b6127fa6136ef565b60408051808201909152600381526219181960e91b60208201526001903490670de0b6b3a76400008210156128425760405162461bcd60e51b815260040161022a91906152e9565b5061284c82613d2b565b6128598247600080613df2565b6004808301546001840154604051630ab714fb60e11b81526001600160a01b039092169263156e29f69261289d92899287926001600160801b039092169101615b81565b600060405180830381600087803b1580156128b757600080fd5b505af11580156128cb573d6000803e3d6000fd5b50506040805184815263ffffffff871660208201526001600160a01b03881693503392507f7a4e428fc9cbaabc2f434a996a405d9dbee423860384b52812422410efc02f33910160405180910390a350505050565b8061292a8161314d565b6001600160401b038216600090815260096020526040902061294b836131b6565b61295483614716565b61295d8361475c565b604051630d75769960e01b81526001600160401b038416600482015260009073__$f7b76f5921548004c2ae36bcfeb2e6a357$__90630d75769990602401600060405180830381865af41580156129b8573d6000803e3d6000fd5b505050506040513d6000823e601f3d908101601f191682016040526129e09190810190615a23565b60208181015160408051600081528084018083528151812084515180519601959095206060830184526002825261393360f01b92909301919091529394509092919003612a405760405162461bcd60e51b815260040161022a91906152e9565b508051612a4c906141a6565b6001600160401b0316612a5d6141e0565b6001600160401b0316141560405180604001604052806002815260200161393360f01b81525090612aa15760405162461bcd60e51b815260040161022a91906152e9565b50806080015160405180604001604052806002815260200161393360f01b81525090612ae05760405162461bcd60e51b815260040161022a91906152e9565b50612af9858260000151836020015184604001516148d6565b6002830180546001600160a01b0319169055604080516020810190915283548152612b258160006147b4565b805184556040516001600160401b038716907fd7cdfe92d258ddd9f188a09c04f46f521c03fc4380bc8e035bbdfdfd695ce58f90600090a2505050505050565b612b6d614508565b6001600160401b03909116600090815260096020526040902055565b612b916136ef565b82612b9b8161314d565b612ba484613733565b60408051808201909152600381526231363160e81b6020820152678ac7230489e80000841015612be75760405162461bcd60e51b815260040161022a91906152e9565b50612bf0611898565b8311156040518060400160405280600381526020016232303360e81b81525090612c2d5760405162461bcd60e51b815260040161022a91906152e9565b508160021480612c5a5750816001148015612c5a5750604080516020810190915260018054918290521615155b6040518060400160405280600381526020016232303560e81b81525090612c945760405162461bcd60e51b815260040161022a91906152e9565b506001600160401b03841660009081526009602090815260409182902082519182019092528154808252600216151560405180604001604052806002815260200161363360f01b81525090612cfc5760405162461bcd60e51b815260040161022a91906152e9565b5060405163b6ecd87f60e01b81526001600160401b038716600482015260009073__$f586cd757e964c0add70928c007df70ea0$__9063b6ecd87f90602401602060405180830381865af4158015612d58573d6000803e3d6000fd5b505050506040513d601f19601f82011682018060405250810190612d7c9190615b64565b6001600160401b038089166000908152600b6020526040812054929350911690612da8898360016137b7565b9050612dc781612db88b85613435565b612dc28c8661380d565b614955565b881115604051806040016040528060038152602001620c4d4d60ea1b81525090612e045760405162461bcd60e51b815260040161022a91906152e9565b50612e0f6001613d2b565b6001876002811115612e2357612e2361542c565b6002811115612e3457612e3461542c565b03612efa57612e45476107d06143c2565b8811156040518060400160405280600381526020016219181b60e91b81525090612e825760405162461bcd60e51b815260040161022a91906152e9565b5060065460048054604051630ab714fb60e11b81526001600160a01b039093169263156e29f692612ec39288928e926001600160801b039092169101615b81565b600060405180830381600087803b158015612edd57600080fd5b505af1158015612ef1573d6000803e3d6000fd5b50505050612f74565b600754600254604051630ab714fb60e11b81526001600160a01b039092169163156e29f691612f419187918d91600160801b9091046001600160801b031690600401615b81565b600060405180830381600087803b158015612f5b57600080fd5b505af1158015612f6f573d6000803e3d6000fd5b505050505b6004546001600160801b0316612f8e60014760008c613df2565b612fb1828a612f9d8d876149a1565b612fa78e8861380d565b8a600301546149c1565b60038701556001600160401b03831615612fe8576003808701546001600160401b0385166000908152600960205260409020909101555b612ff2848a613b93565b6001600160401b038a16337f865cd546012de1df126ca428b1ca77602a7768c62f167825a175aff9219a9c5f8b8b60018d60028111156130345761303461542c565b60028111156130455761304561542c565b1461306257600354600160801b90046001600160801b0316613064565b855b60408051938452602084019290925290820152606001611fc2565b826130898161314d565b613092846131b6565b61309b84613204565b60405163f5ad38c360e01b815273__$f7b76f5921548004c2ae36bcfeb2e6a357$__9063f5ad38c3906130d690879087908790600401615c67565b60006040518083038186803b1580156130ee57600080fd5b505af4158015613102573d6000803e3d6000fd5b50505050836001600160401b03167f5057a85426367bd987f9ffaf50053129628a5d00833d694dd607dcaf45bde43784846040516120a3929190615ccb565b60006120bd6001614a41565b6001600160401b038116600090815260096020908152604091829020825191820190925290549081905260011615156040518060400160405280600381526020016231313360e81b815250906127ee5760405162461bcd60e51b815260040161022a91906152e9565b336131c0826139b7565b6001600160a01b0316146040518060400160405280600381526020016218989960e91b815250906127ee5760405162461bcd60e51b815260040161022a91906152e9565b60016001600160401b03821660009081526009602052604090206004015460ff1660028111156132365761323661542c565b1460405180604001604052806002815260200161393960f01b815250906127ee5760405162461bcd60e51b815260040161022a91906152e9565b60405163b6ecd87f60e01b81526001600160401b03841660048201526000908190819073__$f586cd757e964c0add70928c007df70ea0$__9063b6ecd87f90602401602060405180830381865af41580156132cf573d6000803e3d6000fd5b505050506040513d601f19601f820116820180604052508101906132f39190615b64565b60058501546040516370a0823160e01b81526001600160a01b038084166004830152929350600092909116906370a0823190602401602060405180830381865afa158015613345573d6000803e3d6000fd5b505050506040513d601f19601f820116820180604052508101906133699190615c3b565b60068601546040516370a0823160e01b81526001600160a01b038581166004830152929350600092909116906370a0823190602401602060405180830381865afa1580156133bb573d6000803e3d6000fd5b505050506040513d601f19601f820116820180604052508101906133df9190615c3b565b90506001600160401b03871615613426576000806133ff8960008a613270565b909250905061340e8285615c54565b6134188285615c54565b96509650505050505061342d565b9093509150505b935093915050565b60405163b6ecd87f60e01b81526001600160401b0383166004820152600090819073__$f586cd757e964c0add70928c007df70ea0$__9063b6ecd87f90602401602060405180830381865af4158015613492573d6000803e3d6000fd5b505050506040513d601f19601f820116820180604052508101906134b69190615b64565b6001600160a01b03163190506001600160401b038316156134ee576134dc836000613435565b6134e69082615c54565b915050611b9a565b9392505050565b60008060029054906101000a90046001600160a01b03166001600160a01b03166375673bcf336001600160a01b031663f36c5cd36040518163ffffffff1660e01b81526004016020604051808303816000875af115801561355a573d6000803e3d6000fd5b505050506040513d601f19601f8201168201806040525081019061357e9190615c3b565b6040518263ffffffff1660e01b815260040161359c91815260200190565b602060405180830381865afa1580156135b9573d6000803e3d6000fd5b505050506040513d601f19601f820116820180604052508101906135dd9190615b64565b6040516330b9d2a760e01b81523360048201529091506001600160a01b038216906330b9d2a790602401600060405180830381600087803b15801561362157600080fd5b505af1158015613635573d6000803e3d6000fd5b5050505050565b6001600160401b03811660009081526009602052604081208161365f8482613435565b9050600061366e856000613c8e565b9050600061367f86600060016137b7565b6002850180546001600160a01b03191690556040805160208101909152855481529091506136ae8160006147b4565b805185556136bc87336142f5565b828211156136cf57509195945050505050565b816136da848661581c565b6136e49190615c54565b979650505050505050565b600a5460408051808201909152600381526206460760eb1b602082015290610100900460ff16156123c95760405162461bcd60e51b815260040161022a91906152e9565b6001600160401b0381166000908152600960205260409020600201546001600160a01b031633148061377e5750613769816139b7565b6001600160a01b0316336001600160a01b0316145b60405180604001604052806002815260200161393760f01b815250906127ee5760405162461bcd60e51b815260040161022a91906152e9565b60008060006137c7868686613270565b90925090506137d68183615c54565b9695505050505050565b6000826000036137f257506000611b9a565b816000036138035750612710611b9a565b6134ee8383614aaa565b6001600160401b038216600090815260096020908152604080832081519283019091525490819052819060041c61ffff1690506001600160401b038316156134ee576001600160401b03831660009081526009602090815260408083208151928301909152549081905260041c61ffff165b905080821061388e5780613890565b815b92505050611b9a565b6000611b9a826138ab6127108261581c565b90614aaa565b60008160200151156139055760405162461bcd60e51b815260206004820152601860248201527f6d75737420626520616e20756e7369676e656420747970650000000000000000604482015260640161022a565b8151611b9a90614b6e565b600a805460ff191660011790556040516338792dd360e01b81526001600160401b038316600482015260248101829052600090819073__$f7b76f5921548004c2ae36bcfeb2e6a357$__906338792dd390604401602060405180830381865af4158015613981573d6000803e3d6000fd5b505050506040513d601f19601f820116820180604052508101906139a59190615c3b565b600a805460ff19169055949350505050565b600060026001600160401b03831660009081526009602052604090206004015460ff1660028111156139eb576139eb61542c565b03613aff5760405163d370a37d60e01b81526001600160401b038316600482015260009073__$f7b76f5921548004c2ae36bcfeb2e6a357$__9063d370a37d90602401600060405180830381865af4158015613a4b573d6000803e3d6000fd5b505050506040513d6000823e601f3d908101601f19168201604052613a739190810190615bab565b9050613a8281600001516141a6565b60405163b6ecd87f60e01b81526001600160401b03909116600482015273__$f586cd757e964c0add70928c007df70ea0$__9063b6ecd87f90602401602060405180830381865af4158015613adb573d6000803e3d6000fd5b505050506040513d601f19601f820116820180604052508101906134ee9190615b64565b60016001600160401b03831660009081526009602052604090206004015460ff166002811115613b3157613b3161542c565b03613b5e57506001600160401b03166000908152600960205260409020600101546001600160a01b031690565b60408051808201825260028152610e4d60f21b6020820152905162461bcd60e51b815261022a91906004016152e9565b919050565b604051633b8f8dbf60e21b81526001600160a01b038316600482015273__$556e80bd8e917893045916c3bdf6b108f7$__90636f7ee35e9073__$3f3e462debfc5d6ec86a3c71b7c0ac2a63$__9063ee3e36fc90602401602060405180830381865af4158015613c07573d6000803e3d6000fd5b505050506040513d601f19601f82011682018060405250810190613c2b9190615d26565b6040516001600160e01b031960e084901b1681526001600160401b039091166004820152602481018490526044015b60006040518083038186803b158015613c7257600080fd5b505af4158015613c86573d6000803e3d6000fd5b505050505050565b60405163c3a5be4b60e01b81526001600160401b0383166004820152600090819073__$f7b76f5921548004c2ae36bcfeb2e6a357$__9063c3a5be4b90602401602060405180830381865af4158015613ceb573d6000803e3d6000fd5b505050506040513d601f19601f82011682018060405250810190613d0f9190615c3b565b90506001600160401b038316156134ee576134dc836000613c8e565b600681015460408051637d39d22560e01b815290516000926001600160a01b031691637d39d2259160048083019260209291908290030181865afa158015613d77573d6000803e3d6000fd5b505050506040513d601f19601f82011682018060405250810190613d9b9190615c3b565b60018301546003840154919250600160801b8082046001600160801b03908116939216910464ffffffffff16600080613dd78787868887614be4565b91509150613de9878787858588614cd5565b50505050505050565b613e4360405180610100016040528060006001600160a01b03168152602001600081526020016000815260200160008152602001600081526020016000815260200160008152602001600081525090565b60058501546001600160a01b031680825260408051637b98f4df60e11b8152815163f731e9be926004808401939192918290030181865afa158015613e8c573d6000803e3d6000fd5b505050506040513d601f19601f82011682018060405250810190613eb09190615d43565b60c0830152604080830191909152600186015460068701548251637d39d22560e01b81529251613f4c93600160801b9093046001600160801b0316926001600160a01b0390921691637d39d2259160048083019260209291908290030181865afa158015613f22573d6000803e3d6000fd5b505050506040513d601f19601f82011682018060405250810190613f469190615c3b565b9061446a565b60e08201819052600786015460408084015160c085015182516020810184528a54908190528351637ded56d760e11b815260048181018c9052602482018b9052604482018a90526064820194909452608481019690965260a486019190915261ffff911c1660c4840152516001600160a01b039091169163fbdaadae9160e48083019260609291908290030181865afa158015613fed573d6000803e3d6000fd5b505050506040513d601f19601f820116820180604052508101906140119190615d67565b60a084015260808301526060820181905261402b90614f0f565b6002860180546001600160801b0319166001600160801b0392909216919091179055608081015161405b90614f0f565b6003860180546001600160801b0319166001600160801b039290921691909117905560a081015161408b90614f0f565b6002860180546001600160801b03908116600160801b93821684021790915560608381015160808086015160a08088015160018d0154604080518e81526020810197909752860193909352948401949094528085169183019190915293909304909116908201527fff54742c67206a8ce84b97a06df2a387c148f9fc4b2af50defa0069725fd2e9b9060c00160405180910390a15050505050565b604051633b8f8dbf60e21b81526001600160a01b038216600482015260009073__$3f3e462debfc5d6ec86a3c71b7c0ac2a63$__9063ee3e36fc906024015b602060405180830381865af4158015614182573d6000803e3d6000fd5b505050506040513d601f19601f82011682018060405250810190611b9a9190615d26565b8051604051631b97aa9960e01b815260009173__$3f3e462debfc5d6ec86a3c71b7c0ac2a63$__91631b97aa9991614165916004016152e9565b60006120bd30614126565b60408051602081019091526001548152600090819061420990614f7c565b60408051602081019091526001549081905260541c61ffff16915091509091565b612710821015801561423e575061ffff8211155b60405180604001604052806002815260200161383360f01b815250906142775760405162461bcd60e51b815260040161022a91906152e9565b5061428182613899565b811015801561429257506127108111155b604051806040016040528060028152602001610e0d60f21b815250906142cb5760405162461bcd60e51b815260040161022a91906152e9565b50825160149190911b640ffffffff01990911660049290921b640ffff00000191691909117179052565b73__$f7b76f5921548004c2ae36bcfeb2e6a357$__633e0bea3e8373__$e91a0ddf21c4eeff8c321ec4ce74ca0862$__63a7d5202661433386614126565b6040516001600160e01b031960e084901b1681526001600160401b039091166004820152602401600060405180830381865af4158015614377573d6000803e3d6000fd5b505050506040513d6000823e601f3d908101601f1916820160405261439f9190810190615d95565b516040516001600160e01b031960e085901b168152613c5a929190600401615dc9565b60008215806143cf575081155b156143dc57506000611b9a565b816143ea6002612710615deb565b6143f69060001961581c565b6144009190615deb565b8311156040518060400160405280600381526020016206260760eb1b8152509061443d5760405162461bcd60e51b815260040161022a91906152e9565b5061271061444c600282615deb565b6144568486615e0d565b6144609190615c54565b6134ee9190615deb565b6000821580614477575081155b1561448457506000611b9a565b8161449c60026b033b2e3c9fd0803ce8000000615deb565b6144a89060001961581c565b6144b29190615deb565b8311156040518060400160405280600381526020016206260760eb1b815250906144ef5760405162461bcd60e51b815260040161022a91906152e9565b506b033b2e3c9fd0803ce800000061444c600282615deb565b6000546040516375673bcf60e01b81527f4eb675411e7233f5c25e648b3be840a19809cc80a0ad634040316476d89ebc31600482015233916201000090046001600160a01b0316906375673bcf90602401602060405180830381865afa158015614576573d6000803e3d6000fd5b505050506040513d601f19601f8201168201806040525081019061459a9190615b64565b6001600160a01b031614604051806040016040528060038152602001620c4c0d60ea1b815250906123c95760405162461bcd60e51b815260040161022a91906152e9565b6001600160401b038216600090815260096020908152604080832081519283019091525490819052819060141c61ffff1690506001600160401b038316156134ee576001600160401b03831660009081526009602090815260408083208151928301909152549081905260141c61ffff1661387f565b600061466083836143c2565b61466a908561581c565b949350505050565b60008061467e84613899565b905060006146a56146918361271061581c565b6138ab61469e858861581c565b8a906143c2565b9050858111156137d657509395945050505050565b60008284106146d3576146ce868484614fa1565b614709565b83156146e4576146e4868584614fa1565b6146f8856146f2868661581c565b84614fa1565b614702848461581c565b905061470d565b5060005b95945050505050565b61472381600060016137b7565b6040805180820190915260038152620626a760eb1b602082015290156127ee5760405162461bcd60e51b815260040161022a91906152e9565b6001600160401b038082166000908152600b60209081526040918290205482518084019093526002835261363160f01b91830191909152909116156127ee5760405162461bcd60e51b815260040161022a91906152e9565b6000816147c25760006147c5565b60015b83516001191660ff9190911690911b1790915250565b600381015460009064ffffffffff600160801b9091048116904216810361480e575050600101546001600160801b031690565b600183015460028401546134ee916001600160801b0390811691613f46911684615121565b60408051808201909152600381526203131360ec1b60208201526127108211156148705760405162461bcd60e51b815260040161022a91906152e9565b508151620ffff0191660049190911b179052565b6040805180820190915260028152611c1b60f11b60208201526127108211156148c05760405162461bcd60e51b815260040161022a91906152e9565b508151640ffff00000191660149190911b179052565b73__$f7b76f5921548004c2ae36bcfeb2e6a357$__63eafac91d8585600001516148ff866138b1565b856040518563ffffffff1660e01b815260040161491f9493929190615e24565b60006040518083038186803b15801561493757600080fd5b505af415801561494b573d6000803e3d6000fd5b5050505050505050565b6000828410614966575060006134ee565b60006149876149776127108561581c565b614981878761581c565b906143c2565b905084811161499757600061470d565b61470d858261581c565b60006149ad8383613c8e565b6149b78484613435565b6134ee919061581c565b6000806149ce8688615c54565b905060006149e86149e16127108761581c565b8390614aaa565b6149f29083615c54565b90506000614a008888615c54565b90506000614a0e8987615c54565b90506000828411614a1f5782614a21565b835b9050818111614a305781614a32565b805b9b9a5050505050505050505050565b600381015460009064ffffffffff600160801b90910481169042168103614a7b57505060010154600160801b90046001600160801b031690565b600183015460028401546134ee916001600160801b03600160801b91829004811692613f469290041684615167565b60408051808201909152600381526231303960e81b602082015260009082614ae55760405162461bcd60e51b815260040161022a91906152e9565b506000614af3600284615deb565b9050612710614b048260001961581c565b614b0e9190615deb565b8411156040518060400160405280600381526020016206260760eb1b81525090614b4b5760405162461bcd60e51b815260040161022a91906152e9565b508281614b5a61271087615e0d565b614b649190615c54565b61466a9190615deb565b6000602082511115614bb65760405162461bcd60e51b81526020600482015260116024820152706d6f7265207468616e203332206279746560781b604482015260640161022a565b6000614bc183615e60565b8351909150614bd1906008615e0d565b614bdd9061010061581c565b1c92915050565b600285015460009081906001600160801b031685858215614ca6576000614c0b8488615121565b9050614c17818a61446a565b9250614c2283614f0f565b60018c0180546001600160801b0319166001600160801b03929092169190911790558915614ca45760028b0154600090614c6c90600160801b90046001600160801b031689615167565b9050614c78818a61446a565b9250614c8383614f0f565b60018d0180546001600160801b03928316600160801b029216919091179055505b505b600399909901805464ffffffffff60801b1916600160801b4264ffffffffff1602179055989650505050505050565b614d3960405180610160016040528060008152602001600081526020016000815260200160008152602001600081526020016000815260200160008152602001600081526020016000815260200160008152602001600064ffffffffff1681525090565b604080516020810190915287549081905260041c61ffff166101208201819052600003614d665750613c86565b8660050160009054906101000a90046001600160a01b03166001600160a01b031663797743386040518163ffffffff1660e01b8152600401608060405180830381865afa158015614dbb573d6000803e3d6000fd5b505050506040513d601f19601f82011682018060405250810190614ddf9190615e87565b64ffffffffff1661014085015260a084015282526020820152614e02868661446a565b6080820152614e11868461446a565b606082015260a0810151610140820151614e33919064ffffffffff8516615170565b60c082018190526020820151614e489161446a565b60408201819052608082015182516060840151614e659190615c54565b614e6f919061581c565b614e79919061581c565b60e08201819052610120820151614e9091906143c2565b610100820181905215613de957600487810154610100830151604051637df5bd3b60e01b815292830152602482018690526001600160a01b031690637df5bd3b90604401600060405180830381600087803b158015614eee57600080fd5b505af1158015614f02573d6000803e3d6000fd5b5050505050505050505050565b60006001600160801b03821115614f785760405162461bcd60e51b815260206004820152602760248201527f53616665436173743a2076616c756520646f65736e27742066697420696e20316044820152663238206269747360c81b606482015260840161022a565b5090565b805160009060441c61ffff166127108110614f9757806134ee565b6127109392505050565b60405163b6ecd87f60e01b81526001600160401b038416600482015260009073__$f586cd757e964c0add70928c007df70ea0$__9063b6ecd87f90602401602060405180830381865af4158015614ffc573d6000803e3d6000fd5b505050506040513d601f19601f820116820180604052508101906150209190615b64565b905060028260028111156150365761503661542c565b036150b957600754600254604051637a94c56560e11b81526001600160a01b039092169163f5298aca916150829185918891600160801b9091046001600160801b031690600401615b81565b600060405180830381600087803b15801561509c57600080fd5b505af11580156150b0573d6000803e3d6000fd5b5050505061511b565b600654604051632770a7eb60e21b81526001600160a01b0383811660048301526024820186905290911690639dc29fac90604401600060405180830381600087803b15801561510757600080fd5b505af115801561494b573d6000803e3d6000fd5b50505050565b60008061513564ffffffffff84164261581c565b90506b033b2e3c9fd0803ce80000006301e133806151538387615e0d565b61515d9190615deb565b61466a9190615c54565b60006134ee8383425b60008061518464ffffffffff85168461581c565b9050806000036151a3576b033b2e3c9fd0803ce80000009150506134ee565b60006151b060018361581c565b90506000600283116151c35760006151ce565b6151ce60028461581c565b905060006151e06301e1338089615deb565b905060006151ee828061446a565b905060006151fc828461446a565b9050600060028361520d888a615e0d565b6152179190615e0d565b6152219190615deb565b90506000600683876152338a8c615e0d565b61523d9190615e0d565b6152479190615e0d565b6152519190615deb565b9050808261525f8a88615e0d565b615275906b033b2e3c9fd0803ce8000000615c54565b61527f9190615c54565b6152899190615c54565b9c9b505050505050505050505050565b60005b838110156152b457818101518382015260200161529c565b50506000910152565b600081518084526152d5816020860160208601615299565b601f01601f19169290920160200192915050565b6020815260006134ee60208301846152bd565b81515181526101608101602083015161532060208401826001600160801b03169052565b50604083015161533b60408401826001600160801b03169052565b50606083015161535660608401826001600160801b03169052565b50608083015161537160808401826001600160801b03169052565b5060a083015161538c60a08401826001600160801b03169052565b5060c08301516153a560c084018264ffffffffff169052565b5060e08301516153c060e08401826001600160a01b03169052565b50610100838101516001600160a01b0390811691840191909152610120808501518216908401526101409384015116929091019190915290565b6001600160401b03811681146123c957600080fd5b60006020828403121561542157600080fd5b81356134ee816153fa565b634e487b7160e01b600052602160045260246000fd5b85515181526020808701516001600160a01b0390811691830191909152604080880151909116908201526060808701519082015260808601516101208201906003811061549f57634e487b7160e01b600052602160045260246000fd5b806080840152508560a08301528460c08301528360e08301526137d66101008301846001600160401b03169052565b6001600160a01b03811681146123c957600080fd5b600080604083850312156154f657600080fd5b8235615501816153fa565b91506020830135615511816154ce565b809150509250929050565b6000806040838503121561552f57600080fd5b823561553a816153fa565b946020939093013593505050565b60008060006060848603121561555d57600080fd5b8335615568816153fa565b95602085013595506040909401359392505050565b6000806000806080858703121561559357600080fd5b843561559e816154ce565b935060208501356155ae816154ce565b93969395505050506040820135916060013590565b6000602082840312156155d557600080fd5b5035919050565b600080604083850312156155ef57600080fd5b823591506020830135615511816154ce565b6000806040838503121561561457600080fd5b823561553a816154ce565b80151581146123c957600080fd5b60006020828403121561563f57600080fd5b81356134ee8161561f565b60006020828403121561565c57600080fd5b81356134ee816154ce565b6000806040838503121561567a57600080fd5b8235615685816154ce565b9150602083013563ffffffff8116811461551157600080fd5b634e487b7160e01b600052604160045260246000fd5b604080519081016001600160401b03811182821017156156d6576156d661569e565b60405290565b604051606081016001600160401b03811182821017156156d6576156d661569e565b604051601f8201601f191681016001600160401b03811182821017156157265761572661569e565b604052919050565b60008060006060848603121561574357600080fd5b833561574e816153fa565b925060208481013561575f816153fa565b925060408501356001600160401b038082111561577b57600080fd5b818701915087601f83011261578f57600080fd5b8135818111156157a1576157a161569e565b8060051b91506157b28483016156fe565b818152918301840191848101908a8411156157cc57600080fd5b938501935b838510156157f657843592506157e6836153fa565b82825293850193908501906157d1565b8096505050505050509250925092565b634e487b7160e01b600052601160045260246000fd5b81810381811115611b9a57611b9a615806565b600082601f83011261584057600080fd5b81516001600160401b038111156158595761585961569e565b61586c601f8201601f19166020016156fe565b81815284602083860101111561588157600080fd5b61466a826020830160208701615299565b6000602082840312156158a457600080fd5b604051602081016001600160401b0382821081831117156158c7576158c761569e565b8160405282935084519150808211156158df57600080fd5b506158ec8582860161582f565b8252505092915050565b60006040828403121561590857600080fd5b6159106156b4565b905081516001600160401b0381111561592857600080fd5b6159348482850161582f565b82525060208201516159458161561f565b602082015292915050565b8051600781900b8114613b8e57600080fd5b600060a0828403121561597457600080fd5b60405160a081016001600160401b0382821081831117156159975761599761569e565b8160405282935084519150808211156159af57600080fd5b6159bb86838701615892565b835260208501519150808211156159d157600080fd5b506159de858286016158f6565b6020830152506159f060408401615950565b60408201526060830151615a038161561f565b60608201526080830151615a168161561f565b6080919091015292915050565b60006020808385031215615a3657600080fd5b82516001600160401b0380821115615a4d57600080fd5b9084019060408287031215615a6157600080fd5b615a696156b4565b825182811115615a7857600080fd5b830160408189031215615a8a57600080fd5b615a926156b4565b815184811115615aa157600080fd5b615aad8a828501615892565b8252508582015184811115615ac157600080fd5b91909101906060828a031215615ad657600080fd5b615ade6156dc565b825185811115615aed57600080fd5b615af98b8286016158f6565b8252508683015185811115615b0d57600080fd5b615b198b8286016158f6565b8883015250615b2a60408401615950565b6040820152818701528252508284015182811115615b4757600080fd5b615b5388828601615962565b948201949094529695505050505050565b600060208284031215615b7657600080fd5b81516134ee816154ce565b6001600160a01b0393909316835260208301919091526001600160801b0316604082015260600190565b600060208284031215615bbd57600080fd5b81516001600160401b0380821115615bd457600080fd5b9083019060408286031215615be857600080fd5b615bf06156b4565b825182811115615bff57600080fd5b615c0b87828601615892565b825250602083015182811115615c2057600080fd5b615c2c87828601615892565b60208301525095945050505050565b600060208284031215615c4d57600080fd5b5051919050565b80820180821115611b9a57611b9a615806565b6000606082016001600160401b03808716845260208187168186015260606040860152828651808552608087019150828801945060005b81811015615cbc578551851683529483019491830191600101615c9e565b50909998505050505050505050565b6000604082016001600160401b0380861684526020604081860152828651808552606087019150828801945060005b81811015615d18578551851683529483019491830191600101615cfa565b509098975050505050505050565b600060208284031215615d3857600080fd5b81516134ee816153fa565b60008060408385031215615d5657600080fd5b505080516020909101519092909150565b600080600060608486031215615d7c57600080fd5b8351925060208401519150604084015190509250925092565b600060208284031215615da757600080fd5b81516001600160401b03811115615dbd57600080fd5b61466a84828501615892565b6001600160401b038316815260406020820152600061466a60408301846152bd565b600082615e0857634e487b7160e01b600052601260045260246000fd5b500490565b8082028115828204841417611b9a57611b9a615806565b6001600160401b0385168152608060208201526000615e4660808301866152bd565b90508360408301528260070b606083015295945050505050565b80516020808301519190811015615e81576000198160200360031b1b821691505b50919050565b60008060008060808587031215615e9d57600080fd5b845193506020850151925060408501519150606085015164ffffffffff81168114615ec757600080fd5b93969295509093505056fea26469706673582212207760bc2da3854db975d8cd69cf61e54405e6cb07dac8adbfd8bd6750be6fc7b264736f6c63430008110033",
  "linkReferences": {
    "protocol/contracts/protocol/libraries/filecoin/contracts/WrapMinerAPI.sol": {
      "WrapMinerAPI": [
        {
          "length": 20,
          "start": 2173
        },
        {
          "length": 20,
          "start": 3408
        },
        {
          "length": 20,
          "start": 5149
        },
        {
          "length": 20,
          "start": 10866
        },
        {
          "length": 20,
          "start": 12702
        },
        {
          "length": 20,
          "start": 14907
        },
        {
          "length": 20,
          "start": 15109
        },
        {
          "length": 20,
          "start": 15781
        },
        {
          "length": 20,
          "start": 17387
        },
        {
          "length": 20,
          "start": 18892
        }
      ]
    },
    "protocol/contracts/protocol/libraries/filecoin/contracts/WrapPrecompilesAPI.sol": {
      "WrapPrecompilesAPI": [
        {
          "length": 20,
          "start": 15553
        },
        {
          "length": 20,
          "start": 16955
        },
        {
          "length": 20,
          "start": 17070
        }
      ]
    },
    "protocol/contracts/protocol/libraries/filecoin/contracts/WrapSendAPI.sol": {
      "WrapSendAPI": [
        {
          "length": 20,
          "start": 15525
        }
      ]
    },
    "protocol/contracts/protocol/libraries/filecoin/contracts/utils/WrapActorAddresses.sol": {
      "WrapActorAddresses": [
        {
          "length": 20,
          "start": 3963
        },
        {
          "length": 20,
          "start": 11794
        },
        {
          "length": 20,
          "start": 13193
        },
        {
          "length": 20,
          "start": 13644
        },
        {
          "length": 20,
          "start": 15253
        },
        {
          "length": 20,
          "start": 20662
        }
      ]
    },
    "protocol/contracts/protocol/libraries/filecoin/contracts/utils/WrapFilAddresses.sol": {
      "WrapFilAddresses": [
        {
          "length": 20,
          "start": 17414
        }
      ]
    }
  },
  "deployedLinkReferences": {
    "protocol/contracts/protocol/libraries/filecoin/contracts/WrapMinerAPI.sol": {
      "WrapMinerAPI": [
        {
          "length": 20,
          "start": 1929
        },
        {
          "length": 20,
          "start": 3164
        },
        {
          "length": 20,
          "start": 4905
        },
        {
          "length": 20,
          "start": 10622
        },
        {
          "length": 20,
          "start": 12458
        },
        {
          "length": 20,
          "start": 14663
        },
        {
          "length": 20,
          "start": 14865
        },
        {
          "length": 20,
          "start": 15537
        },
        {
          "length": 20,
          "start": 17143
        },
        {
          "length": 20,
          "start": 18648
        }
      ]
    },
    "protocol/contracts/protocol/libraries/filecoin/contracts/WrapPrecompilesAPI.sol": {
      "WrapPrecompilesAPI": [
        {
          "length": 20,
          "start": 15309
        },
        {
          "length": 20,
          "start": 16711
        },
        {
          "length": 20,
          "start": 16826
        }
      ]
    },
    "protocol/contracts/protocol/libraries/filecoin/contracts/WrapSendAPI.sol": {
      "WrapSendAPI": [
        {
          "length": 20,
          "start": 15281
        }
      ]
    },
    "protocol/contracts/protocol/libraries/filecoin/contracts/utils/WrapActorAddresses.sol": {
      "WrapActorAddresses": [
        {
          "length": 20,
          "start": 3719
        },
        {
          "length": 20,
          "start": 11550
        },
        {
          "length": 20,
          "start": 12949
        },
        {
          "length": 20,
          "start": 13400
        },
        {
          "length": 20,
          "start": 15009
        },
        {
          "length": 20,
          "start": 20418
        }
      ]
    },
    "protocol/contracts/protocol/libraries/filecoin/contracts/utils/WrapFilAddresses.sol": {
      "WrapFilAddresses": [
        {
          "length": 20,
          "start": 17170
        }
      ]
    }
  }
}