{
  "_format": "hh-sol-artifact-1",
  "contractName": "STFILToken",
  "sourceName": "contracts/protocol/tokenization/STFILToken.sol",
  "abi": [
    {
      "inputs": [],
      "stateMutability": "nonpayable",
      "type": "constructor"
    },
    {
      "anonymous": false,
      "inputs": [
        {
          "indexed": true,
          "internalType": "address",
          "name": "owner",
          "type": "address"
        },
        {
          "indexed": true,
          "internalType": "address",
          "name": "spender",
          "type": "address"
        },
        {
          "indexed": false,
          "internalType": "uint256",
          "name": "value",
          "type": "uint256"
        }
      ],
      "name": "Approval",
      "type": "event"
    },
    {
      "anonymous": false,
      "inputs": [
        {
          "indexed": true,
          "internalType": "address",
          "name": "from",
          "type": "address"
        },
        {
          "indexed": true,
          "internalType": "address",
          "name": "to",
          "type": "address"
        },
        {
          "indexed": false,
          "internalType": "uint256",
          "name": "value",
          "type": "uint256"
        },
        {
          "indexed": false,
          "internalType": "uint256",
          "name": "index",
          "type": "uint256"
        }
      ],
      "name": "BalanceTransfer",
      "type": "event"
    },
    {
      "anonymous": false,
      "inputs": [
        {
          "indexed": true,
          "internalType": "address",
          "name": "from",
          "type": "address"
        },
        {
          "indexed": false,
          "internalType": "uint256",
          "name": "value",
          "type": "uint256"
        },
        {
          "indexed": false,
          "internalType": "uint256",
          "name": "index",
          "type": "uint256"
        }
      ],
      "name": "Burn",
      "type": "event"
    },
    {
      "anonymous": false,
      "inputs": [
        {
          "indexed": false,
          "internalType": "uint8",
          "name": "version",
          "type": "uint8"
        }
      ],
      "name": "Initialized",
      "type": "event"
    },
    {
      "anonymous": false,
      "inputs": [
        {
          "indexed": true,
          "internalType": "address",
          "name": "from",
          "type": "address"
        },
        {
          "indexed": false,
          "internalType": "uint256",
          "name": "value",
          "type": "uint256"
        },
        {
          "indexed": false,
          "internalType": "uint256",
          "name": "index",
          "type": "uint256"
        }
      ],
      "name": "Mint",
      "type": "event"
    },
    {
      "anonymous": false,
      "inputs": [
        {
          "indexed": true,
          "internalType": "address",
          "name": "from",
          "type": "address"
        },
        {
          "indexed": true,
          "internalType": "address",
          "name": "to",
          "type": "address"
        },
        {
          "indexed": false,
          "internalType": "uint256",
          "name": "value",
          "type": "uint256"
        }
      ],
      "name": "Transfer",
      "type": "event"
    },
    {
      "inputs": [],
      "name": "DOMAIN_SEPARATOR",
      "outputs": [
        {
          "internalType": "bytes32",
          "name": "",
          "type": "bytes32"
        }
      ],
      "stateMutability": "view",
      "type": "function"
    },
    {
      "inputs": [],
      "name": "EIP712_REVISION",
      "outputs": [
        {
          "internalType": "bytes",
          "name": "",
          "type": "bytes"
        }
      ],
      "stateMutability": "view",
      "type": "function"
    },
    {
      "inputs": [],
      "name": "PERMIT_TYPEHASH",
      "outputs": [
        {
          "internalType": "bytes32",
          "name": "",
          "type": "bytes32"
        }
      ],
      "stateMutability": "view",
      "type": "function"
    },
    {
      "inputs": [],
      "name": "POOL",
      "outputs": [
        {
          "internalType": "contract IStakingPool",
          "name": "",
          "type": "address"
        }
      ],
      "stateMutability": "view",
      "type": "function"
    },
    {
      "inputs": [],
      "name": "RESERVE_TREASURY_ADDRESS",
      "outputs": [
        {
          "internalType": "address",
          "name": "",
          "type": "address"
        }
      ],
      "stateMutability": "view",
      "type": "function"
    },
    {
      "inputs": [
        {
          "internalType": "address",
          "name": "owner",
          "type": "address"
        },
        {
          "internalType": "address",
          "name": "spender",
          "type": "address"
        }
      ],
      "name": "allowance",
      "outputs": [
        {
          "internalType": "uint256",
          "name": "",
          "type": "uint256"
        }
      ],
      "stateMutability": "view",
      "type": "function"
    },
    {
      "inputs": [
        {
          "internalType": "address",
          "name": "spender",
          "type": "address"
        },
        {
          "internalType": "uint256",
          "name": "amount",
          "type": "uint256"
        }
      ],
      "name": "approve",
      "outputs": [
        {
          "internalType": "bool",
          "name": "",
          "type": "bool"
        }
      ],
      "stateMutability": "nonpayable",
      "type": "function"
    },
    {
      "inputs": [
        {
          "internalType": "address",
          "name": "user",
          "type": "address"
        }
      ],
      "name": "balanceOf",
      "outputs": [
        {
          "internalType": "uint256",
          "name": "",
          "type": "uint256"
        }
      ],
      "stateMutability": "view",
      "type": "function"
    },
    {
      "inputs": [
        {
          "internalType": "address",
          "name": "user",
          "type": "address"
        },
        {
          "internalType": "uint256",
          "name": "amount",
          "type": "uint256"
        },
        {
          "internalType": "uint256",
          "name": "index",
          "type": "uint256"
        }
      ],
      "name": "burn",
      "outputs": [],
      "stateMutability": "nonpayable",
      "type": "function"
    },
    {
      "inputs": [],
      "name": "decimals",
      "outputs": [
        {
          "internalType": "uint8",
          "name": "",
          "type": "uint8"
        }
      ],
      "stateMutability": "view",
      "type": "function"
    },
    {
      "inputs": [
        {
          "internalType": "address",
          "name": "spender",
          "type": "address"
        },
        {
          "internalType": "uint256",
          "name": "subtractedValue",
          "type": "uint256"
        }
      ],
      "name": "decreaseAllowance",
      "outputs": [
        {
          "internalType": "bool",
          "name": "",
          "type": "bool"
        }
      ],
      "stateMutability": "nonpayable",
      "type": "function"
    },
    {
      "inputs": [
        {
          "internalType": "address",
          "name": "user",
          "type": "address"
        }
      ],
      "name": "getUserScaledFactorAndSupply",
      "outputs": [
        {
          "internalType": "uint256",
          "name": "",
          "type": "uint256"
        },
        {
          "internalType": "uint256",
          "name": "",
          "type": "uint256"
        }
      ],
      "stateMutability": "view",
      "type": "function"
    },
    {
      "inputs": [
        {
          "internalType": "address",
          "name": "spender",
          "type": "address"
        },
        {
          "internalType": "uint256",
          "name": "addedValue",
          "type": "uint256"
        }
      ],
      "name": "increaseAllowance",
      "outputs": [
        {
          "internalType": "bool",
          "name": "",
          "type": "bool"
        }
      ],
      "stateMutability": "nonpayable",
      "type": "function"
    },
    {
      "inputs": [
        {
          "internalType": "contract IStakingPool",
          "name": "pool",
          "type": "address"
        },
        {
          "internalType": "address",
          "name": "treasury",
          "type": "address"
        }
      ],
      "name": "initialize",
      "outputs": [],
      "stateMutability": "nonpayable",
      "type": "function"
    },
    {
      "inputs": [
        {
          "internalType": "address",
          "name": "user",
          "type": "address"
        },
        {
          "internalType": "uint256",
          "name": "amount",
          "type": "uint256"
        },
        {
          "internalType": "uint256",
          "name": "index",
          "type": "uint256"
        }
      ],
      "name": "mint",
      "outputs": [],
      "stateMutability": "nonpayable",
      "type": "function"
    },
    {
      "inputs": [
        {
          "internalType": "uint256",
          "name": "amount",
          "type": "uint256"
        },
        {
          "internalType": "uint256",
          "name": "index",
          "type": "uint256"
        }
      ],
      "name": "mintToTreasury",
      "outputs": [],
      "stateMutability": "nonpayable",
      "type": "function"
    },
    {
      "inputs": [],
      "name": "name",
      "outputs": [
        {
          "internalType": "string",
          "name": "",
          "type": "string"
        }
      ],
      "stateMutability": "view",
      "type": "function"
    },
    {
      "inputs": [
        {
          "internalType": "address",
          "name": "",
          "type": "address"
        }
      ],
      "name": "nonces",
      "outputs": [
        {
          "internalType": "uint256",
          "name": "",
          "type": "uint256"
        }
      ],
      "stateMutability": "view",
      "type": "function"
    },
    {
      "inputs": [
        {
          "internalType": "address",
          "name": "owner",
          "type": "address"
        },
        {
          "internalType": "address",
          "name": "spender",
          "type": "address"
        },
        {
          "internalType": "uint256",
          "name": "value",
          "type": "uint256"
        },
        {
          "internalType": "uint256",
          "name": "deadline",
          "type": "uint256"
        },
        {
          "internalType": "uint8",
          "name": "v",
          "type": "uint8"
        },
        {
          "internalType": "bytes32",
          "name": "r",
          "type": "bytes32"
        },
        {
          "internalType": "bytes32",
          "name": "s",
          "type": "bytes32"
        }
      ],
      "name": "permit",
      "outputs": [],
      "stateMutability": "nonpayable",
      "type": "function"
    },
    {
      "inputs": [
        {
          "internalType": "address",
          "name": "user",
          "type": "address"
        }
      ],
      "name": "scaledFactor",
      "outputs": [
        {
          "internalType": "uint256",
          "name": "",
          "type": "uint256"
        }
      ],
      "stateMutability": "view",
      "type": "function"
    },
    {
      "inputs": [],
      "name": "scaledFactorTotalSupply",
      "outputs": [
        {
          "internalType": "uint256",
          "name": "",
          "type": "uint256"
        }
      ],
      "stateMutability": "view",
      "type": "function"
    },
    {
      "inputs": [],
      "name": "symbol",
      "outputs": [
        {
          "internalType": "string",
          "name": "",
          "type": "string"
        }
      ],
      "stateMutability": "view",
      "type": "function"
    },
    {
      "inputs": [],
      "name": "totalSupply",
      "outputs": [
        {
          "internalType": "uint256",
          "name": "",
          "type": "uint256"
        }
      ],
      "stateMutability": "view",
      "type": "function"
    },
    {
      "inputs": [
        {
          "internalType": "address",
          "name": "to",
          "type": "address"
        },
        {
          "internalType": "uint256",
          "name": "amount",
          "type": "uint256"
        }
      ],
      "name": "transfer",
      "outputs": [
        {
          "internalType": "bool",
          "name": "",
          "type": "bool"
        }
      ],
      "stateMutability": "nonpayable",
      "type": "function"
    },
    {
      "inputs": [
        {
          "internalType": "address",
          "name": "from",
          "type": "address"
        },
        {
          "internalType": "address",
          "name": "to",
          "type": "address"
        },
        {
          "internalType": "uint256",
          "name": "amount",
          "type": "uint256"
        }
      ],
      "name": "transferFrom",
      "outputs": [
        {
          "internalType": "bool",
          "name": "",
          "type": "bool"
        }
      ],
      "stateMutability": "nonpayable",
      "type": "function"
    }
  ],
  "bytecode": "0x608060405234801561001057600080fd5b5061001961001e565b6100de565b600054610100900460ff161561008a5760405162461bcd60e51b815260206004820152602760248201527f496e697469616c697a61626c653a20636f6e747261637420697320696e697469604482015266616c697a696e6760c81b606482015260840160405180910390fd5b60005460ff90811610156100dc576000805460ff191660ff9081179091556040519081527f7f26b83ff96e1f2b6a682f133852f6798a09c465da95921460cefb38474024989060200160405180910390a15b565b611d75806100ed6000396000f3fe608060405234801561001057600080fd5b50600436106101735760003560e01c806370a08231116100de57806395d89b4111610097578063ae16733511610071578063ae16733514610353578063d505accf14610364578063dd62ed3e14610377578063f5298aca1461038a57600080fd5b806395d89b4114610325578063a457c2d71461032d578063a9059cbb1461034057600080fd5b806370a08231146102925780637535d246146102a557806378160376146102ca5780637d39d225146102ea5780637df5bd3b146102f25780637ecebe001461030557600080fd5b806330adf81f1161013057806330adf81f14610206578063313ce5671461022d5780633644e5151461023c5780633950935114610244578063485cc9551461025757806357be1a031461026a57600080fd5b8063010cad0f1461017857806306fdde031461019e578063095ea7b3146101b3578063156e29f6146101d657806318160ddd146101eb57806323b872dd146101f3575b600080fd5b61018b6101863660046118fe565b61039d565b6040519081526020015b60405180910390f35b6101a66103bf565b6040516101959190611961565b6101c66101c1366004611974565b610451565b6040519015158152602001610195565b6101e96101e43660046119a0565b610482565b005b61018b6105b0565b6101c66102013660046119d5565b61064a565b61018b7f6e71edae12b1b97f4d1f60370fef10105fa2faae0126114a169c64845d6126c981565b60405160128152602001610195565b60665461018b565b6101c6610252366004611974565b610699565b6101e9610265366004611a16565b6106da565b61027d6102783660046118fe565b610975565b60408051928352602083019190915201610195565b61018b6102a03660046118fe565b610999565b6067546001600160a01b03165b6040516001600160a01b039091168152602001610195565b6101a6604051806040016040528060018152602001603160f81b81525081565b61018b610a30565b6101e9610300366004611a4f565b610a40565b61018b6103133660046118fe565b60656020526000908152604090205481565b6101a6610b24565b6101c661033b366004611974565b610b33565b6101c661034e366004611974565b610bd9565b6068546001600160a01b03166102b2565b6101e9610372366004611a71565b610c48565b61018b610385366004611a16565b610ea2565b6101e96103983660046119a0565b610f0f565b60006103b96103b4836001600160a01b031661102a565b611071565b92915050565b6060603680546103ce90611ae8565b80601f01602080910402602001604051908101604052809291908181526020018280546103fa90611ae8565b80156104475780601f1061041c57610100808354040283529160200191610447565b820191906000526020600020905b81548152906001019060200180831161042a57829003601f168201915b5050505050905090565b6000336104786104608261102a565b610472866001600160a01b031661102a565b856110a9565b5060019392505050565b6067546040805180820190915260028152611c1960f11b6020820152906001600160a01b031633146104d05760405162461bcd60e51b81526004016104c79190611961565b60405180910390fd5b506104e3836001600160a01b031661102a565b925060006104f183836111cd565b604080518082019091526002815261383360f01b60208201529091508161052b5760405162461bcd60e51b81526004016104c79190611961565b5061053684826112ab565b6040518381526001600160a01b03851690600090600080516020611d208339815191529060200160405180910390a360408051848152602081018490526001600160a01b038616917f4c209b5fc8ad50758f13e2e1088ba56a560dff690a1c6fef26394f4c03821c4f91015b60405180910390a250505050565b6000806105bc60355490565b9050806000036105ce57600091505090565b606754604080516325b0985360e21b81529051610644926001600160a01b0316916396c2614c9160048083019260209291908290030181865afa158015610619573d6000803e3d6000fd5b505050506040513d601f19601f8201168201806040525081019061063d9190611b22565b829061133a565b91505090565b600061065e846001600160a01b031661102a565b935061067d84610677335b6001600160a01b031661102a565b846113fc565b61047884610693856001600160a01b031661102a565b84611476565b6000806106a533610669565b90506106b9846001600160a01b031661102a565b93506104788185856106cb8589610ea2565b6106d59190611b51565b6110a9565b600054610100900460ff16158080156106fa5750600054600160ff909116105b806107145750303b158015610714575060005460ff166001145b6107775760405162461bcd60e51b815260206004820152602e60248201527f496e697469616c697a61626c653a20636f6e747261637420697320616c72656160448201526d191e481a5b9a5d1a585b1a5e995960921b60648201526084016104c7565b6000805460ff19166001179055801561079a576000805461ff0019166101001790555b604080518082018252600b81526a14dd185ada5b99c811925360aa1b6020918201528151808301835260018152603160f81b9082015281517f8b73c3c69bb8fe3d512ecc4cf759cc79239f7b179b0ffacaa9a75d522b39400f918101919091527feab00673ea21c8bd0151aaabee3176532ba3d3d17a047172c104700a1e371e11918101919091527fc89efdaa54c0f20c7adf612882df0950f5a951637e0307cdcb4c672f298b8bc6606082015246608082018190523060a08301529060c00160408051601f1981840301815282825280516020918201206066558282018252600b83526a14dd185ada5b99c811925360aa1b83820152815180830190925260058252641cdd11925360da1b908201526108b4919061155c565b606780546001600160a01b0319166001600160a01b0386811691909117909155604080518082019091526002815261383560f01b602082015290841661090d5760405162461bcd60e51b81526004016104c79190611961565b5050606880546001600160a01b0319166001600160a01b0384161790558015610970576000805461ff0019169055604051600181527f7f26b83ff96e1f2b6a682f133852f6798a09c465da95921460cefb38474024989060200160405180910390a15b505050565b60008061098d6103b4846001600160a01b031661102a565b60355491509150915091565b60006103b9606760009054906101000a90046001600160a01b03166001600160a01b03166396c2614c6040518163ffffffff1660e01b8152600401602060405180830381865afa1580156109f1573d6000803e3d6000fd5b505050506040513d601f19601f82011682018060405250810190610a159190611b22565b610a2a6103b4856001600160a01b031661102a565b9061133a565b6000610a3b60355490565b905090565b6067546040805180820190915260028152611c1960f11b6020820152906001600160a01b03163314610a855760405162461bcd60e51b81526004016104c79190611961565b508115610b20576068546001600160a01b0316610aab81610aa685856111cd565b6112ab565b6040518381526001600160a01b03821690600090600080516020611d208339815191529060200160405180910390a360408051848152602081018490526001600160a01b038316917f4c209b5fc8ad50758f13e2e1088ba56a560dff690a1c6fef26394f4c03821c4f910160405180910390a2505b5050565b6060603780546103ce90611ae8565b600080610b3f33610669565b9050610b53846001600160a01b031661102a565b93506000610b618286610ea2565b905083811015610bc15760405162461bcd60e51b815260206004820152602560248201527f45524332303a2064656372656173656420616c6c6f77616e63652062656c6f77604482015264207a65726f60d81b60648201526084016104c7565b610bce82868684036110a9565b506001949350505050565b600080610be533610669565b9050610c0381610bfd866001600160a01b031661102a565b85611476565b836001600160a01b0316816001600160a01b0316600080516020611d2083398151915285604051610c3691815260200190565b60405180910390a35060019392505050565b610c5a876001600160a01b031661102a565b9650610c6e866001600160a01b031661102a565b95506001600160a01b038716610cb65760405162461bcd60e51b815260206004820152600d60248201526c24a72b20a624a22fa7aba722a960991b60448201526064016104c7565b83421115610cfb5760405162461bcd60e51b815260206004820152601260248201527124a72b20a624a22fa2ac2824a920aa24a7a760711b60448201526064016104c7565b6001600160a01b0387811660008181526065602090815260408083205460665482517f6e71edae12b1b97f4d1f60370fef10105fa2faae0126114a169c64845d6126c98186015280840196909652958c166060860152608085018b905260a0850181905260c08086018b90528251808703909101815260e086019092528151919092012061190160f01b610100850152610102840194909452610122830193909352906101420160408051601f1981840301815282825280516020918201206000845290830180835281905260ff8816918301919091526060820186905260808201859052915060019060a0016020604051602081039080840390855afa158015610e0a573d6000803e3d6000fd5b505050602060405103516001600160a01b0316896001600160a01b031614610e685760405162461bcd60e51b8152602060048201526011602482015270494e56414c49445f5349474e415455524560781b60448201526064016104c7565b610e73826001611b51565b6001600160a01b038a16600090815260656020526040902055610e978989896110a9565b505050505050505050565b600060346000610eba856001600160a01b031661102a565b6001600160a01b03166001600160a01b031681526020019081526020016000206000610eee846001600160a01b031661102a565b6001600160a01b031681526020810191909152604001600020549392505050565b6067546040805180820190915260028152611c1960f11b6020820152906001600160a01b03163314610f545760405162461bcd60e51b81526004016104c79190611961565b50610f67836001600160a01b031661102a565b92506000610f7583836111cd565b6040805180820190915260028152610e0d60f21b602082015290915081610faf5760405162461bcd60e51b81526004016104c79190611961565b50610fba848261158d565b6040518381526000906001600160a01b03861690600080516020611d208339815191529060200160405180910390a360408051848152602081018490526001600160a01b038616917f49995e5dd6158cf69ad3e9777c46755a1a826a446c6416992167462dad033b2a91016105a2565b600080600061103884611691565b915091508161104957509192915050565b600080611055836116ce565b9150915081611068575093949350505050565b95945050505050565b600060336000611089846001600160a01b031661102a565b6001600160a01b0316815260208101919091526040016000205492915050565b6001600160a01b03831661110b5760405162461bcd60e51b8152602060048201526024808201527f45524332303a20617070726f76652066726f6d20746865207a65726f206164646044820152637265737360e01b60648201526084016104c7565b6001600160a01b03821661116c5760405162461bcd60e51b815260206004820152602260248201527f45524332303a20617070726f766520746f20746865207a65726f206164647265604482015261737360f01b60648201526084016104c7565b6001600160a01b0383811660008181526034602090815260408083209487168084529482529182902085905590518481527f8c5be1e5ebec7d5bd14f71427d1e84f3dd0314c0f7b2291e5b200ac8c7c3b925910160405180910390a3505050565b604080518082019091526002815261373760f01b6020820152600090826112075760405162461bcd60e51b81526004016104c79190611961565b506000611215600284611b64565b90506b033b2e3c9fd0803ce800000061123082600019611b86565b61123a9190611b64565b84111560405180604001604052806002815260200161373560f01b815250906112765760405162461bcd60e51b81526004016104c79190611961565b50828161128f6b033b2e3c9fd0803ce800000087611b99565b6112999190611b51565b6112a39190611b64565b949350505050565b6001600160a01b0382166113015760405162461bcd60e51b815260206004820152601f60248201527f45524332303a206d696e7420746f20746865207a65726f20616464726573730060448201526064016104c7565b80603560008282546113139190611b51565b90915550506001600160a01b03821660009081526033602052604090208054820190555050565b6000821580611347575081155b15611354575060006103b9565b8161136c60026b033b2e3c9fd0803ce8000000611b64565b61137890600019611b86565b6113829190611b64565b83111560405180604001604052806002815260200161373560f01b815250906113be5760405162461bcd60e51b81526004016104c79190611961565b506b033b2e3c9fd0803ce80000006113d7600282611b64565b6113e18486611b99565b6113eb9190611b51565b6113f59190611b64565b9392505050565b60006114088484610ea2565b9050600019811461147057818110156114635760405162461bcd60e51b815260206004820152601d60248201527f45524332303a20696e73756666696369656e7420616c6c6f77616e636500000060448201526064016104c7565b61147084848484036110a9565b50505050565b606754604080516325b0985360e21b815290516001600160a01b039092169160009183916396c2614c916004808201926020929091908290030181865afa1580156114c5573d6000803e3d6000fd5b505050506040513d601f19601f820116820180604052508101906114e99190611b22565b90506114ff85856114fa86856111cd565b611738565b836001600160a01b0316856001600160a01b03167f4beccb90f994c31aced7a23b5611020728a23d8ec5cddd1a3e9d97b96fda8666858460405161154d929190918252602082015260400190565b60405180910390a35050505050565b600054610100900460ff166115835760405162461bcd60e51b81526004016104c790611bb0565b610b2082826118a6565b6001600160a01b0382166115ed5760405162461bcd60e51b815260206004820152602160248201527f45524332303a206275726e2066726f6d20746865207a65726f206164647265736044820152607360f81b60648201526084016104c7565b6001600160a01b038216600090815260336020526040902054818110156116615760405162461bcd60e51b815260206004820152602260248201527f45524332303a206275726e20616d6f756e7420657863656564732062616c616e604482015261636560f01b60648201526084016104c7565b6001600160a01b038316600090815260336020526040812083830390556035805484900390556109709084908483565b60008073ffffffffffffffffffffffff0000000000000000831660ff60981b81036116c8576001925067ffffffffffffffff841691505b50915091565b600080826000526016600a602060006002607f60991b015afa9150600051806001600160a01b031691508060a01c61ffff16905061040a81146117145760009250600091505b5081158061172357503d601614155b1561173357506000928392509050565b915091565b6001600160a01b03831661179c5760405162461bcd60e51b815260206004820152602560248201527f45524332303a207472616e736665722066726f6d20746865207a65726f206164604482015264647265737360d81b60648201526084016104c7565b6001600160a01b0382166117fe5760405162461bcd60e51b815260206004820152602360248201527f45524332303a207472616e7366657220746f20746865207a65726f206164647260448201526265737360e81b60648201526084016104c7565b6001600160a01b038316600090815260336020526040902054818110156118765760405162461bcd60e51b815260206004820152602660248201527f45524332303a207472616e7366657220616d6f756e7420657863656564732062604482015265616c616e636560d01b60648201526084016104c7565b6001600160a01b038085166000908152603360205260408082208585039055918516815220805483019055611470565b600054610100900460ff166118cd5760405162461bcd60e51b81526004016104c790611bb0565b60366118d98382611c5f565b5060376109708282611c5f565b6001600160a01b03811681146118fb57600080fd5b50565b60006020828403121561191057600080fd5b81356113f5816118e6565b6000815180845260005b8181101561194157602081850181015186830182015201611925565b506000602082860101526020601f19601f83011685010191505092915050565b6020815260006113f5602083018461191b565b6000806040838503121561198757600080fd5b8235611992816118e6565b946020939093013593505050565b6000806000606084860312156119b557600080fd5b83356119c0816118e6565b95602085013595506040909401359392505050565b6000806000606084860312156119ea57600080fd5b83356119f5816118e6565b92506020840135611a05816118e6565b929592945050506040919091013590565b60008060408385031215611a2957600080fd5b8235611a34816118e6565b91506020830135611a44816118e6565b809150509250929050565b60008060408385031215611a6257600080fd5b50508035926020909101359150565b600080600080600080600060e0888a031215611a8c57600080fd5b8735611a97816118e6565b96506020880135611aa7816118e6565b95506040880135945060608801359350608088013560ff81168114611acb57600080fd5b9699959850939692959460a0840135945060c09093013592915050565b600181811c90821680611afc57607f821691505b602082108103611b1c57634e487b7160e01b600052602260045260246000fd5b50919050565b600060208284031215611b3457600080fd5b5051919050565b634e487b7160e01b600052601160045260246000fd5b808201808211156103b9576103b9611b3b565b600082611b8157634e487b7160e01b600052601260045260246000fd5b500490565b818103818111156103b9576103b9611b3b565b80820281158282048414176103b9576103b9611b3b565b6020808252602b908201527f496e697469616c697a61626c653a20636f6e7472616374206973206e6f74206960408201526a6e697469616c697a696e6760a81b606082015260800190565b634e487b7160e01b600052604160045260246000fd5b601f82111561097057600081815260208120601f850160051c81016020861015611c385750805b601f850160051c820191505b81811015611c5757828155600101611c44565b505050505050565b815167ffffffffffffffff811115611c7957611c79611bfb565b611c8d81611c878454611ae8565b84611c11565b602080601f831160018114611cc25760008415611caa5750858301515b600019600386901b1c1916600185901b178555611c57565b600085815260208120601f198616915b82811015611cf157888601518255948401946001909101908401611cd2565b5085821015611d0f5787850151600019600388901b60f8161c191681555b5050505050600190811b0190555056feddf252ad1be2c89b69c2b068fc378daa952ba7f163c4a11628f55a4df523b3efa2646970667358221220ab2ad53d19063b8a79e9ab2bfb4a8a8b1025ebd8fd292f579ccdc368e357baa164736f6c63430008110033",
  "linkReferences": {},
  "deployedLinkReferences": {}
}