{
  "_format": "hh-sol-artifact-1",
  "contractName": "StorageProviderLendingPoolFactory",
  "sourceName": "contracts/protocol/lendingpool/splp/StorageProviderLendingPoolFactory.sol",
  "abi": [
    {
      "inputs": [],
      "stateMutability": "nonpayable",
      "type": "constructor"
    },
    {
      "anonymous": false,
      "inputs": [
        {
          "indexed": false,
          "internalType": "uint8",
          "name": "version",
          "type": "uint8"
        }
      ],
      "name": "Initialized",
      "type": "event"
    },
    {
      "anonymous": false,
      "inputs": [
        {
          "indexed": false,
          "internalType": "address",
          "name": "oldLogic",
          "type": "address"
        },
        {
          "indexed": false,
          "internalType": "address",
          "name": "newLogic",
          "type": "address"
        }
      ],
      "name": "LogicChanged",
      "type": "event"
    },
    {
      "anonymous": false,
      "inputs": [],
      "name": "Paused",
      "type": "event"
    },
    {
      "anonymous": false,
      "inputs": [
        {
          "indexed": false,
          "internalType": "address",
          "name": "poolAddress",
          "type": "address"
        },
        {
          "indexed": false,
          "internalType": "address",
          "name": "admin",
          "type": "address"
        }
      ],
      "name": "StorageProviderPoolCreated",
      "type": "event"
    },
    {
      "anonymous": false,
      "inputs": [],
      "name": "Unpaused",
      "type": "event"
    },
    {
      "inputs": [
        {
          "internalType": "address",
          "name": "poolAddress",
          "type": "address"
        }
      ],
      "name": "checkPool",
      "outputs": [],
      "stateMutability": "view",
      "type": "function"
    },
    {
      "inputs": [
        {
          "internalType": "address",
          "name": "admin",
          "type": "address"
        },
        {
          "internalType": "bool",
          "name": "onlyAcceptsNewNodes",
          "type": "bool"
        }
      ],
      "name": "createStorageProviderLendingPool",
      "outputs": [
        {
          "internalType": "address",
          "name": "",
          "type": "address"
        }
      ],
      "stateMutability": "nonpayable",
      "type": "function"
    },
    {
      "inputs": [],
      "name": "defaultMaxSealLoadLeverage",
      "outputs": [
        {
          "internalType": "uint256",
          "name": "",
          "type": "uint256"
        }
      ],
      "stateMutability": "view",
      "type": "function"
    },
    {
      "inputs": [],
      "name": "defaultMaxSealLoadLeverageOnlyAcceptsNewNodes",
      "outputs": [
        {
          "internalType": "uint256",
          "name": "",
          "type": "uint256"
        }
      ],
      "stateMutability": "view",
      "type": "function"
    },
    {
      "inputs": [],
      "name": "defaultMaxWithdrawLoadLeverage",
      "outputs": [
        {
          "internalType": "uint256",
          "name": "",
          "type": "uint256"
        }
      ],
      "stateMutability": "view",
      "type": "function"
    },
    {
      "inputs": [],
      "name": "defaultPause",
      "outputs": [
        {
          "internalType": "bool",
          "name": "",
          "type": "bool"
        }
      ],
      "stateMutability": "view",
      "type": "function"
    },
    {
      "inputs": [
        {
          "internalType": "uint256",
          "name": "index",
          "type": "uint256"
        }
      ],
      "name": "getPool",
      "outputs": [
        {
          "internalType": "address",
          "name": "",
          "type": "address"
        }
      ],
      "stateMutability": "view",
      "type": "function"
    },
    {
      "inputs": [],
      "name": "getPoolCount",
      "outputs": [
        {
          "internalType": "uint256",
          "name": "",
          "type": "uint256"
        }
      ],
      "stateMutability": "view",
      "type": "function"
    },
    {
      "inputs": [
        {
          "internalType": "address",
          "name": "poolAddress",
          "type": "address"
        }
      ],
      "name": "hasPool",
      "outputs": [
        {
          "internalType": "bool",
          "name": "",
          "type": "bool"
        }
      ],
      "stateMutability": "view",
      "type": "function"
    },
    {
      "inputs": [],
      "name": "implementation",
      "outputs": [
        {
          "internalType": "address",
          "name": "",
          "type": "address"
        }
      ],
      "stateMutability": "view",
      "type": "function"
    },
    {
      "inputs": [
        {
          "internalType": "address",
          "name": "provider_",
          "type": "address"
        },
        {
          "internalType": "address",
          "name": "logic_",
          "type": "address"
        },
        {
          "internalType": "uint256",
          "name": "defaultMaxSealedLeverage_",
          "type": "uint256"
        },
        {
          "internalType": "uint256",
          "name": "defaultMaxSealedLeverageOnlyAcceptsNewNodes_",
          "type": "uint256"
        },
        {
          "internalType": "uint256",
          "name": "defaultMaxwithdrawLoadLeverage_",
          "type": "uint256"
        },
        {
          "internalType": "bool",
          "name": "defaultPause_",
          "type": "bool"
        }
      ],
      "name": "initialize",
      "outputs": [],
      "stateMutability": "nonpayable",
      "type": "function"
    },
    {
      "inputs": [],
      "name": "paused",
      "outputs": [
        {
          "internalType": "bool",
          "name": "",
          "type": "bool"
        }
      ],
      "stateMutability": "view",
      "type": "function"
    },
    {
      "inputs": [
        {
          "internalType": "uint256",
          "name": "defaultMaxSealLoadLeverage_",
          "type": "uint256"
        }
      ],
      "name": "setDefaultMaxSealLoadLeverage",
      "outputs": [],
      "stateMutability": "nonpayable",
      "type": "function"
    },
    {
      "inputs": [
        {
          "internalType": "uint256",
          "name": "defaultMaxSealLoadLeverageOnlyAcceptsNewNodes_",
          "type": "uint256"
        }
      ],
      "name": "setDefaultMaxSealLoadLeverageOnlyAcceptsNewNodes",
      "outputs": [],
      "stateMutability": "nonpayable",
      "type": "function"
    },
    {
      "inputs": [
        {
          "internalType": "uint256",
          "name": "defaultMaxWithdrawLoadLeverage_",
          "type": "uint256"
        }
      ],
      "name": "setDefaultMaxWithdrawLoadLeverage",
      "outputs": [],
      "stateMutability": "nonpayable",
      "type": "function"
    },
    {
      "inputs": [
        {
          "internalType": "bool",
          "name": "val",
          "type": "bool"
        }
      ],
      "name": "setDefaultPause",
      "outputs": [],
      "stateMutability": "nonpayable",
      "type": "function"
    },
    {
      "inputs": [
        {
          "internalType": "bool",
          "name": "val",
          "type": "bool"
        }
      ],
      "name": "setPause",
      "outputs": [],
      "stateMutability": "nonpayable",
      "type": "function"
    },
    {
      "inputs": [
        {
          "internalType": "address",
          "name": "poolAddress",
          "type": "address"
        },
        {
          "internalType": "uint256",
          "name": "maxSealLoadLeverage_",
          "type": "uint256"
        },
        {
          "internalType": "uint256",
          "name": "maxWithdrawLoadLeverage_",
          "type": "uint256"
        }
      ],
      "name": "setPoolLeverage",
      "outputs": [],
      "stateMutability": "nonpayable",
      "type": "function"
    },
    {
      "inputs": [
        {
          "internalType": "address",
          "name": "poolAddress",
          "type": "address"
        },
        {
          "internalType": "bool",
          "name": "val",
          "type": "bool"
        }
      ],
      "name": "setPoolOnlyAcceptsNewNodes",
      "outputs": [],
      "stateMutability": "nonpayable",
      "type": "function"
    },
    {
      "inputs": [
        {
          "internalType": "address",
          "name": "poolAddress",
          "type": "address"
        },
        {
          "internalType": "bool",
          "name": "val",
          "type": "bool"
        }
      ],
      "name": "setPoolPause",
      "outputs": [],
      "stateMutability": "nonpayable",
      "type": "function"
    },
    {
      "inputs": [
        {
          "internalType": "address",
          "name": "implementation_",
          "type": "address"
        }
      ],
      "name": "upgrade",
      "outputs": [],
      "stateMutability": "nonpayable",
      "type": "function"
    }
  ],
  "bytecode": "0x608060405234801561001057600080fd5b5061001961001e565b6100de565b600054610100900460ff161561008a5760405162461bcd60e51b815260206004820152602760248201527f496e697469616c697a61626c653a20636f6e747261637420697320696e697469604482015266616c697a696e6760c81b606482015260840160405180910390fd5b60005460ff90811610156100dc576000805460ff191660ff9081179091556040519081527f7f26b83ff96e1f2b6a682f133852f6798a09c465da95921460cefb38474024989060200160405180910390a15b565b611e8c806100ed6000396000f3fe60806040523480156200001157600080fd5b5060043610620001515760003560e01c8063914a4ed711620000c7578063cd0909bf1162000086578063cd0909bf14620002a0578063cec9baa714620002b7578063defe225d14620002ce578063ec866f0014620002e5578063fc09c9b014620002fc578063fe8f7bc1146200031357600080fd5b8063914a4ed71462000247578063b0eac6fd146200025e578063b12660bb1462000275578063b1915fa7146200027f578063bedb86fb146200028957600080fd5b806330b9d2a7116200011457806330b9d2a714620001f057806351c055ae14620002075780635c60da1b14620002205780635c975abb146200022a5780638eec5d70146200023d57600080fd5b8063068bcd8d14620001565780630900f010146200018a57806310d7369114620001a35780631246dbf514620001ba57806325e408ae14620001e2575b600080fd5b6200016d6200016736600462000de3565b6200032a565b6040516001600160a01b0390911681526020015b60405180910390f35b620001a16200019b36600462000e13565b6200033f565b005b620001a1620001b436600462000e42565b62000465565b620001d1620001cb36600462000e13565b620004d1565b604051901515815260200162000181565b603654620001d19060ff1681565b620001a16200020136600462000e13565b620004e9565b6200021160385481565b60405190815260200162000181565b6200016d62000588565b600154600160a01b900460ff16620001d1565b62000211620005fe565b620001a16200025836600462000e80565b6200060c565b620001a16200026f36600462000e42565b6200074b565b6200021160375481565b6200021160395481565b620001a16200029a36600462000eee565b62000784565b620001a1620002b136600462000de3565b6200080f565b620001a1620002c836600462000f0e565b6200081e565b620001a1620002df36600462000de3565b62000887565b620001a1620002f636600462000de3565b62000896565b620001a16200030d36600462000eee565b620008a5565b6200016d6200032436600462000e42565b620008c2565b60006200033960028362000a3f565b92915050565b6200034962000a54565b60015460408051635c60da1b60e01b815290516000926001600160a01b031691635c60da1b9160048083019260209291908290030181865afa15801562000394573d6000803e3d6000fd5b505050506040513d601f19601f82011682018060405250810190620003ba919062000f46565b600154604051631b2ce7f360e11b81526001600160a01b038581166004830152929350911690633659cfe690602401600060405180830381600087803b1580156200040457600080fd5b505af115801562000419573d6000803e3d6000fd5b5050604080516001600160a01b038086168252861660208201527f48db25ec9d6eed629a3a8e00bd92c78d891718293886cffeb1cb95060a0a154f935001905060405180910390a15050565b6200046f62000b2b565b60405163053d711360e21b815281151560048201526001600160a01b038316906314f5c44c906024015b600060405180830381600087803b158015620004b457600080fd5b505af1158015620004c9573d6000803e3d6000fd5b505050505050565b60006200033960026001600160a01b03841662000c02565b60015460408051808201909152600381526231363560e81b602082015290600160a01b900460ff16156200053b5760405162461bcd60e51b815260040162000532919062000fae565b60405180910390fd5b506200054781620004d1565b60405180604001604052806003815260200162189b1b60e91b81525090620005845760405162461bcd60e51b815260040162000532919062000fae565b5050565b60015460408051635c60da1b60e01b815290516000926001600160a01b031691635c60da1b9160048083019260209291908290030181865afa158015620005d3573d6000803e3d6000fd5b505050506040513d601f19601f82011682018060405250810190620005f9919062000f46565b905090565b6000620005f9600262000c1b565b600054610100900460ff16158080156200062d5750600054600160ff909116105b80620006495750303b15801562000649575060005460ff166001145b620006ae5760405162461bcd60e51b815260206004820152602e60248201527f496e697469616c697a61626c653a20636f6e747261637420697320616c72656160448201526d191e481a5b9a5d1a585b1a5e995960921b606482015260840162000532565b6000805460ff191660011790558015620006d2576000805461ff0019166101001790555b620006de878762000c26565b6039859055603884905560378390556036805460ff1916831515179055801562000742576000805461ff0019169055604051600181527f7f26b83ff96e1f2b6a682f133852f6798a09c465da95921460cefb38474024989060200160405180910390a15b50505050505050565b6200075562000b2b565b60405163bedb86fb60e01b815281151560048201526001600160a01b0383169063bedb86fb9060240162000499565b6200078e62000b2b565b6001805460ff60a01b1916600160a01b8315158102919091179182905560ff91041615620007e2576040517f9e87fac88ff661f02d44f95383c817fece4bce600a3dab7a54406878b965e75290600090a150565b6040517fa45f47fdea8a1efdd9029a5691c7f759c32b7c698632b563573e155625d1693390600090a15b50565b6200081962000b2b565b603755565b6200082862000b2b565b60405163cb362f7960e01b815260048101839052602481018290526001600160a01b0384169063cb362f7990604401600060405180830381600087803b1580156200087257600080fd5b505af115801562000742573d6000803e3d6000fd5b6200089162000b2b565b603955565b620008a062000b2b565b603855565b620008af62000b2b565b6036805460ff1916911515919091179055565b60015460408051808201909152600381526231363560e81b6020820152600091600160a01b900460ff16156200090d5760405162461bcd60e51b815260040162000532919062000fae565b506001600160a01b03831662000921573392505b60395482156200093057506038545b600154600080546037546036546040516001600160a01b036201000090940484166024820152898416604482015260648101879052608481019290925287151560a483015260ff16151560c48201529192169060e40160408051601f198184030181529181526020820180516001600160e01b031663475e94e560e11b17905251620009bc9062000dc7565b620009c992919062000fc3565b604051809103906000f080158015620009e6573d6000803e3d6000fd5b509050620009f48162000c5c565b604080516001600160a01b038084168252871660208201527f0adbde6830f3a525d274c36fde68d95eaa751bbef0994ab2a0caca2cf89f072b910160405180910390a1949350505050565b600062000a4d838362000c72565b9392505050565b600054604051632474521560e21b81527f084e92e9e2f802d88635bef5ffac4d678ba2fa4281a885e40f08204864a3d0ae6004820152336024820152620100009091046001600160a01b0316906391d1485490604401602060405180830381865afa15801562000ac8573d6000803e3d6000fd5b505050506040513d601f19601f8201168201806040525081019062000aee919062000ff1565b6040518060400160405280600381526020016231303360e81b815250906200080c5760405162461bcd60e51b815260040162000532919062000fae565b600054604051632474521560e21b81527f12ad05bde78c5ab75238ce885307f96ecd482bb402ef831f99e7018a0f169b7b6004820152336024820152620100009091046001600160a01b0316906391d1485490604401602060405180830381865afa15801562000b9f573d6000803e3d6000fd5b505050506040513d601f19601f8201168201806040525081019062000bc5919062000ff1565b6040518060400160405280600381526020016203130360ec1b815250906200080c5760405162461bcd60e51b815260040162000532919062000fae565b6000818152600183016020526040812054151562000a4d565b600062000339825490565b600054610100900460ff1662000c505760405162461bcd60e51b8152600401620005329062001011565b62000584828262000c9f565b6200058460026001600160a01b03831662000d6a565b600082600001828154811062000c8c5762000c8c6200105c565b9060005260206000200154905092915050565b600054610100900460ff1662000cc95760405162461bcd60e51b8152600401620005329062001011565b6000805462010000600160b01b031916620100006001600160a01b03851602179055604051819062000cfb9062000dd5565b6001600160a01b039091168152602001604051809103906000f08015801562000d28573d6000803e3d6000fd5b50600180546001600160a01b0319166001600160a01b0392909216918217905560405163f2fde38b60e01b815230600482015263f2fde38b9060240162000499565b600081815260018301602052604081205462000a4d9084908490849062000dbe5750815460018181018455600084815260208082209093018490558454848252828601909352604090209190915562000339565b50600062000339565b610900806200107383390190565b6104e4806200197383390190565b60006020828403121562000df657600080fd5b5035919050565b6001600160a01b03811681146200080c57600080fd5b60006020828403121562000e2657600080fd5b813562000a4d8162000dfd565b80151581146200080c57600080fd5b6000806040838503121562000e5657600080fd5b823562000e638162000dfd565b9150602083013562000e758162000e33565b809150509250929050565b60008060008060008060c0878903121562000e9a57600080fd5b863562000ea78162000dfd565b9550602087013562000eb98162000dfd565b945060408701359350606087013592506080870135915060a087013562000ee08162000e33565b809150509295509295509295565b60006020828403121562000f0157600080fd5b813562000a4d8162000e33565b60008060006060848603121562000f2457600080fd5b833562000f318162000dfd565b95602085013595506040909401359392505050565b60006020828403121562000f5957600080fd5b815162000a4d8162000dfd565b6000815180845260005b8181101562000f8e5760208185018101518683018201520162000f70565b506000602082860101526020601f19601f83011685010191505092915050565b60208152600062000a4d602083018462000f66565b6001600160a01b038316815260406020820181905260009062000fe99083018462000f66565b949350505050565b6000602082840312156200100457600080fd5b815162000a4d8162000e33565b6020808252602b908201527f496e697469616c697a61626c653a20636f6e7472616374206973206e6f74206960408201526a6e697469616c697a696e6760a81b606082015260800190565b634e487b7160e01b600052603260045260246000fdfe60806040526040516109003803806109008339810160408190526100229161045b565b61002e82826000610035565b5050610585565b61003e83610100565b6040516001600160a01b038416907f1cf3b03a6cf19fa2baba4df148e9dcabedea7f8a5c07840e207e5c089be95d3e90600090a260008251118061007f5750805b156100fb576100f9836001600160a01b0316635c60da1b6040518163ffffffff1660e01b8152600401602060405180830381865afa1580156100c5573d6000803e3d6000fd5b505050506040513d601f19601f820116820180604052508101906100e9919061051b565b836102a360201b6100291760201c565b505b505050565b610113816102cf60201b6100551760201c565b6101725760405162461bcd60e51b815260206004820152602560248201527f455243313936373a206e657720626561636f6e206973206e6f74206120636f6e6044820152641d1c9858dd60da1b60648201526084015b60405180910390fd5b6101e6816001600160a01b0316635c60da1b6040518163ffffffff1660e01b8152600401602060405180830381865afa1580156101b3573d6000803e3d6000fd5b505050506040513d601f19601f820116820180604052508101906101d7919061051b565b6102cf60201b6100551760201c565b61024b5760405162461bcd60e51b815260206004820152603060248201527f455243313936373a20626561636f6e20696d706c656d656e746174696f6e206960448201526f1cc81b9bdd08184818dbdb9d1c9858dd60821b6064820152608401610169565b806102827fa3f0ad74e5423aebfd80d3ef4346578335a9a72aeaee59ff6cb3582b35133d5060001b6102de60201b6100641760201c565b80546001600160a01b0319166001600160a01b039290921691909117905550565b60606102c883836040518060600160405280602781526020016108d9602791396102e1565b9392505050565b6001600160a01b03163b151590565b90565b6060600080856001600160a01b0316856040516102fe9190610536565b600060405180830381855af49150503d8060008114610339576040519150601f19603f3d011682016040523d82523d6000602084013e61033e565b606091505b5090925090506103508683838761035a565b9695505050505050565b606083156103c95782516000036103c2576001600160a01b0385163b6103c25760405162461bcd60e51b815260206004820152601d60248201527f416464726573733a2063616c6c20746f206e6f6e2d636f6e74726163740000006044820152606401610169565b50816103d3565b6103d383836103db565b949350505050565b8151156103eb5781518083602001fd5b8060405162461bcd60e51b81526004016101699190610552565b80516001600160a01b038116811461041c57600080fd5b919050565b634e487b7160e01b600052604160045260246000fd5b60005b8381101561045257818101518382015260200161043a565b50506000910152565b6000806040838503121561046e57600080fd5b61047783610405565b60208401519092506001600160401b038082111561049457600080fd5b818501915085601f8301126104a857600080fd5b8151818111156104ba576104ba610421565b604051601f8201601f19908116603f011681019083821181831017156104e2576104e2610421565b816040528281528860208487010111156104fb57600080fd5b61050c836020830160208801610437565b80955050505050509250929050565b60006020828403121561052d57600080fd5b6102c882610405565b60008251610548818460208701610437565b9190910192915050565b6020815260008251806020840152610571816040850160208701610437565b601f01601f19169190910160400192915050565b610345806105946000396000f3fe60806040523661001357610011610017565b005b6100115b610027610022610067565b610100565b565b606061004e83836040518060600160405280602781526020016102e960279139610124565b9392505050565b6001600160a01b03163b151590565b90565b600061009a7fa3f0ad74e5423aebfd80d3ef4346578335a9a72aeaee59ff6cb3582b35133d50546001600160a01b031690565b6001600160a01b0316635c60da1b6040518163ffffffff1660e01b8152600401602060405180830381865afa1580156100d7573d6000803e3d6000fd5b505050506040513d601f19601f820116820180604052508101906100fb919061024c565b905090565b3660008037600080366000845af43d6000803e80801561011f573d6000f35b3d6000fd5b6060600080856001600160a01b0316856040516101419190610299565b600060405180830381855af49150503d806000811461017c576040519150601f19603f3d011682016040523d82523d6000602084013e610181565b606091505b50915091506101928683838761019c565b9695505050505050565b60608315610210578251600003610209576001600160a01b0385163b6102095760405162461bcd60e51b815260206004820152601d60248201527f416464726573733a2063616c6c20746f206e6f6e2d636f6e747261637400000060448201526064015b60405180910390fd5b508161021a565b61021a8383610222565b949350505050565b8151156102325781518083602001fd5b8060405162461bcd60e51b815260040161020091906102b5565b60006020828403121561025e57600080fd5b81516001600160a01b038116811461004e57600080fd5b60005b83811015610290578181015183820152602001610278565b50506000910152565b600082516102ab818460208701610275565b9190910192915050565b60208152600082518060208401526102d4816040850160208701610275565b601f01601f1916919091016040019291505056fe416464726573733a206c6f772d6c6576656c2064656c65676174652063616c6c206661696c6564a26469706673582212207c343f9d4c1a7213467591267d391fc8f2fa74b3403736d80eb16ddbdec8565064736f6c63430008110033416464726573733a206c6f772d6c6576656c2064656c65676174652063616c6c206661696c6564608060405234801561001057600080fd5b506040516104e43803806104e483398101604081905261002f91610151565b61003833610047565b61004181610097565b50610181565b600080546001600160a01b038381166001600160a01b0319831681178455604051919092169283917f8be0079c531659141344cd1fd0a4f28419497f9722a3daafe3b4186f6b6457e09190a35050565b6100aa8161014260201b6101a01760201c565b6101205760405162461bcd60e51b815260206004820152603360248201527f5570677261646561626c65426561636f6e3a20696d706c656d656e746174696f60448201527f6e206973206e6f74206120636f6e747261637400000000000000000000000000606482015260840160405180910390fd5b600180546001600160a01b0319166001600160a01b0392909216919091179055565b6001600160a01b03163b151590565b60006020828403121561016357600080fd5b81516001600160a01b038116811461017a57600080fd5b9392505050565b610354806101906000396000f3fe608060405234801561001057600080fd5b50600436106100575760003560e01c80633659cfe61461005c5780635c60da1b14610071578063715018a61461009a5780638da5cb5b146100a2578063f2fde38b146100b3575b600080fd5b61006f61006a3660046102ee565b6100c6565b005b6001546001600160a01b03165b6040516001600160a01b03909116815260200160405180910390f35b61006f61010e565b6000546001600160a01b031661007e565b61006f6100c13660046102ee565b610122565b6100ce6101af565b6100d781610209565b6040516001600160a01b038216907fbc7cd75a20ee27fd9adebab32041f755214dbc6bffa90cc0225b39da2e5c2d3b90600090a250565b6101166101af565b610120600061029e565b565b61012a6101af565b6001600160a01b0381166101945760405162461bcd60e51b815260206004820152602660248201527f4f776e61626c653a206e6577206f776e657220697320746865207a65726f206160448201526564647265737360d01b60648201526084015b60405180910390fd5b61019d8161029e565b50565b6001600160a01b03163b151590565b6000546001600160a01b031633146101205760405162461bcd60e51b815260206004820181905260248201527f4f776e61626c653a2063616c6c6572206973206e6f7420746865206f776e6572604482015260640161018b565b6001600160a01b0381163b61027c5760405162461bcd60e51b815260206004820152603360248201527f5570677261646561626c65426561636f6e3a20696d706c656d656e746174696f6044820152721b881a5cc81b9bdd08184818dbdb9d1c9858dd606a1b606482015260840161018b565b600180546001600160a01b0319166001600160a01b0392909216919091179055565b600080546001600160a01b038381166001600160a01b0319831681178455604051919092169283917f8be0079c531659141344cd1fd0a4f28419497f9722a3daafe3b4186f6b6457e09190a35050565b60006020828403121561030057600080fd5b81356001600160a01b038116811461031757600080fd5b939250505056fea2646970667358221220ba7ba8c18064895d9891d04d66a81f1a90b438abea856b7a92d19ed3eb3f1ab064736f6c63430008110033a26469706673582212204fb4de3e7c1d9b3db5630ff3e82b49ef90c0772bc07390e5ecaec5ebda50252364736f6c63430008110033",
  "linkReferences": {},
  "deployedLinkReferences": {}
}