{
  "_format": "hh-sol-artifact-1",
  "contractName": "StorageProviderLendingPool",
  "sourceName": "contracts/protocol/lendingpool/splp/StorageProviderLendingPool.sol",
  "abi": [
    {
      "inputs": [],
      "stateMutability": "nonpayable",
      "type": "constructor"
    },
    {
      "anonymous": false,
      "inputs": [
        {
          "indexed": true,
          "internalType": "uint64",
          "name": "actorId",
          "type": "uint64"
        }
      ],
      "name": "ConfirmWorkerAddressChanged",
      "type": "event"
    },
    {
      "anonymous": false,
      "inputs": [
        {
          "indexed": false,
          "internalType": "uint8",
          "name": "version",
          "type": "uint8"
        }
      ],
      "name": "Initialized",
      "type": "event"
    },
    {
      "anonymous": false,
      "inputs": [
        {
          "indexed": false,
          "internalType": "uint256",
          "name": "maxSealedBorrowLeverage",
          "type": "uint256"
        },
        {
          "indexed": false,
          "internalType": "uint256",
          "name": "maxWithdrawLoadLeverage",
          "type": "uint256"
        }
      ],
      "name": "LeverageChanged",
      "type": "event"
    },
    {
      "anonymous": false,
      "inputs": [
        {
          "indexed": true,
          "internalType": "address",
          "name": "user",
          "type": "address"
        },
        {
          "indexed": true,
          "internalType": "uint64",
          "name": "actorId",
          "type": "uint64"
        },
        {
          "indexed": false,
          "internalType": "uint256",
          "name": "safetyBuffer",
          "type": "uint256"
        },
        {
          "indexed": true,
          "internalType": "uint64",
          "name": "gActorId",
          "type": "uint64"
        },
        {
          "indexed": false,
          "internalType": "uint256",
          "name": "gSafetyBuffer",
          "type": "uint256"
        }
      ],
      "name": "Migrator",
      "type": "event"
    },
    {
      "anonymous": false,
      "inputs": [
        {
          "indexed": true,
          "internalType": "uint64",
          "name": "actorId",
          "type": "uint64"
        }
      ],
      "name": "NodeDelegate",
      "type": "event"
    },
    {
      "anonymous": false,
      "inputs": [
        {
          "indexed": true,
          "internalType": "address",
          "name": "currentOwner",
          "type": "address"
        },
        {
          "indexed": true,
          "internalType": "address",
          "name": "pendingOwner",
          "type": "address"
        }
      ],
      "name": "NodeOwnershipPending",
      "type": "event"
    },
    {
      "anonymous": false,
      "inputs": [
        {
          "indexed": true,
          "internalType": "address",
          "name": "previousOwner",
          "type": "address"
        },
        {
          "indexed": true,
          "internalType": "address",
          "name": "newOwner",
          "type": "address"
        }
      ],
      "name": "NodeOwnershipTransferred",
      "type": "event"
    },
    {
      "anonymous": false,
      "inputs": [
        {
          "indexed": true,
          "internalType": "uint64",
          "name": "actorId",
          "type": "uint64"
        },
        {
          "indexed": false,
          "internalType": "address",
          "name": "newOwner",
          "type": "address"
        }
      ],
      "name": "NodeUndelegate",
      "type": "event"
    },
    {
      "anonymous": false,
      "inputs": [
        {
          "indexed": false,
          "internalType": "bool",
          "name": "val",
          "type": "bool"
        }
      ],
      "name": "OnlyAcceptsNewNodes",
      "type": "event"
    },
    {
      "anonymous": false,
      "inputs": [
        {
          "indexed": true,
          "internalType": "address",
          "name": "previousOwner",
          "type": "address"
        },
        {
          "indexed": true,
          "internalType": "address",
          "name": "newOwner",
          "type": "address"
        }
      ],
      "name": "OwnershipTransferred",
      "type": "event"
    },
    {
      "anonymous": false,
      "inputs": [],
      "name": "Paused",
      "type": "event"
    },
    {
      "anonymous": false,
      "inputs": [
        {
          "indexed": true,
          "internalType": "address",
          "name": "user",
          "type": "address"
        },
        {
          "indexed": true,
          "internalType": "uint64",
          "name": "actorId",
          "type": "uint64"
        },
        {
          "indexed": false,
          "internalType": "uint256",
          "name": "amount",
          "type": "uint256"
        },
        {
          "indexed": false,
          "internalType": "uint256",
          "name": "rateMode",
          "type": "uint256"
        }
      ],
      "name": "Repay",
      "type": "event"
    },
    {
      "anonymous": false,
      "inputs": [
        {
          "indexed": true,
          "internalType": "address",
          "name": "user",
          "type": "address"
        },
        {
          "indexed": true,
          "internalType": "uint64",
          "name": "actorId",
          "type": "uint64"
        },
        {
          "indexed": false,
          "internalType": "uint256",
          "name": "amount",
          "type": "uint256"
        },
        {
          "indexed": false,
          "internalType": "uint256",
          "name": "rateMode",
          "type": "uint256"
        }
      ],
      "name": "SealLoan",
      "type": "event"
    },
    {
      "anonymous": false,
      "inputs": [],
      "name": "Unpaused",
      "type": "event"
    },
    {
      "anonymous": false,
      "inputs": [
        {
          "indexed": true,
          "internalType": "address",
          "name": "user",
          "type": "address"
        },
        {
          "indexed": true,
          "internalType": "uint64",
          "name": "actorId",
          "type": "uint64"
        },
        {
          "indexed": false,
          "internalType": "address",
          "name": "onBehalfOf",
          "type": "address"
        },
        {
          "indexed": false,
          "internalType": "uint256",
          "name": "amount",
          "type": "uint256"
        },
        {
          "indexed": false,
          "internalType": "uint256",
          "name": "rateMode",
          "type": "uint256"
        }
      ],
      "name": "WithdrawLoan",
      "type": "event"
    },
    {
      "anonymous": false,
      "inputs": [
        {
          "indexed": true,
          "internalType": "address",
          "name": "user",
          "type": "address"
        },
        {
          "indexed": true,
          "internalType": "uint64",
          "name": "actorId",
          "type": "uint64"
        },
        {
          "indexed": true,
          "internalType": "address",
          "name": "to",
          "type": "address"
        },
        {
          "indexed": false,
          "internalType": "uint256",
          "name": "amount",
          "type": "uint256"
        }
      ],
      "name": "WithdrawProfits",
      "type": "event"
    },
    {
      "anonymous": false,
      "inputs": [
        {
          "indexed": true,
          "internalType": "uint64",
          "name": "actorId",
          "type": "uint64"
        },
        {
          "indexed": false,
          "internalType": "uint64",
          "name": "newWorker",
          "type": "uint64"
        },
        {
          "indexed": false,
          "internalType": "uint64[]",
          "name": "newControlAddresses",
          "type": "uint64[]"
        }
      ],
      "name": "WorkerAddressChanged",
      "type": "event"
    },
    {
      "inputs": [],
      "name": "LENDING_POOL_TYPE",
      "outputs": [
        {
          "internalType": "uint256",
          "name": "",
          "type": "uint256"
        }
      ],
      "stateMutability": "view",
      "type": "function"
    },
    {
      "inputs": [],
      "name": "MAX_NODE_COUNT",
      "outputs": [
        {
          "internalType": "uint256",
          "name": "",
          "type": "uint256"
        }
      ],
      "stateMutability": "view",
      "type": "function"
    },
    {
      "inputs": [],
      "name": "MIN_LOAD_AMOUNT",
      "outputs": [
        {
          "internalType": "uint256",
          "name": "",
          "type": "uint256"
        }
      ],
      "stateMutability": "view",
      "type": "function"
    },
    {
      "inputs": [
        {
          "internalType": "uint64",
          "name": "actorId",
          "type": "uint64"
        }
      ],
      "name": "acceptNodeOwnership",
      "outputs": [],
      "stateMutability": "nonpayable",
      "type": "function"
    },
    {
      "inputs": [
        {
          "internalType": "uint64",
          "name": "actorId",
          "type": "uint64"
        }
      ],
      "name": "availableBalance",
      "outputs": [
        {
          "internalType": "uint256",
          "name": "",
          "type": "uint256"
        }
      ],
      "stateMutability": "nonpayable",
      "type": "function"
    },
    {
      "inputs": [
        {
          "internalType": "uint256",
          "name": "maxSealLeverage_",
          "type": "uint256"
        },
        {
          "internalType": "uint256",
          "name": "maxWithdrawLoadLeverage_",
          "type": "uint256"
        }
      ],
      "name": "changeLeverage",
      "outputs": [],
      "stateMutability": "nonpayable",
      "type": "function"
    },
    {
      "inputs": [
        {
          "internalType": "uint64",
          "name": "actorId",
          "type": "uint64"
        },
        {
          "internalType": "uint64",
          "name": "newWorker",
          "type": "uint64"
        },
        {
          "internalType": "uint64[]",
          "name": "newControlAddresses",
          "type": "uint64[]"
        }
      ],
      "name": "changeWorkerAddress",
      "outputs": [],
      "stateMutability": "nonpayable",
      "type": "function"
    },
    {
      "inputs": [
        {
          "internalType": "uint64",
          "name": "actorId",
          "type": "uint64"
        }
      ],
      "name": "classifyDebt",
      "outputs": [
        {
          "internalType": "uint256",
          "name": "",
          "type": "uint256"
        },
        {
          "internalType": "uint256",
          "name": "",
          "type": "uint256"
        }
      ],
      "stateMutability": "view",
      "type": "function"
    },
    {
      "inputs": [
        {
          "internalType": "uint64",
          "name": "actorId",
          "type": "uint64"
        }
      ],
      "name": "confirmChangeWorkerAddress",
      "outputs": [],
      "stateMutability": "nonpayable",
      "type": "function"
    },
    {
      "inputs": [
        {
          "internalType": "uint64",
          "name": "actorId",
          "type": "uint64"
        }
      ],
      "name": "debt",
      "outputs": [
        {
          "internalType": "uint256",
          "name": "",
          "type": "uint256"
        }
      ],
      "stateMutability": "view",
      "type": "function"
    },
    {
      "inputs": [
        {
          "internalType": "uint64",
          "name": "actorId",
          "type": "uint64"
        }
      ],
      "name": "delegate",
      "outputs": [],
      "stateMutability": "nonpayable",
      "type": "function"
    },
    {
      "inputs": [
        {
          "internalType": "uint64",
          "name": "actorId",
          "type": "uint64"
        }
      ],
      "name": "entity",
      "outputs": [
        {
          "internalType": "uint256",
          "name": "",
          "type": "uint256"
        }
      ],
      "stateMutability": "view",
      "type": "function"
    },
    {
      "inputs": [],
      "name": "factoryProxyKey",
      "outputs": [
        {
          "internalType": "bytes32",
          "name": "",
          "type": "bytes32"
        }
      ],
      "stateMutability": "pure",
      "type": "function"
    },
    {
      "inputs": [
        {
          "internalType": "uint64",
          "name": "actorId",
          "type": "uint64"
        }
      ],
      "name": "fixedPosition",
      "outputs": [
        {
          "internalType": "uint256",
          "name": "",
          "type": "uint256"
        }
      ],
      "stateMutability": "nonpayable",
      "type": "function"
    },
    {
      "inputs": [
        {
          "internalType": "address",
          "name": "addressesProvider_",
          "type": "address"
        },
        {
          "internalType": "address",
          "name": "admin_",
          "type": "address"
        },
        {
          "internalType": "uint256",
          "name": "maxSealLoadLeverage_",
          "type": "uint256"
        },
        {
          "internalType": "uint256",
          "name": "maxWithdrawLoadLeverage_",
          "type": "uint256"
        },
        {
          "internalType": "bool",
          "name": "onlyAcceptsNewNodes_",
          "type": "bool"
        },
        {
          "internalType": "bool",
          "name": "defaultPause_",
          "type": "bool"
        }
      ],
      "name": "initialize",
      "outputs": [],
      "stateMutability": "nonpayable",
      "type": "function"
    },
    {
      "inputs": [
        {
          "internalType": "uint64",
          "name": "actorId",
          "type": "uint64"
        }
      ],
      "name": "isDelegated",
      "outputs": [
        {
          "internalType": "bool",
          "name": "",
          "type": "bool"
        }
      ],
      "stateMutability": "view",
      "type": "function"
    },
    {
      "inputs": [],
      "name": "liquidationThreshold",
      "outputs": [
        {
          "internalType": "uint256",
          "name": "",
          "type": "uint256"
        }
      ],
      "stateMutability": "view",
      "type": "function"
    },
    {
      "inputs": [],
      "name": "maxDebtRatio",
      "outputs": [
        {
          "internalType": "uint256",
          "name": "",
          "type": "uint256"
        }
      ],
      "stateMutability": "view",
      "type": "function"
    },
    {
      "inputs": [],
      "name": "maxLeverage",
      "outputs": [
        {
          "internalType": "uint256",
          "name": "",
          "type": "uint256"
        }
      ],
      "stateMutability": "view",
      "type": "function"
    },
    {
      "inputs": [],
      "name": "maxNodeCount",
      "outputs": [
        {
          "internalType": "uint256",
          "name": "",
          "type": "uint256"
        }
      ],
      "stateMutability": "view",
      "type": "function"
    },
    {
      "inputs": [],
      "name": "maxSealLoadLeverage",
      "outputs": [
        {
          "internalType": "uint256",
          "name": "",
          "type": "uint256"
        }
      ],
      "stateMutability": "view",
      "type": "function"
    },
    {
      "inputs": [],
      "name": "maxSealedLoadAmount",
      "outputs": [
        {
          "internalType": "uint256",
          "name": "",
          "type": "uint256"
        }
      ],
      "stateMutability": "view",
      "type": "function"
    },
    {
      "inputs": [],
      "name": "maxWithdrawLoadLeverage",
      "outputs": [
        {
          "internalType": "uint256",
          "name": "",
          "type": "uint256"
        }
      ],
      "stateMutability": "view",
      "type": "function"
    },
    {
      "inputs": [
        {
          "internalType": "uint64",
          "name": "actorId",
          "type": "uint64"
        }
      ],
      "name": "maxWithdrawLoanAmount",
      "outputs": [
        {
          "internalType": "uint256",
          "name": "",
          "type": "uint256"
        }
      ],
      "stateMutability": "view",
      "type": "function"
    },
    {
      "inputs": [
        {
          "internalType": "uint64",
          "name": "migratorActorId",
          "type": "uint64"
        }
      ],
      "name": "migrator",
      "outputs": [],
      "stateMutability": "nonpayable",
      "type": "function"
    },
    {
      "inputs": [
        {
          "internalType": "uint256",
          "name": "index",
          "type": "uint256"
        }
      ],
      "name": "node",
      "outputs": [
        {
          "internalType": "uint64",
          "name": "",
          "type": "uint64"
        }
      ],
      "stateMutability": "view",
      "type": "function"
    },
    {
      "inputs": [],
      "name": "nodeCount",
      "outputs": [
        {
          "internalType": "uint256",
          "name": "",
          "type": "uint256"
        }
      ],
      "stateMutability": "view",
      "type": "function"
    },
    {
      "inputs": [
        {
          "internalType": "uint64",
          "name": "actorId",
          "type": "uint64"
        }
      ],
      "name": "nodeOwner",
      "outputs": [
        {
          "internalType": "address",
          "name": "",
          "type": "address"
        }
      ],
      "stateMutability": "view",
      "type": "function"
    },
    {
      "inputs": [
        {
          "internalType": "uint64",
          "name": "actorId",
          "type": "uint64"
        }
      ],
      "name": "nodePendingOwner",
      "outputs": [
        {
          "internalType": "address",
          "name": "",
          "type": "address"
        }
      ],
      "stateMutability": "view",
      "type": "function"
    },
    {
      "inputs": [
        {
          "internalType": "uint64",
          "name": "",
          "type": "uint64"
        }
      ],
      "name": "nodesSafetyBuffer",
      "outputs": [
        {
          "internalType": "uint256",
          "name": "",
          "type": "uint256"
        }
      ],
      "stateMutability": "view",
      "type": "function"
    },
    {
      "inputs": [],
      "name": "onlyAcceptsNewNodes",
      "outputs": [
        {
          "internalType": "bool",
          "name": "",
          "type": "bool"
        }
      ],
      "stateMutability": "view",
      "type": "function"
    },
    {
      "inputs": [],
      "name": "owner",
      "outputs": [
        {
          "internalType": "address",
          "name": "",
          "type": "address"
        }
      ],
      "stateMutability": "view",
      "type": "function"
    },
    {
      "inputs": [],
      "name": "paused",
      "outputs": [
        {
          "internalType": "bool",
          "name": "",
          "type": "bool"
        }
      ],
      "stateMutability": "view",
      "type": "function"
    },
    {
      "inputs": [],
      "name": "poolType",
      "outputs": [
        {
          "internalType": "uint256",
          "name": "",
          "type": "uint256"
        }
      ],
      "stateMutability": "view",
      "type": "function"
    },
    {
      "inputs": [
        {
          "internalType": "uint64",
          "name": "actorId",
          "type": "uint64"
        }
      ],
      "name": "position",
      "outputs": [
        {
          "internalType": "uint256",
          "name": "",
          "type": "uint256"
        }
      ],
      "stateMutability": "view",
      "type": "function"
    },
    {
      "inputs": [],
      "name": "renounceOwnership",
      "outputs": [],
      "stateMutability": "nonpayable",
      "type": "function"
    },
    {
      "inputs": [
        {
          "internalType": "uint64",
          "name": "actorId",
          "type": "uint64"
        },
        {
          "internalType": "uint256",
          "name": "amount",
          "type": "uint256"
        },
        {
          "internalType": "uint256",
          "name": "rateMode",
          "type": "uint256"
        }
      ],
      "name": "repay",
      "outputs": [
        {
          "internalType": "uint256",
          "name": "",
          "type": "uint256"
        }
      ],
      "stateMutability": "nonpayable",
      "type": "function"
    },
    {
      "inputs": [
        {
          "internalType": "uint64",
          "name": "actorId",
          "type": "uint64"
        },
        {
          "internalType": "uint256",
          "name": "amount",
          "type": "uint256"
        },
        {
          "internalType": "uint256",
          "name": "rateMode",
          "type": "uint256"
        }
      ],
      "name": "sealLoan",
      "outputs": [],
      "stateMutability": "nonpayable",
      "type": "function"
    },
    {
      "inputs": [
        {
          "internalType": "bool",
          "name": "val",
          "type": "bool"
        }
      ],
      "name": "setOnlyAcceptsNewNodes",
      "outputs": [],
      "stateMutability": "nonpayable",
      "type": "function"
    },
    {
      "inputs": [
        {
          "internalType": "bool",
          "name": "val",
          "type": "bool"
        }
      ],
      "name": "setPause",
      "outputs": [],
      "stateMutability": "nonpayable",
      "type": "function"
    },
    {
      "inputs": [],
      "name": "totalAvailableBalance",
      "outputs": [
        {
          "internalType": "uint256",
          "name": "",
          "type": "uint256"
        }
      ],
      "stateMutability": "nonpayable",
      "type": "function"
    },
    {
      "inputs": [],
      "name": "totalClassifyDebt",
      "outputs": [
        {
          "internalType": "uint256",
          "name": "",
          "type": "uint256"
        },
        {
          "internalType": "uint256",
          "name": "",
          "type": "uint256"
        }
      ],
      "stateMutability": "view",
      "type": "function"
    },
    {
      "inputs": [],
      "name": "totalDebt",
      "outputs": [
        {
          "internalType": "uint256",
          "name": "",
          "type": "uint256"
        }
      ],
      "stateMutability": "view",
      "type": "function"
    },
    {
      "inputs": [],
      "name": "totalEntity",
      "outputs": [
        {
          "internalType": "uint256",
          "name": "",
          "type": "uint256"
        }
      ],
      "stateMutability": "view",
      "type": "function"
    },
    {
      "inputs": [],
      "name": "totalPosition",
      "outputs": [
        {
          "internalType": "uint256",
          "name": "",
          "type": "uint256"
        }
      ],
      "stateMutability": "view",
      "type": "function"
    },
    {
      "inputs": [
        {
          "internalType": "uint64",
          "name": "actorId",
          "type": "uint64"
        },
        {
          "internalType": "address",
          "name": "newOwner",
          "type": "address"
        }
      ],
      "name": "transferNodeOwnership",
      "outputs": [],
      "stateMutability": "nonpayable",
      "type": "function"
    },
    {
      "inputs": [
        {
          "internalType": "address",
          "name": "newOwner",
          "type": "address"
        }
      ],
      "name": "transferOwnership",
      "outputs": [],
      "stateMutability": "nonpayable",
      "type": "function"
    },
    {
      "inputs": [
        {
          "internalType": "uint64",
          "name": "actorId",
          "type": "uint64"
        }
      ],
      "name": "undelegate",
      "outputs": [],
      "stateMutability": "nonpayable",
      "type": "function"
    },
    {
      "inputs": [
        {
          "internalType": "uint64",
          "name": "",
          "type": "uint64"
        }
      ],
      "name": "withdrawLoadAmount",
      "outputs": [
        {
          "internalType": "uint256",
          "name": "",
          "type": "uint256"
        }
      ],
      "stateMutability": "view",
      "type": "function"
    },
    {
      "inputs": [],
      "name": "withdrawLoadTotalAmount",
      "outputs": [
        {
          "internalType": "uint256",
          "name": "",
          "type": "uint256"
        }
      ],
      "stateMutability": "view",
      "type": "function"
    },
    {
      "inputs": [
        {
          "internalType": "uint64",
          "name": "actorId",
          "type": "uint64"
        },
        {
          "internalType": "uint256",
          "name": "amount",
          "type": "uint256"
        },
        {
          "internalType": "uint256",
          "name": "rateMode",
          "type": "uint256"
        }
      ],
      "name": "withdrawLoan",
      "outputs": [],
      "stateMutability": "nonpayable",
      "type": "function"
    },
    {
      "inputs": [
        {
          "internalType": "uint64",
          "name": "actorId",
          "type": "uint64"
        },
        {
          "internalType": "uint256",
          "name": "amount",
          "type": "uint256"
        }
      ],
      "name": "withdrawProfits",
      "outputs": [
        {
          "internalType": "uint256",
          "name": "",
          "type": "uint256"
        }
      ],
      "stateMutability": "nonpayable",
      "type": "function"
    },
    {
      "stateMutability": "payable",
      "type": "receive"
    }
  ],
  "bytecode": "0x6080604052606a805460ff1990811690915560a7805490911690553480156200002757600080fd5b506200003262000038565b620000fa565b600054610100900460ff1615620000a55760405162461bcd60e51b815260206004820152602760248201527f496e697469616c697a61626c653a20636f6e747261637420697320696e697469604482015266616c697a696e6760c81b606482015260840160405180910390fd5b60005460ff9081161015620000f8576000805460ff191660ff9081179091556040519081527f7f26b83ff96e1f2b6a682f133852f6798a09c465da95921460cefb38474024989060200160405180910390a15b565b614938806200010a6000396000f3fe6080604052600436106103035760003560e01c80638ebd29ca11610190578063c1895bb7116100dc578063f2fde38b11610095578063f7c1aaad1161006f578063f7c1aaad14610948578063f9f0430d14610968578063fc7b9c1814610984578063fe4d30f41461099957600080fd5b8063f2fde38b146108d5578063f36c5cd3146108f5578063f5ad38c31461092857600080fd5b8063c1895bb714610834578063c54fe31b14610854578063c96056b71461086a578063cb362f791461088a578063cb40d82e146108aa578063cb70bd79146108c057600080fd5b8063b1dd61b611610149578063b562e0ba11610123578063b562e0ba146107aa578063b83352f2146107ca578063bedb86fb146107ea578063c02fd1791461080a57600080fd5b8063b1dd61b614610755578063b31cdcca1461076a578063b3ffa51d1461078a57600080fd5b80638ebd29ca146106b157806390fa136b146106d157806395234099146106f1578063a591740d14610706578063ae3302c214610720578063afd78aa21461073557600080fd5b80635271f97b1161024f578063715018a6116102085780637e46d688116101e25780637e46d6881461063e57806384994fec1461065357806386aacad4146106735780638da5cb5b1461069357600080fd5b8063715018a6146105ff578063776a7c941461061457806379f74e9e1461062957600080fd5b80635271f97b146105445780635c975abb146105645780635e988128146105885780635ea575cf146105b55780636da49b83146105d55780636fe31113146105ea57600080fd5b8063215786df116102bc57806334ef39761161029657806334ef3976146104cd5780634031234c146104e257806343e1bb05146104f75780634a67d5ee1461052457600080fd5b8063215786df14610436578063220e44d51461045657806324a63b761461048e57600080fd5b8063078d738b1461035657806308a0c0b8146103765780630c3f883f146103b35780630e127c7c146103d357806314f5c44c1461040157806317fbe3541461042157600080fd5b366103515760a75460408051808201909152600381526218981b60e91b60208201529060ff1661034f5760405162461bcd60e51b81526004016103469190613f00565b60405180910390fd5b005b600080fd5b34801561036257600080fd5b5061034f610371366004613f28565b6109af565b34801561038257600080fd5b50610396610391366004613f5d565b610c52565b6040516001600160a01b0390911681526020015b60405180910390f35b3480156103bf57600080fd5b5061034f6103ce366004613f5d565b610c76565b3480156103df57600080fd5b506103f36103ee366004613f5d565b610d65565b6040519081526020016103aa565b34801561040d57600080fd5b5061034f61041c366004613f88565b610e7a565b34801561042d57600080fd5b506103f3610ecf565b34801561044257600080fd5b5061034f610451366004613fba565b610f16565b34801561046257600080fd5b50610476610471366004613ff3565b61101b565b6040516001600160401b0390911681526020016103aa565b34801561049a57600080fd5b506103966104a9366004613f5d565b6001600160401b0316600090815260a660205260409020546001600160a01b031690565b3480156104d957600080fd5b506103f3611028565b3480156104ee57600080fd5b506103f3611047565b34801561050357600080fd5b506103f3610512366004613f5d565b60686020526000908152604090205481565b34801561053057600080fd5b506103f361053f366004613f28565b611069565b34801561055057600080fd5b506103f361055f366004613f5d565b6114f1565b34801561057057600080fd5b50606c5460ff165b60405190151581526020016103aa565b34801561059457600080fd5b506103f36105a3366004613f5d565b60696020526000908152604090205481565b3480156105c157600080fd5b5061034f6105d0366004613f28565b611580565b3480156105e157600080fd5b506103f3611852565b3480156105f657600080fd5b506103f3600181565b34801561060b57600080fd5b5061034f61185e565b34801561062057600080fd5b506103f3611872565b34801561063557600080fd5b506103f361188f565b34801561064a57600080fd5b506103f3601481565b34801561065f57600080fd5b5061034f61066e366004613f5d565b6118a4565b34801561067f57600080fd5b506103f361068e366004613f5d565b611cce565b34801561069f57600080fd5b506033546001600160a01b0316610396565b3480156106bd57600080fd5b5061034f6106cc36600461400c565b611d55565b3480156106dd57600080fd5b506103f36106ec36600461407c565b611eaa565b3480156106fd57600080fd5b506103f36120f4565b34801561071257600080fd5b50606a546105789060ff1681565b34801561072c57600080fd5b506103f3612135565b34801561074157600080fd5b5061034f610750366004613f5d565b612142565b34801561076157600080fd5b50606b546103f3565b34801561077657600080fd5b506103f3610785366004613f5d565b61244e565b34801561079657600080fd5b506103f36107a5366004613f5d565b61246b565b3480156107b657600080fd5b506103f36107c5366004613f5d565b612479565b3480156107d657600080fd5b5061034f6107e5366004613f5d565b6124f8565b3480156107f657600080fd5b5061034f610805366004613f88565b612613565b34801561081657600080fd5b5061081f61268d565b604080519283526020830191909152016103aa565b34801561084057600080fd5b5061034f61084f366004613f5d565b6126f0565b34801561086057600080fd5b506103f360655481565b34801561087657600080fd5b5061081f610885366004613f5d565b6127e1565b34801561089657600080fd5b5061034f6108a53660046140a8565b6129ea565b3480156108b657600080fd5b506103f360675481565b3480156108cc57600080fd5b5060a2546103f3565b3480156108e157600080fd5b5061034f6108f03660046140ca565b612a39565b34801561090157600080fd5b507f4433510c5fe8a204dbbeb52ddb7f7185ce7695225552a5c3fdf283b74dce83116103f3565b34801561093457600080fd5b5061034f610943366004614177565b612aaf565b34801561095457600080fd5b50610578610963366004613f5d565b612baf565b34801561097457600080fd5b506103f3678ac7230489e8000081565b34801561099057600080fd5b506103f3612bc5565b3480156109a557600080fd5b506103f360665481565b6109b7612c04565b826109c181612c43565b6109ca84612baf565b6040518060400160405280600381526020016231313360e81b81525090610a045760405162461bcd60e51b81526004016103469190613f00565b5060408051808201909152600381526231363160e81b6020820152678ac7230489e80000841015610a485760405162461bcd60e51b81526004016103469190613f00565b50610a6284610a55610ecf565b610a5d612bc5565b612cc5565b8311156040518060400160405280600381526020016231353560e81b81525090610a9f5760405162461bcd60e51b81526004016103469190613f00565b50606d5460405163b6ecd87f60e01b81526001600160401b03861660048201526001600160a01b03909116906359c196359073__$1ad300758d5653977a9ccd13d476b8df05$__9063b6ecd87f90602401602060405180830381865af4158015610b0d573d6000803e3d6000fd5b505050506040513d601f19601f82011682018060405250810190610b31919061424f565b610b3a87610c52565b6040516001600160e01b031960e085901b1681526001600160a01b039283166004820152911660248201526044810186905260648101859052608401600060405180830381600087803b158015610b9057600080fd5b505af1158015610ba4573d6000803e3d6000fd5b505050506001600160401b03841660009081526068602052604081208054859290610bd0908490614282565b925050819055508260676000828254610be99190614282565b90915550506001600160401b038416337f818eab6ab7795a6b1efbb70b35e24489f3f9dc8951cb0c64eac01167c3d90f0f610c2387610c52565b604080516001600160a01b0390921682526020820188905281018690526060015b60405180910390a350505050565b6001600160401b0316600090815260a560205260409020546001600160a01b031690565b610c7f81612baf565b6040518060400160405280600381526020016231313360e81b81525090610cb95760405162461bcd60e51b81526004016103469190613f00565b50610cc381612de7565b604051630c3f883f60e01b81526001600160401b038216600482015273__$45156fbe0910779f328ac46109d7460e63$__90630c3f883f9060240160006040518083038186803b158015610d1657600080fd5b505af4158015610d2a573d6000803e3d6000fd5b50506040516001600160401b03841692507f735096551bb3c649d5e910add8f4ef86a575f15b1b12d30db301f9759a79a76c9150600090a250565b60405163c3a5be4b60e01b81526001600160401b038216600482015260009073__$45156fbe0910779f328ac46109d7460e63$__9063c3a5be4b90602401602060405180830381865af4158015610dc0573d6000803e3d6000fd5b505050506040513d601f19601f82011682018060405250810190610de49190614295565b60405163b6ecd87f60e01b81526001600160401b038416600482015273__$1ad300758d5653977a9ccd13d476b8df05$__9063b6ecd87f90602401602060405180830381865af4158015610e3c573d6000803e3d6000fd5b505050506040513d601f19601f82011682018060405250810190610e60919061424f565b6001600160a01b031631610e7491906142ae565b92915050565b610e82612f06565b606a805460ff191682151590811790915560405160ff909116151581527fa9bcb106e545024efebd34fec9ab6d5f86c6cd967f685906c6ae5b6468c79ac09060200160405180910390a150565b60008060005b610edf60a3612fe1565b811015610f1057610ef261055f8261101b565b610efc9083614282565b915080610f08816142c1565b915050610ed5565b50919050565b610f1f82612baf565b6040518060400160405280600381526020016231313360e81b81525090610f595760405162461bcd60e51b81526004016103469190613f00565b5033610f6483610c52565b6001600160a01b0316146040518060400160405280600381526020016218989960e91b81525090610fa85760405162461bcd60e51b81526004016103469190613f00565b506001600160401b038216600090815260a5602090815260408083205460a690925280832080546001600160a01b0319166001600160a01b038681169182179092559151921692909183917f50d28057e8e8929ce66989b50f2f5d3d742f17feaa548b5078ce8bc58fb675a891a3505050565b6000610e7460a383612feb565b6000611042611035610ecf565b61103d612bc5565b612ff7565b905090565b6000611042611064611057610ecf565b61105f612bc5565b613099565b613129565b600080611074610ecf565b90506000611080612bc5565b9050600061108e828461315d565b905061109d6110648484613099565b81116110ac576110ac87612c43565b6110b587612baf565b6040518060400160405280600381526020016231313360e81b815250906110ef5760405162461bcd60e51b81526004016103469190613f00565b5060408051808201909152600381526231353160e81b6020820152866111285760405162461bcd60e51b81526004016103469190613f00565b50600080611135896127e1565b91509150600087600281111561114d5761114d6142da565b90506000831180156111705750600181600281111561116e5761116e6142da565b145b80611197575060008211801561119757506002816002811115611195576111956142da565b145b6040518060400160405280600381526020016231353760e81b815250906111d15760405162461bcd60e51b81526004016103469190613f00565b50600060018260028111156111e8576111e86142da565b146111f357826111f5565b835b9050808a10156112025750885b600061120d8c612479565b90506000811160405180604001604052806003815260200162189a9960e91b8152509061124d5760405162461bcd60e51b81526004016103469190613f00565b508181101561125a578091505b606d546001600160a01b031663ac69d2c36112758e85613190565b8e6001600160401b031673__$1ad300758d5653977a9ccd13d476b8df05$__63b6ecd87f90916040518263ffffffff1660e01b81526004016112c691906001600160401b0391909116815260200190565b602060405180830381865af41580156112e3573d6000803e3d6000fd5b505050506040513d601f19601f82011682018060405250810190611307919061424f565b6040516001600160e01b031960e085901b1681526001600160a01b039091166004820152602481018e90526044016000604051808303818588803b15801561134e57600080fd5b505af1158015611362573d6000803e3d6000fd5b505050506001600160401b038d16600090815260686020526040812054909150831161138e57826113a8565b6001600160401b038d166000908152606860205260409020545b6001600160401b038e166000908152606860205260408120805492935083929091906113d59084906142ae565b9250508190555080606760008282546113ee91906142ae565b909155506113fd90508d61244e565b600003611422576001600160401b038d16600090815260696020526040812055611498565b61142c81846142ae565b6001600160401b038e166000908152606960205260409020541161145157600061147e565b61145b81846142ae565b6001600160401b038e1660009081526069602052604090205461147e91906142ae565b6001600160401b038e166000908152606960205260409020555b60408051848152602081018d90526001600160401b038f169133917f5729ab7d64cb1d9f9897870caff89967d5e4ff71ede0a0c9760e3a25ef60d7f2910160405180910390a350909750505050505050505b9392505050565b60405163b6ecd87f60e01b81526001600160401b038216600482015260009073__$1ad300758d5653977a9ccd13d476b8df05$__9063b6ecd87f90602401602060405180830381865af415801561154c573d6000803e3d6000fd5b505050506040513d601f19601f82011682018060405250810190611570919061424f565b6001600160a01b03163192915050565b611588612c04565b8261159281612c43565b61159b84612baf565b6040518060400160405280600381526020016231313360e81b815250906115d55760405162461bcd60e51b81526004016103469190613f00565b5060408051808201909152600381526231363160e81b6020820152678ac7230489e800008410156116195760405162461bcd60e51b81526004016103469190613f00565b50611625611035610ecf565b831115604051806040016040528060038152602001620c4d4d60ea1b815250906116625760405162461bcd60e51b81526004016103469190613f00565b5061166d8484613237565b6001600160401b0385166000818152606960205260409081902092909255606d54915163b6ecd87f60e01b815260048101919091526001600160a01b03909116906359c196359073__$1ad300758d5653977a9ccd13d476b8df05$__9063b6ecd87f90602401602060405180830381865af41580156116f0573d6000803e3d6000fd5b505050506040513d601f19601f82011682018060405250810190611714919061424f565b60405163b6ecd87f60e01b81526001600160401b038816600482015273__$1ad300758d5653977a9ccd13d476b8df05$__9063b6ecd87f90602401602060405180830381865af415801561176c573d6000803e3d6000fd5b505050506040513d601f19601f82011682018060405250810190611790919061424f565b6040516001600160e01b031960e085901b1681526001600160a01b039283166004820152911660248201526044810186905260648101859052608401600060405180830381600087803b1580156117e657600080fd5b505af11580156117fa573d6000803e3d6000fd5b50505050836001600160401b031661180f3390565b6001600160a01b03167f51a072a3298717d91f5be5f4b3740cae39bfe2cc5b56811dc73dc80b565c6ade8585604051610c44929190918252602082015260400190565b600061104260a3612fe1565b61186661328d565b61187060006132e7565b565b600061104261187f610ecf565b60675461188a612bc5565b613339565b600061104261189f611057610ecf565b61335e565b6118ad81612baf565b15604051806040016040528060038152602001620c4c4d60ea1b815250906118e85760405162461bcd60e51b81526004016103469190613f00565b506118f281613376565b60405163d370a37d60e01b81526001600160401b038216600482015260009073__$45156fbe0910779f328ac46109d7460e63$__9063d370a37d90602401600060405180830381865af415801561194d573d6000803e3d6000fd5b505050506040513d6000823e601f3d908101601f1916820160405261197591908101906143b7565b60208181015160408051600081528084018083528151812084518051960195909520606083018452600382526231313560e81b9290930191909152939450909291036119d45760405162461bcd60e51b81526004016103469190613f00565b506119de816133d1565b6001600160401b03166119ef61344c565b6001600160401b0316146040518060400160405280600381526020016231313560e81b81525090611a335760405162461bcd60e51b81526004016103469190613f00565b50604051630d75769960e01b81526001600160401b038416600482015260009073__$45156fbe0910779f328ac46109d7460e63$__90630d75769990602401600060405180830381865af4158015611a8f573d6000803e3d6000fd5b505050506040513d6000823e601f3d908101601f19168201604052611ab79190810190614579565b805151909150611ac6906133d1565b6001600160401b0316611adc84600001516133d1565b6001600160401b0316146040518060400160405280600381526020016218989b60e91b81525090611b205760405162461bcd60e51b81526004016103469190613f00565b5060a254611b2e60a3612fe1565b106040518060400160405280600381526020016231363760e81b81525090611b695760405162461bcd60e51b81526004016103469190613f00565b50611b7e60a36001600160401b038616613457565b604051806040016040528060038152602001620626c760eb1b81525090611bb85760405162461bcd60e51b81526004016103469190613f00565b50611c54611bc984600001516133d1565b60405163b6ecd87f60e01b81526001600160401b03909116600482015273__$1ad300758d5653977a9ccd13d476b8df05$__9063b6ecd87f90602401602060405180830381865af4158015611c22573d6000803e3d6000fd5b505050506040513d601f19601f82011682018060405250810190611c46919061424f565b6001600160a01b0316613463565b6001600160401b038516600090815260a56020526040902080546001600160a01b0319166001600160a01b0392909216919091179055611c9484306134a1565b6040516001600160401b038516907fa4ef0f1a5411533ffeec94743db97dffff4a5174b8c2bfd9c67a5bb33a8eb25090600090a250505050565b600080611cda836114f1565b90506000611ce78461244e565b6001600160401b0385166000908152606860205260409020549091508190611d0f9084614282565b11611d1e575060009392505050565b6001600160401b0384166000908152606860205260409020548190611d439084614282565b611d4d91906142ae565b949350505050565b600054610100900460ff1615808015611d755750600054600160ff909116105b80611d8f5750303b158015611d8f575060005460ff166001145b611df25760405162461bcd60e51b815260206004820152602e60248201527f496e697469616c697a61626c653a20636f6e747261637420697320616c72656160448201526d191e481a5b9a5d1a585b1a5e995960921b6064820152608401610346565b6000805460ff191660011790558015611e15576000805461ff0019166101001790555b611e206001886135a2565b611e2a60146135db565b611e3386612a39565b60658590556066849055606a805460ff1990811685151517909155606c80549091168315151790558015611ea1576000805461ff0019169055604051600181527f7f26b83ff96e1f2b6a682f133852f6798a09c465da95921460cefb38474024989060200160405180910390a15b50505050505050565b6000611eb4612c04565b82611ebe81612c43565b611ec784612baf565b6040518060400160405280600381526020016231313360e81b81525090611f015760405162461bcd60e51b81526004016103469190613f00565b5060408051808201909152600381526231353160e81b602082015283611f3a5760405162461bcd60e51b81526004016103469190613f00565b506000611f46856114f1565b9050600081116040518060400160405280600381526020016203136360ec1b81525090611f865760405162461bcd60e51b81526004016103469190613f00565b5080841115611f93578093505b6001600160401b038516600090815260696020526040902054611fb685836142ae565b101560405180604001604052806003815260200162189a9b60e91b81525090611ff25760405162461bcd60e51b81526004016103469190613f00565b506000611ffd610ecf565b90506000612009612bc5565b905061202b8161201988856142ae565b61202661189f8686613099565b61360b565b60006120378888613190565b9050600081116040518060400160405280600381526020016231353360e81b815250906120775760405162461bcd60e51b81526004016103469190613f00565b5061208a61208489610c52565b82613652565b61209388610c52565b6001600160a01b03166001600160401b038916336001600160a01b03167f682ae30c1ba529702817c96d965dc75c4934157803ebc3979cd6c135759840dd846040516120e191815260200190565b60405180910390a4979650505050505050565b60008060005b61210460a3612fe1565b811015610f10576121176107c58261101b565b6121219083614282565b91508061212d816142c1565b9150506120fa565b6000611042611057610ecf565b606a5460ff16156121b15760405162461bcd60e51b815260206004820152603360248201527f4572726f72733a206f6e6c79416363657074734e65774e6f64657320706f6f6c6044820152720818d85b9b9bdd081899481b5a59dc985d1959606a1b6064820152608401610346565b606d54604051630d381b4960e21b81526001600160401b03831660048201523360248201526000918291829182916001600160a01b03909116906334e06d24906044016080604051808303816000875af1158015612213573d6000803e3d6000fd5b505050506040513d601f19601f8201168201806040525081019061223791906146ba565b935093509350935060a25461224c60a3612fe1565b106040518060400160405280600381526020016231363760e81b815250906122875760405162461bcd60e51b81526004016103469190613f00565b5061229c60a36001600160401b038616613457565b604051806040016040528060038152602001620626c760eb1b815250906122d65760405162461bcd60e51b81526004016103469190613f00565b506001600160401b038416600090815260a56020908152604080832080546001600160a01b031916331790556069909152902083905561231684306134a1565b6001600160401b038216156123fc5760a25461233260a3612fe1565b106040518060400160405280600381526020016231363760e81b8152509061236d5760405162461bcd60e51b81526004016103469190613f00565b5061238260a36001600160401b038416613457565b604051806040016040528060038152602001620626c760eb1b815250906123bc5760405162461bcd60e51b81526004016103469190613f00565b506001600160401b038216600090815260a56020908152604080832080546001600160a01b03191633179055606990915290208190556123fc82306134a1565b60408051848152602081018390526001600160401b03808516929087169133917f29484b8da61f901dd8084716f42a913a6a45eb97656ac05e7c160d4410b24390910160405180910390a45050505050565b600080600061245c846127e1565b9092509050611d4d8183614282565b6000610e7482610a55610ecf565b60405163c3a5be4b60e01b81526001600160401b038216600482015260009073__$45156fbe0910779f328ac46109d7460e63$__9063c3a5be4b90602401602060405180830381865af41580156124d4573d6000803e3d6000fd5b505050506040513d601f19601f82011682018060405250810190610e749190614295565b61250181612baf565b6040518060400160405280600381526020016231313360e81b8152509061253b5760405162461bcd60e51b81526004016103469190613f00565b506001600160401b038116600090815260a66020908152604091829020548251808401909352600383526231313160e81b918301919091526001600160a01b0316331461259b5760405162461bcd60e51b81526004016103469190613f00565b506001600160401b038116600090815260a5602090815260408083208054336001600160a01b0319808316821790935560a6909452828520805490921690915590516001600160a01b039091169283917fc193e22af818729adab09aa6977235c0d75259c7c3cd60f0e31a832efdd1bea29190a35050565b61261b612f06565b606c805460ff191682151590811790915560ff1615612660576040517f9e87fac88ff661f02d44f95383c817fece4bce600a3dab7a54406878b965e75290600090a150565b6040517fa45f47fdea8a1efdd9029a5691c7f759c32b7c698632b563573e155625d1693390600090a15b50565b60008060008060005b61269e611852565b8110156126e6576000806126b46108858461101b565b90925090506126c38286614282565b94506126cf8185614282565b9350505080806126de906142c1565b915050612696565b5090939092509050565b6126f981612baf565b6040518060400160405280600381526020016231313360e81b815250906127335760405162461bcd60e51b81526004016103469190613f00565b5061273d8161371d565b6001600160401b038116600090815260a5602052604090205461276a9082906001600160a01b03166134a1565b61277e60a36001600160401b0383166137b9565b61278757600080fd5b6001600160401b038116600081815260a560209081526040918290205491516001600160a01b0390921682527fe5186290b77afaf8f485239a2161371b31b49d477d795b0a1026cc6a2e016730910160405180910390a250565b606e5460405163b6ecd87f60e01b81526001600160401b0383166004820152600091829182916001600160a01b0316906370a082319073__$1ad300758d5653977a9ccd13d476b8df05$__9063b6ecd87f90602401602060405180830381865af4158015612853573d6000803e3d6000fd5b505050506040513d601f19601f82011682018060405250810190612877919061424f565b6040516001600160e01b031960e084901b1681526001600160a01b039091166004820152602401602060405180830381865afa1580156128bb573d6000803e3d6000fd5b505050506040513d601f19601f820116820180604052508101906128df9190614295565b606f5460405163b6ecd87f60e01b81526001600160401b03871660048201529192506000916001600160a01b03909116906370a082319073__$1ad300758d5653977a9ccd13d476b8df05$__9063b6ecd87f90602401602060405180830381865af4158015612952573d6000803e3d6000fd5b505050506040513d601f19601f82011682018060405250810190612976919061424f565b6040516001600160e01b031960e084901b1681526001600160a01b039091166004820152602401602060405180830381865afa1580156129ba573d6000803e3d6000fd5b505050506040513d601f19601f820116820180604052508101906129de9190614295565b91959194509092505050565b6129f2612f06565b6065829055606681905560408051838152602081018390527f259a58656a5a02c7f9603b34624fdaba712e519d51f11b4b7726b1bcbc60add3910160405180910390a15050565b612a4161328d565b6001600160a01b038116612aa65760405162461bcd60e51b815260206004820152602660248201527f4f776e61626c653a206e6577206f776e657220697320746865207a65726f206160448201526564647265737360d01b6064820152608401610346565b61268a816132e7565b612ab883612baf565b6040518060400160405280600381526020016231313360e81b81525090612af25760405162461bcd60e51b81526004016103469190613f00565b50612afc83612de7565b60405163f5ad38c360e01b815273__$45156fbe0910779f328ac46109d7460e63$__9063f5ad38c390612b3790869086908690600401614703565b60006040518083038186803b158015612b4f57600080fd5b505af4158015612b63573d6000803e3d6000fd5b50505050826001600160401b03167f5057a85426367bd987f9ffaf50053129628a5d00833d694dd607dcaf45bde4378383604051612ba2929190614767565b60405180910390a2505050565b6000610e7460a36001600160401b0384166137c5565b60008060005b612bd3611852565b811015610f1057612be66107858261101b565b612bf09083614282565b915080612bfc816142c1565b915050612bcb565b606c54604080518082019091526003815262189b1960e91b60208201529060ff161561268a5760405162461bcd60e51b81526004016103469190613f00565b612c6d816001600160401b0316600090815260a560205260409020546001600160a01b0316331490565b80612c875750612c876033546001600160a01b0316331490565b6040518060400160405280600381526020016218989960e91b81525090612cc15760405162461bcd60e51b81526004016103469190613f00565b5050565b600080612cf0670de0b6b3a7640000606654612ce191906142ae565b612cea87611cce565b906137dd565b6001600160401b0386166000908152606860205260409020549091508111612d1c5760009150506114ea565b6001600160401b038516600090815260686020526040902054612d3f90826142ae565b90506000612d6f670de0b6b3a7640000606554612d5c91906142ae565b606754612d6990876142ae565b90613891565b90506000612d808660675487613339565b9050818111612d9557600093505050506114ea565b6000612dba670de0b6b3a7640000606654612db091906142ae565b612cea85856142ae565b905060675481612dca91906142ae565b9050838110612dd95783612ddb565b805b98975050505050505050565b6000612df1610ecf565b90506000612dfd612bc5565b90506000612e0b828461315d565b9050612e1a6110648484613099565b8111612e2e57612e2984612c43565b612f00565b606c54604051632474521560e21b81527f12ad05bde78c5ab75238ce885307f96ecd482bb402ef831f99e7018a0f169b7b60048201523360248201526101009091046001600160a01b0316906391d1485490604401602060405180830381865afa158015612ea0573d6000803e3d6000fd5b505050506040513d601f19601f82011682018060405250810190612ec491906147c2565b6040518060400160405280600381526020016218989960e91b81525090612efe5760405162461bcd60e51b81526004016103469190613f00565b505b50505050565b33606c546040516375673bcf60e01b81527f4433510c5fe8a204dbbeb52ddb7f7185ce7695225552a5c3fdf283b74dce831160048201526001600160a01b0392831692610100909204909116906375673bcf90602401602060405180830381865afa158015612f79573d6000803e3d6000fd5b505050506040513d601f19601f82011682018060405250810190612f9d919061424f565b6001600160a01b0316146040518060400160405280600381526020016231303560e81b8152509061268a5760405162461bcd60e51b81526004016103469190613f00565b6000610e74825490565b60006114ea8383613961565b60008061301c670de0b6b3a764000060665461301391906142ae565b60675490613891565b9050600061302d8560675486613339565b905081811161304157600092505050610e74565b600061305c670de0b6b3a7640000606554612db091906142ae565b905060006067548661306e91906142ae565b9050808211613084576000945050505050610e74565b61308e81836142ae565b979650505050505050565b6000806130a98460675485613339565b9050806000036130bd575050606554610e74565b60006130dc82612d69670de0b6b3a764000060665461301391906142ae565b9050670de0b6b3a764000081106130f95760665492505050610e74565b61311360665460655461310c91906142ae565b82906137dd565b60655461312091906142ae565b95945050505050565b6000610e746131416005670de0b6b3a76400006147df565b61314b90846142ae565b612d69670de0b6b3a7640000856142ae565b60008260000361316f57506000610e74565b816000036131865750670de0b6b3a7640000610e74565b6114ea8383613891565b60a7805460ff191660011790556040516338792dd360e01b81526001600160401b038316600482015260248101829052600090819073__$45156fbe0910779f328ac46109d7460e63$__906338792dd390604401602060405180830381865af4158015613201573d6000803e3d6000fd5b505050506040513d601f19601f820116820180604052508101906132259190614295565b60a7805460ff19169055949350505050565b6000808261324485610d65565b61324e9190614282565b6001600160401b03851660009081526069602052604081205491925090613276908590614282565b90508082116132855780613120565b509392505050565b6033546001600160a01b031633146118705760405162461bcd60e51b815260206004820181905260248201527f4f776e61626c653a2063616c6c6572206973206e6f7420746865206f776e65726044820152606401610346565b603380546001600160a01b038381166001600160a01b0319831681179093556040519116919082907f8be0079c531659141344cd1fd0a4f28419497f9722a3daafe3b4186f6b6457e090600090a35050565b6000816133468486614282565b11613353575060006114ea565b81611d438486614282565b6000610e7482612d69670de0b6b3a7640000826142ae565b606a5460ff1615806133975750670de0b6b3a7640000613395826114f1565b105b6040518060400160405280600381526020016231363360e81b81525090612cc15760405162461bcd60e51b81526004016103469190613f00565b8051604051631b97aa9960e01b815260009173__$3f246194bcb90480c435eefe74e797f61b$__91631b97aa999161340b91600401613f00565b602060405180830381865af4158015613428573d6000803e3d6000fd5b505050506040513d601f19601f82011682018060405250810190610e749190614801565b60006110423061398b565b60006114ea83836139ce565b600080600061347184613a1d565b915091508161348257509192915050565b60008061348e83613a59565b9150915081613120575093949350505050565b73__$45156fbe0910779f328ac46109d7460e63$__633e0bea3e8373__$9edc9a5e7e7a3e3b4f6856d6ba809bb80d$__63a7d520266134df8661398b565b6040516001600160e01b031960e084901b1681526001600160401b039091166004820152602401600060405180830381865af4158015613523573d6000803e3d6000fd5b505050506040513d6000823e601f3d908101601f1916820160405261354b919081019061481e565b516040516001600160e01b031960e085901b16815261356e929190600401614852565b60006040518083038186803b15801561358657600080fd5b505af415801561359a573d6000803e3d6000fd5b505050505050565b600054610100900460ff166135c95760405162461bcd60e51b815260040161034690614874565b6135d38282613ac3565b612cc1613cf0565b600054610100900460ff166136025760405162461bcd60e51b815260040161034690614874565b61268a81613d1f565b80613616848461315d565b11156040518060400160405280600381526020016231353960e81b81525090612f005760405162461bcd60e51b81526004016103469190613f00565b604051633b8f8dbf60e21b81526001600160a01b038316600482015273__$f5e69dac38b21cc722b58e97cab5160cf2$__90636f7ee35e9073__$3f246194bcb90480c435eefe74e797f61b$__9063ee3e36fc90602401602060405180830381865af41580156136c6573d6000803e3d6000fd5b505050506040513d601f19601f820116820180604052508101906136ea9190614801565b6040516001600160e01b031960e084901b1681526001600160401b0390911660048201526024810184905260440161356e565b8061372781612c43565b61373082613d4b565b600061373a612bc5565b905080156137b457600061374c610ecf565b90506000613759856114f1565b9050808211604051806040016040528060038152602001620c4d8d60ea1b815250906137985760405162461bcd60e51b81526004016103469190613f00565b50612efe836137a783856142ae565b61202661189f8688613099565b505050565b60006114ea8383613d8d565b600081815260018301602052604081205415156114ea565b60008215806137ea575081155b156137f757506000610e74565b8161380b6002670de0b6b3a76400006147df565b613817906000196142ae565b61382191906147df565b8311156040518060400160405280600381526020016206260760eb1b8152509061385e5760405162461bcd60e51b81526004016103469190613f00565b50670de0b6b3a76400006138736002826147df565b61387d84866148bf565b6138879190614282565b6114ea91906147df565b60408051808201909152600381526231303960e81b6020820152600090826138cc5760405162461bcd60e51b81526004016103469190613f00565b5060006138da6002846147df565b9050670de0b6b3a76400006138f1826000196142ae565b6138fb91906147df565b8411156040518060400160405280600381526020016206260760eb1b815250906139385760405162461bcd60e51b81526004016103469190613f00565b50828161394d670de0b6b3a7640000876148bf565b6139579190614282565b611d4d91906147df565b6000826000018281548110613978576139786148d6565b9060005260206000200154905092915050565b604051633b8f8dbf60e21b81526001600160a01b038216600482015260009073__$3f246194bcb90480c435eefe74e797f61b$__9063ee3e36fc9060240161340b565b6000818152600183016020526040812054613a1557508154600181810184556000848152602080822090930184905584548482528286019093526040902091909155610e74565b506000610e74565b60008073ffffffffffffffffffffffff0000000000000000831660ff60981b8103613a5357600192506001600160401b03841691505b50915091565b600080826000526016600a602060006002607f60991b015afa9150600051806001600160a01b031691508060a01c61ffff16905061040a8114613a9f5760009250600091505b50811580613aae57503d601614155b15613abe57506000928392509050565b915091565b600054610100900460ff16613aea5760405162461bcd60e51b815260040161034690614874565b606b829055606c8054610100600160a81b0319166101006001600160a01b038416908102919091179091556040516375673bcf60e01b81527f08d1f44dcaff773a7a8b50a8f7f313fc6b1b340ee8cef4d33a10e9357b4f1c1760048201526375673bcf90602401602060405180830381865afa158015613b6e573d6000803e3d6000fd5b505050506040513d601f19601f82011682018060405250810190613b92919061424f565b606d80546001600160a01b0319166001600160a01b039283161790556040516375673bcf60e01b81527fc14c27b5e6078082e0904d5dd4d7f55c06fab5fcea4c23e75dfd7e0a2ad67ad06004820152908216906375673bcf90602401602060405180830381865afa158015613c0b573d6000803e3d6000fd5b505050506040513d601f19601f82011682018060405250810190613c2f919061424f565b606e80546001600160a01b0319166001600160a01b039283161790556040516375673bcf60e01b81527f58e7226e2c40de014ff441b32e56ca063cb94e2aa82ae7c0e0cfd2dfa7c1c6ae6004820152908216906375673bcf90602401602060405180830381865afa158015613ca8573d6000803e3d6000fd5b505050506040513d601f19601f82011682018060405250810190613ccc919061424f565b606f80546001600160a01b0319166001600160a01b03929092169190911790555050565b600054610100900460ff16613d175760405162461bcd60e51b815260040161034690614874565b611870613e80565b600054610100900460ff16613d465760405162461bcd60e51b815260040161034690614874565b60a255565b613d548161244e565b6040805180820190915260038152620626a760eb1b60208201529015612cc15760405162461bcd60e51b81526004016103469190613f00565b60008181526001830160205260408120548015613e76576000613db16001836142ae565b8554909150600090613dc5906001906142ae565b9050818114613e2a576000866000018281548110613de557613de56148d6565b9060005260206000200154905080876000018481548110613e0857613e086148d6565b6000918252602080832090910192909255918252600188019052604090208390555b8554869080613e3b57613e3b6148ec565b600190038181906000526020600020016000905590558560010160008681526020019081526020016000206000905560019350505050610e74565b6000915050610e74565b600054610100900460ff16613ea75760405162461bcd60e51b815260040161034690614874565b611870336132e7565b60005b83811015613ecb578181015183820152602001613eb3565b50506000910152565b60008151808452613eec816020860160208601613eb0565b601f01601f19169290920160200192915050565b6020815260006114ea6020830184613ed4565b6001600160401b038116811461268a57600080fd5b600080600060608486031215613f3d57600080fd5b8335613f4881613f13565b95602085013595506040909401359392505050565b600060208284031215613f6f57600080fd5b81356114ea81613f13565b801515811461268a57600080fd5b600060208284031215613f9a57600080fd5b81356114ea81613f7a565b6001600160a01b038116811461268a57600080fd5b60008060408385031215613fcd57600080fd5b8235613fd881613f13565b91506020830135613fe881613fa5565b809150509250929050565b60006020828403121561400557600080fd5b5035919050565b60008060008060008060c0878903121561402557600080fd5b863561403081613fa5565b9550602087013561404081613fa5565b94506040870135935060608701359250608087013561405e81613f7a565b915060a087013561406e81613f7a565b809150509295509295509295565b6000806040838503121561408f57600080fd5b823561409a81613f13565b946020939093013593505050565b600080604083850312156140bb57600080fd5b50508035926020909101359150565b6000602082840312156140dc57600080fd5b81356114ea81613fa5565b634e487b7160e01b600052604160045260246000fd5b604080519081016001600160401b038111828210171561411f5761411f6140e7565b60405290565b604051606081016001600160401b038111828210171561411f5761411f6140e7565b604051601f8201601f191681016001600160401b038111828210171561416f5761416f6140e7565b604052919050565b60008060006060848603121561418c57600080fd5b833561419781613f13565b92506020848101356141a881613f13565b925060408501356001600160401b03808211156141c457600080fd5b818701915087601f8301126141d857600080fd5b8135818111156141ea576141ea6140e7565b8060051b91506141fb848301614147565b818152918301840191848101908a84111561421557600080fd5b938501935b8385101561423f578435925061422f83613f13565b828252938501939085019061421a565b8096505050505050509250925092565b60006020828403121561426157600080fd5b81516114ea81613fa5565b634e487b7160e01b600052601160045260246000fd5b80820180821115610e7457610e7461426c565b6000602082840312156142a757600080fd5b5051919050565b81810381811115610e7457610e7461426c565b6000600182016142d3576142d361426c565b5060010190565b634e487b7160e01b600052602160045260246000fd5b600082601f83011261430157600080fd5b81516001600160401b0381111561431a5761431a6140e7565b61432d601f8201601f1916602001614147565b81815284602083860101111561434257600080fd5b611d4d826020830160208701613eb0565b60006020828403121561436557600080fd5b604051602081016001600160401b038282108183111715614388576143886140e7565b8160405282935084519150808211156143a057600080fd5b506143ad858286016142f0565b8252505092915050565b6000602082840312156143c957600080fd5b81516001600160401b03808211156143e057600080fd5b90830190604082860312156143f457600080fd5b6143fc6140fd565b82518281111561440b57600080fd5b61441787828601614353565b82525060208301518281111561442c57600080fd5b61443887828601614353565b60208301525095945050505050565b60006040828403121561445957600080fd5b6144616140fd565b905081516001600160401b0381111561447957600080fd5b614485848285016142f0565b825250602082015161449681613f7a565b602082015292915050565b8051600781900b81146144b357600080fd5b919050565b600060a082840312156144ca57600080fd5b60405160a081016001600160401b0382821081831117156144ed576144ed6140e7565b81604052829350845191508082111561450557600080fd5b61451186838701614353565b8352602085015191508082111561452757600080fd5b5061453485828601614447565b602083015250614546604084016144a1565b6040820152606083015161455981613f7a565b6060820152608083015161456c81613f7a565b6080919091015292915050565b6000602080838503121561458c57600080fd5b82516001600160401b03808211156145a357600080fd5b90840190604082870312156145b757600080fd5b6145bf6140fd565b8251828111156145ce57600080fd5b8301604081890312156145e057600080fd5b6145e86140fd565b8151848111156145f757600080fd5b6146038a828501614353565b825250858201518481111561461757600080fd5b91909101906060828a03121561462c57600080fd5b614634614125565b82518581111561464357600080fd5b61464f8b828601614447565b825250868301518581111561466357600080fd5b61466f8b828601614447565b8883015250614680604084016144a1565b604082015281870152825250828401518281111561469d57600080fd5b6146a9888286016144b8565b948201949094529695505050505050565b600080600080608085870312156146d057600080fd5b84516146db81613f13565b6020860151604087015191955093506146f381613f13565b6060959095015193969295505050565b6000606082016001600160401b03808716845260208187168186015260606040860152828651808552608087019150828801945060005b8181101561475857855185168352948301949183019160010161473a565b50909998505050505050505050565b6000604082016001600160401b0380861684526020604081860152828651808552606087019150828801945060005b818110156147b4578551851683529483019491830191600101614796565b509098975050505050505050565b6000602082840312156147d457600080fd5b81516114ea81613f7a565b6000826147fc57634e487b7160e01b600052601260045260246000fd5b500490565b60006020828403121561481357600080fd5b81516114ea81613f13565b60006020828403121561483057600080fd5b81516001600160401b0381111561484657600080fd5b611d4d84828501614353565b6001600160401b0383168152604060208201526000611d4d6040830184613ed4565b6020808252602b908201527f496e697469616c697a61626c653a20636f6e7472616374206973206e6f74206960408201526a6e697469616c697a696e6760a81b606082015260800190565b8082028115828204841417610e7457610e7461426c565b634e487b7160e01b600052603260045260246000fd5b634e487b7160e01b600052603160045260246000fdfea264697066735822122031a2fc9e1d698012971bba66974a73a31064bbdff4984f250061313efbce886864736f6c63430008110033",
  "linkReferences": {
    "contracts/protocol/libraries/filecoin/contracts/WrapMinerAPI.sol": {
      "WrapMinerAPI": [
        {
          "length": 20,
          "start": 3563
        },
        {
          "length": 20,
          "start": 3728
        },
        {
          "length": 20,
          "start": 6685
        },
        {
          "length": 20,
          "start": 7007
        },
        {
          "length": 20,
          "start": 9636
        },
        {
          "length": 20,
          "start": 11285
        },
        {
          "length": 20,
          "start": 13009
        },
        {
          "length": 20,
          "start": 13741
        }
      ]
    },
    "contracts/protocol/libraries/filecoin/contracts/WrapPrecompilesAPI.sol": {
      "WrapPrecompilesAPI": [
        {
          "length": 20,
          "start": 13551
        },
        {
          "length": 20,
          "start": 14230
        },
        {
          "length": 20,
          "start": 15030
        }
      ]
    },
    "contracts/protocol/libraries/filecoin/contracts/WrapSendAPI.sol": {
      "WrapSendAPI": [
        {
          "length": 20,
          "start": 14202
        }
      ]
    },
    "contracts/protocol/libraries/filecoin/contracts/utils/WrapActorAddresses.sol": {
      "WrapActorAddresses": [
        {
          "length": 20,
          "start": 3037
        },
        {
          "length": 20,
          "start": 3852
        },
        {
          "length": 20,
          "start": 5003
        },
        {
          "length": 20,
          "start": 5660
        },
        {
          "length": 20,
          "start": 6080
        },
        {
          "length": 20,
          "start": 6204
        },
        {
          "length": 20,
          "start": 7410
        },
        {
          "length": 20,
          "start": 10531
        },
        {
          "length": 20,
          "start": 10786
        }
      ]
    },
    "contracts/protocol/libraries/filecoin/contracts/utils/WrapFilAddresses.sol": {
      "WrapFilAddresses": [
        {
          "length": 20,
          "start": 13768
        }
      ]
    }
  },
  "deployedLinkReferences": {
    "contracts/protocol/libraries/filecoin/contracts/WrapMinerAPI.sol": {
      "WrapMinerAPI": [
        {
          "length": 20,
          "start": 3297
        },
        {
          "length": 20,
          "start": 3462
        },
        {
          "length": 20,
          "start": 6419
        },
        {
          "length": 20,
          "start": 6741
        },
        {
          "length": 20,
          "start": 9370
        },
        {
          "length": 20,
          "start": 11019
        },
        {
          "length": 20,
          "start": 12743
        },
        {
          "length": 20,
          "start": 13475
        }
      ]
    },
    "contracts/protocol/libraries/filecoin/contracts/WrapPrecompilesAPI.sol": {
      "WrapPrecompilesAPI": [
        {
          "length": 20,
          "start": 13285
        },
        {
          "length": 20,
          "start": 13964
        },
        {
          "length": 20,
          "start": 14764
        }
      ]
    },
    "contracts/protocol/libraries/filecoin/contracts/WrapSendAPI.sol": {
      "WrapSendAPI": [
        {
          "length": 20,
          "start": 13936
        }
      ]
    },
    "contracts/protocol/libraries/filecoin/contracts/utils/WrapActorAddresses.sol": {
      "WrapActorAddresses": [
        {
          "length": 20,
          "start": 2771
        },
        {
          "length": 20,
          "start": 3586
        },
        {
          "length": 20,
          "start": 4737
        },
        {
          "length": 20,
          "start": 5394
        },
        {
          "length": 20,
          "start": 5814
        },
        {
          "length": 20,
          "start": 5938
        },
        {
          "length": 20,
          "start": 7144
        },
        {
          "length": 20,
          "start": 10265
        },
        {
          "length": 20,
          "start": 10520
        }
      ]
    },
    "contracts/protocol/libraries/filecoin/contracts/utils/WrapFilAddresses.sol": {
      "WrapFilAddresses": [
        {
          "length": 20,
          "start": 13502
        }
      ]
    }
  }
}