{
  "_format": "hh-sol-artifact-1",
  "contractName": "VariableDebtToken",
  "sourceName": "contracts/protocol/tokenization/VariableDebtToken.sol",
  "abi": [
    {
      "inputs": [],
      "stateMutability": "nonpayable",
      "type": "constructor"
    },
    {
      "anonymous": false,
      "inputs": [
        {
          "indexed": true,
          "internalType": "address",
          "name": "owner",
          "type": "address"
        },
        {
          "indexed": true,
          "internalType": "address",
          "name": "spender",
          "type": "address"
        },
        {
          "indexed": false,
          "internalType": "uint256",
          "name": "value",
          "type": "uint256"
        }
      ],
      "name": "Approval",
      "type": "event"
    },
    {
      "anonymous": false,
      "inputs": [
        {
          "indexed": true,
          "internalType": "address",
          "name": "onBehalfOf",
          "type": "address"
        },
        {
          "indexed": false,
          "internalType": "uint256",
          "name": "amount",
          "type": "uint256"
        },
        {
          "indexed": false,
          "internalType": "uint256",
          "name": "index",
          "type": "uint256"
        }
      ],
      "name": "Burn",
      "type": "event"
    },
    {
      "anonymous": false,
      "inputs": [
        {
          "indexed": false,
          "internalType": "uint8",
          "name": "version",
          "type": "uint8"
        }
      ],
      "name": "Initialized",
      "type": "event"
    },
    {
      "anonymous": false,
      "inputs": [
        {
          "indexed": true,
          "internalType": "address",
          "name": "onBehalfOf",
          "type": "address"
        },
        {
          "indexed": false,
          "internalType": "uint256",
          "name": "value",
          "type": "uint256"
        },
        {
          "indexed": false,
          "internalType": "uint256",
          "name": "index",
          "type": "uint256"
        }
      ],
      "name": "Mint",
      "type": "event"
    },
    {
      "anonymous": false,
      "inputs": [
        {
          "indexed": true,
          "internalType": "address",
          "name": "from",
          "type": "address"
        },
        {
          "indexed": true,
          "internalType": "address",
          "name": "to",
          "type": "address"
        },
        {
          "indexed": false,
          "internalType": "uint256",
          "name": "value",
          "type": "uint256"
        }
      ],
      "name": "Transfer",
      "type": "event"
    },
    {
      "inputs": [],
      "name": "POOL",
      "outputs": [
        {
          "internalType": "contract IStakingPool",
          "name": "",
          "type": "address"
        }
      ],
      "stateMutability": "view",
      "type": "function"
    },
    {
      "inputs": [
        {
          "internalType": "address",
          "name": "owner",
          "type": "address"
        },
        {
          "internalType": "address",
          "name": "spender",
          "type": "address"
        }
      ],
      "name": "allowance",
      "outputs": [
        {
          "internalType": "uint256",
          "name": "",
          "type": "uint256"
        }
      ],
      "stateMutability": "view",
      "type": "function"
    },
    {
      "inputs": [
        {
          "internalType": "address",
          "name": "spender",
          "type": "address"
        },
        {
          "internalType": "uint256",
          "name": "amount",
          "type": "uint256"
        }
      ],
      "name": "approve",
      "outputs": [
        {
          "internalType": "bool",
          "name": "",
          "type": "bool"
        }
      ],
      "stateMutability": "nonpayable",
      "type": "function"
    },
    {
      "inputs": [
        {
          "internalType": "address",
          "name": "user",
          "type": "address"
        }
      ],
      "name": "balanceOf",
      "outputs": [
        {
          "internalType": "uint256",
          "name": "",
          "type": "uint256"
        }
      ],
      "stateMutability": "view",
      "type": "function"
    },
    {
      "inputs": [
        {
          "internalType": "address",
          "name": "onBehalfOf",
          "type": "address"
        },
        {
          "internalType": "uint256",
          "name": "amount",
          "type": "uint256"
        },
        {
          "internalType": "uint256",
          "name": "index",
          "type": "uint256"
        }
      ],
      "name": "burn",
      "outputs": [],
      "stateMutability": "nonpayable",
      "type": "function"
    },
    {
      "inputs": [],
      "name": "decimals",
      "outputs": [
        {
          "internalType": "uint8",
          "name": "",
          "type": "uint8"
        }
      ],
      "stateMutability": "view",
      "type": "function"
    },
    {
      "inputs": [
        {
          "internalType": "address",
          "name": "spender",
          "type": "address"
        },
        {
          "internalType": "uint256",
          "name": "subtractedValue",
          "type": "uint256"
        }
      ],
      "name": "decreaseAllowance",
      "outputs": [
        {
          "internalType": "bool",
          "name": "",
          "type": "bool"
        }
      ],
      "stateMutability": "nonpayable",
      "type": "function"
    },
    {
      "inputs": [
        {
          "internalType": "address",
          "name": "user",
          "type": "address"
        }
      ],
      "name": "getUserScaledFactorAndSupply",
      "outputs": [
        {
          "internalType": "uint256",
          "name": "",
          "type": "uint256"
        },
        {
          "internalType": "uint256",
          "name": "",
          "type": "uint256"
        }
      ],
      "stateMutability": "view",
      "type": "function"
    },
    {
      "inputs": [
        {
          "internalType": "address",
          "name": "spender",
          "type": "address"
        },
        {
          "internalType": "uint256",
          "name": "addedValue",
          "type": "uint256"
        }
      ],
      "name": "increaseAllowance",
      "outputs": [
        {
          "internalType": "bool",
          "name": "",
          "type": "bool"
        }
      ],
      "stateMutability": "nonpayable",
      "type": "function"
    },
    {
      "inputs": [
        {
          "internalType": "contract IStakingPool",
          "name": "pool",
          "type": "address"
        }
      ],
      "name": "initialize",
      "outputs": [],
      "stateMutability": "nonpayable",
      "type": "function"
    },
    {
      "inputs": [
        {
          "internalType": "address",
          "name": "onBehalfOf",
          "type": "address"
        },
        {
          "internalType": "uint256",
          "name": "amount",
          "type": "uint256"
        },
        {
          "internalType": "uint256",
          "name": "index",
          "type": "uint256"
        }
      ],
      "name": "mint",
      "outputs": [],
      "stateMutability": "nonpayable",
      "type": "function"
    },
    {
      "inputs": [],
      "name": "name",
      "outputs": [
        {
          "internalType": "string",
          "name": "",
          "type": "string"
        }
      ],
      "stateMutability": "view",
      "type": "function"
    },
    {
      "inputs": [
        {
          "internalType": "address",
          "name": "user",
          "type": "address"
        }
      ],
      "name": "scaledFactor",
      "outputs": [
        {
          "internalType": "uint256",
          "name": "",
          "type": "uint256"
        }
      ],
      "stateMutability": "view",
      "type": "function"
    },
    {
      "inputs": [],
      "name": "scaledFactorTotalSupply",
      "outputs": [
        {
          "internalType": "uint256",
          "name": "",
          "type": "uint256"
        }
      ],
      "stateMutability": "view",
      "type": "function"
    },
    {
      "inputs": [],
      "name": "symbol",
      "outputs": [
        {
          "internalType": "string",
          "name": "",
          "type": "string"
        }
      ],
      "stateMutability": "view",
      "type": "function"
    },
    {
      "inputs": [],
      "name": "totalSupply",
      "outputs": [
        {
          "internalType": "uint256",
          "name": "",
          "type": "uint256"
        }
      ],
      "stateMutability": "view",
      "type": "function"
    },
    {
      "inputs": [
        {
          "internalType": "address",
          "name": "recipient",
          "type": "address"
        },
        {
          "internalType": "uint256",
          "name": "amount",
          "type": "uint256"
        }
      ],
      "name": "transfer",
      "outputs": [
        {
          "internalType": "bool",
          "name": "",
          "type": "bool"
        }
      ],
      "stateMutability": "nonpayable",
      "type": "function"
    },
    {
      "inputs": [
        {
          "internalType": "address",
          "name": "sender",
          "type": "address"
        },
        {
          "internalType": "address",
          "name": "recipient",
          "type": "address"
        },
        {
          "internalType": "uint256",
          "name": "amount",
          "type": "uint256"
        }
      ],
      "name": "transferFrom",
      "outputs": [
        {
          "internalType": "bool",
          "name": "",
          "type": "bool"
        }
      ],
      "stateMutability": "nonpayable",
      "type": "function"
    }
  ],
  "bytecode": "0x608060405234801561001057600080fd5b5061001961001e565b6100de565b600054610100900460ff161561008a5760405162461bcd60e51b815260206004820152602760248201527f496e697469616c697a61626c653a20636f6e747261637420697320696e697469604482015266616c697a696e6760c81b606482015260840160405180910390fd5b60005460ff90811610156100dc576000805460ff191660ff9081179091556040519081527f7f26b83ff96e1f2b6a682f133852f6798a09c465da95921460cefb38474024989060200160405180910390a15b565b6111db806100ed6000396000f3fe608060405234801561001057600080fd5b50600436106101165760003560e01c806370a08231116100a2578063a457c2d711610071578063a457c2d7146101b8578063a9059cbb14610231578063c4d66de81461023f578063dd62ed3e14610252578063f5298aca1461026057600080fd5b806370a08231146101f35780637535d246146102065780637d39d2251461022157806395d89b411461022957600080fd5b806318160ddd116100e957806318160ddd1461018e57806323b872dd14610196578063313ce567146101a957806339509351146101b857806357be1a03146101cb57600080fd5b8063010cad0f1461011b57806306fdde0314610141578063095ea7b314610156578063156e29f614610179575b600080fd5b61012e610129366004610e28565b610273565b6040519081526020015b60405180910390f35b610149610295565b6040516101389190610e45565b610169610164366004610e93565b610327565b6040519015158152602001610138565b61018c610187366004610ebf565b610370565b005b61012e6104a7565b6101696101a4366004610ef4565b610531565b60405160128152602001610138565b6101696101c6366004610e93565b610575565b6101de6101d9366004610e28565b6105c0565b60408051928352602083019190915201610138565b61012e610201366004610e28565b6105e4565b6097546040516001600160a01b039091168152602001610138565b61012e61068c565b610149610697565b6101696101a4366004610e93565b61018c61024d366004610e28565b6106a6565b61012e6101c6366004610f35565b61018c61026e366004610ebf565b61081b565b600061028f61028a836001600160a01b0316610948565b61098f565b92915050565b6060603680546102a490610f6e565b80601f01602080910402602001604051908101604052809291908181526020018280546102d090610f6e565b801561031d5780601f106102f25761010080835404028352916020019161031d565b820191906000526020600020905b81548152906001019060200180831161030057829003601f168201915b5050505050905090565b60405162461bcd60e51b81526020600482015260166024820152751054141493d5905317d393d517d4d5541413d495115160521b60448201526000906064015b60405180910390fd5b6097546040805180820190915260028152611c1960f11b6020820152906001600160a01b031633146103b55760405162461bcd60e51b81526004016103679190610e45565b506103c8836001600160a01b0316610948565b925060006103d683836109c7565b604080518082019091526002815261383360f01b6020820152909150816104105760405162461bcd60e51b81526004016103679190610e45565b5061041b8482610aa5565b6040518381526001600160a01b038516906000907fddf252ad1be2c89b69c2b068fc378daa952ba7f163c4a11628f55a4df523b3ef9060200160405180910390a360408051848152602081018490526001600160a01b038616917f4c209b5fc8ad50758f13e2e1088ba56a560dff690a1c6fef26394f4c03821c4f91015b60405180910390a250505050565b600061052c609760009054906101000a90046001600160a01b03166001600160a01b031663feb7bb576040518163ffffffff1660e01b8152600401602060405180830381865afa1580156104ff573d6000803e3d6000fd5b505050506040513d601f19601f820116820180604052508101906105239190610fa8565b60355490610b34565b905090565b60405162461bcd60e51b81526020600482015260166024820152751514905394d1915497d393d517d4d5541413d495115160521b6044820152600090606401610367565b60405162461bcd60e51b815260206004820152601760248201527f414c4c4f57414e43455f4e4f545f535550504f525445440000000000000000006044820152600090606401610367565b6000806105d861028a846001600160a01b0316610948565b60355491509150915091565b6000806105fc61028a846001600160a01b0316610948565b90508060000361060f5750600092915050565b6097546040805163feb7bb5760e01b81529051610685926001600160a01b03169163feb7bb579160048083019260209291908290030181865afa15801561065a573d6000803e3d6000fd5b505050506040513d601f19601f8201168201806040525081019061067e9190610fa8565b8290610b34565b9392505050565b600061052c60355490565b6060603780546102a490610f6e565b600054610100900460ff16158080156106c65750600054600160ff909116105b806106e05750303b1580156106e0575060005460ff166001145b6107435760405162461bcd60e51b815260206004820152602e60248201527f496e697469616c697a61626c653a20636f6e747261637420697320616c72656160448201526d191e481a5b9a5d1a585b1a5e995960921b6064820152608401610367565b6000805460ff191660011790558015610766576000805461ff0019166101001790555b6107b66040518060400160405280601181526020017015985c9a58589b19481119589d08119253607a1b815250604051806040016040528060058152602001641d9911925360da1b815250610bef565b609780546001600160a01b0319166001600160a01b0384161790558015610817576000805461ff0019169055604051600181527f7f26b83ff96e1f2b6a682f133852f6798a09c465da95921460cefb38474024989060200160405180910390a15b5050565b6097546040805180820190915260028152611c1960f11b6020820152906001600160a01b031633146108605760405162461bcd60e51b81526004016103679190610e45565b50610873836001600160a01b0316610948565b9250600061088183836109c7565b6040805180820190915260028152610e0d60f21b6020820152909150816108bb5760405162461bcd60e51b81526004016103679190610e45565b506108c68482610c20565b6040518381526000906001600160a01b038616907fddf252ad1be2c89b69c2b068fc378daa952ba7f163c4a11628f55a4df523b3ef9060200160405180910390a360408051848152602081018490526001600160a01b038616917f49995e5dd6158cf69ad3e9777c46755a1a826a446c6416992167462dad033b2a9101610499565b600080600061095684610d29565b915091508161096757509192915050565b60008061097383610d66565b9150915081610986575093949350505050565b95945050505050565b6000603360006109a7846001600160a01b0316610948565b6001600160a01b0316815260208101919091526040016000205492915050565b604080518082019091526002815261373760f01b602082015260009082610a015760405162461bcd60e51b81526004016103679190610e45565b506000610a0f600284610fd7565b90506b033b2e3c9fd0803ce8000000610a2a82600019610ff9565b610a349190610fd7565b84111560405180604001604052806002815260200161373560f01b81525090610a705760405162461bcd60e51b81526004016103679190610e45565b508281610a896b033b2e3c9fd0803ce80000008761100c565b610a939190611023565b610a9d9190610fd7565b949350505050565b6001600160a01b038216610afb5760405162461bcd60e51b815260206004820152601f60248201527f45524332303a206d696e7420746f20746865207a65726f2061646472657373006044820152606401610367565b8060356000828254610b0d9190611023565b90915550506001600160a01b03821660009081526033602052604090208054820190555050565b6000821580610b41575081155b15610b4e5750600061028f565b81610b6660026b033b2e3c9fd0803ce8000000610fd7565b610b7290600019610ff9565b610b7c9190610fd7565b83111560405180604001604052806002815260200161373560f01b81525090610bb85760405162461bcd60e51b81526004016103679190610e45565b506b033b2e3c9fd0803ce8000000610bd1600282610fd7565b610bdb848661100c565b610be59190611023565b6106859190610fd7565b600054610100900460ff16610c165760405162461bcd60e51b815260040161036790611036565b6108178282610dd0565b6001600160a01b038216610c805760405162461bcd60e51b815260206004820152602160248201527f45524332303a206275726e2066726f6d20746865207a65726f206164647265736044820152607360f81b6064820152608401610367565b6001600160a01b03821660009081526033602052604090205481811015610cf45760405162461bcd60e51b815260206004820152602260248201527f45524332303a206275726e20616d6f756e7420657863656564732062616c616e604482015261636560f01b6064820152608401610367565b6001600160a01b03831660009081526033602052604081208383039055603580548490039055610d249084908483565b505050565b60008073ffffffffffffffffffffffff0000000000000000831660ff60981b8103610d60576001925067ffffffffffffffff841691505b50915091565b600080826000526016600a602060006002607f60991b015afa9150600051806001600160a01b031691508060a01c61ffff16905061040a8114610dac5760009250600091505b50811580610dbb57503d601614155b15610dcb57506000928392509050565b915091565b600054610100900460ff16610df75760405162461bcd60e51b815260040161036790611036565b6036610e0383826110e5565b506037610d2482826110e5565b6001600160a01b0381168114610e2557600080fd5b50565b600060208284031215610e3a57600080fd5b813561068581610e10565b600060208083528351808285015260005b81811015610e7257858101830151858201604001528201610e56565b506000604082860101526040601f19601f8301168501019250505092915050565b60008060408385031215610ea657600080fd5b8235610eb181610e10565b946020939093013593505050565b600080600060608486031215610ed457600080fd5b8335610edf81610e10565b95602085013595506040909401359392505050565b600080600060608486031215610f0957600080fd5b8335610f1481610e10565b92506020840135610f2481610e10565b929592945050506040919091013590565b60008060408385031215610f4857600080fd5b8235610f5381610e10565b91506020830135610f6381610e10565b809150509250929050565b600181811c90821680610f8257607f821691505b602082108103610fa257634e487b7160e01b600052602260045260246000fd5b50919050565b600060208284031215610fba57600080fd5b5051919050565b634e487b7160e01b600052601160045260246000fd5b600082610ff457634e487b7160e01b600052601260045260246000fd5b500490565b8181038181111561028f5761028f610fc1565b808202811582820484141761028f5761028f610fc1565b8082018082111561028f5761028f610fc1565b6020808252602b908201527f496e697469616c697a61626c653a20636f6e7472616374206973206e6f74206960408201526a6e697469616c697a696e6760a81b606082015260800190565b634e487b7160e01b600052604160045260246000fd5b601f821115610d2457600081815260208120601f850160051c810160208610156110be5750805b601f850160051c820191505b818110156110dd578281556001016110ca565b505050505050565b815167ffffffffffffffff8111156110ff576110ff611081565b6111138161110d8454610f6e565b84611097565b602080601f83116001811461114857600084156111305750858301515b600019600386901b1c1916600185901b1785556110dd565b600085815260208120601f198616915b8281101561117757888601518255948401946001909101908401611158565b50858210156111955787850151600019600388901b60f8161c191681555b5050505050600190811b0190555056fea26469706673582212201ef329d5b9158a01cc9c0a3f83352c115c15550c6305ccf7159f643e759e99b064736f6c63430008110033",
  "linkReferences": {},
  "deployedLinkReferences": {}
}